{
  "_format": "hh-sol-artifact-1",
  "contractName": "CustomNFT",
  "sourceName": "contracts/NFT.sol",
  "abi": [
    {
      "inputs": [],
      "stateMutability": "nonpayable",
      "type": "constructor"
    },
    {
      "inputs": [
        {
          "internalType": "address",
          "name": "sender",
          "type": "address"
        },
        {
          "internalType": "uint256",
          "name": "balance",
          "type": "uint256"
        },
        {
          "internalType": "uint256",
          "name": "needed",
          "type": "uint256"
        },
        {
          "internalType": "uint256",
          "name": "tokenId",
          "type": "uint256"
        }
      ],
      "name": "ERC1155InsufficientBalance",
      "type": "error"
    },
    {
      "inputs": [
        {
          "internalType": "address",
          "name": "approver",
          "type": "address"
        }
      ],
      "name": "ERC1155InvalidApprover",
      "type": "error"
    },
    {
      "inputs": [
        {
          "internalType": "uint256",
          "name": "idsLength",
          "type": "uint256"
        },
        {
          "internalType": "uint256",
          "name": "valuesLength",
          "type": "uint256"
        }
      ],
      "name": "ERC1155InvalidArrayLength",
      "type": "error"
    },
    {
      "inputs": [
        {
          "internalType": "address",
          "name": "operator",
          "type": "address"
        }
      ],
      "name": "ERC1155InvalidOperator",
      "type": "error"
    },
    {
      "inputs": [
        {
          "internalType": "address",
          "name": "receiver",
          "type": "address"
        }
      ],
      "name": "ERC1155InvalidReceiver",
      "type": "error"
    },
    {
      "inputs": [
        {
          "internalType": "address",
          "name": "sender",
          "type": "address"
        }
      ],
      "name": "ERC1155InvalidSender",
      "type": "error"
    },
    {
      "inputs": [
        {
          "internalType": "address",
          "name": "operator",
          "type": "address"
        },
        {
          "internalType": "address",
          "name": "owner",
          "type": "address"
        }
      ],
      "name": "ERC1155MissingApprovalForAll",
      "type": "error"
    },
    {
      "inputs": [
        {
          "internalType": "address",
          "name": "owner",
          "type": "address"
        }
      ],
      "name": "OwnableInvalidOwner",
      "type": "error"
    },
    {
      "inputs": [
        {
          "internalType": "address",
          "name": "account",
          "type": "address"
        }
      ],
      "name": "OwnableUnauthorizedAccount",
      "type": "error"
    },
    {
      "anonymous": false,
      "inputs": [
        {
          "indexed": true,
          "internalType": "address",
          "name": "account",
          "type": "address"
        },
        {
          "indexed": true,
          "internalType": "address",
          "name": "operator",
          "type": "address"
        },
        {
          "indexed": false,
          "internalType": "bool",
          "name": "approved",
          "type": "bool"
        }
      ],
      "name": "ApprovalForAll",
      "type": "event"
    },
    {
      "anonymous": false,
      "inputs": [
        {
          "indexed": true,
          "internalType": "address",
          "name": "previousOwner",
          "type": "address"
        },
        {
          "indexed": true,
          "internalType": "address",
          "name": "newOwner",
          "type": "address"
        }
      ],
      "name": "OwnershipTransferred",
      "type": "event"
    },
    {
      "anonymous": false,
      "inputs": [
        {
          "indexed": true,
          "internalType": "address",
          "name": "operator",
          "type": "address"
        },
        {
          "indexed": true,
          "internalType": "address",
          "name": "from",
          "type": "address"
        },
        {
          "indexed": true,
          "internalType": "address",
          "name": "to",
          "type": "address"
        },
        {
          "indexed": false,
          "internalType": "uint256[]",
          "name": "ids",
          "type": "uint256[]"
        },
        {
          "indexed": false,
          "internalType": "uint256[]",
          "name": "values",
          "type": "uint256[]"
        }
      ],
      "name": "TransferBatch",
      "type": "event"
    },
    {
      "anonymous": false,
      "inputs": [
        {
          "indexed": true,
          "internalType": "address",
          "name": "operator",
          "type": "address"
        },
        {
          "indexed": true,
          "internalType": "address",
          "name": "from",
          "type": "address"
        },
        {
          "indexed": true,
          "internalType": "address",
          "name": "to",
          "type": "address"
        },
        {
          "indexed": false,
          "internalType": "uint256",
          "name": "id",
          "type": "uint256"
        },
        {
          "indexed": false,
          "internalType": "uint256",
          "name": "value",
          "type": "uint256"
        }
      ],
      "name": "TransferSingle",
      "type": "event"
    },
    {
      "anonymous": false,
      "inputs": [
        {
          "indexed": false,
          "internalType": "string",
          "name": "value",
          "type": "string"
        },
        {
          "indexed": true,
          "internalType": "uint256",
          "name": "id",
          "type": "uint256"
        }
      ],
      "name": "URI",
      "type": "event"
    },
    {
      "inputs": [],
      "name": "Bronze",
      "outputs": [
        {
          "internalType": "uint256",
          "name": "",
          "type": "uint256"
        }
      ],
      "stateMutability": "view",
      "type": "function"
    },
    {
      "inputs": [],
      "name": "Gold",
      "outputs": [
        {
          "internalType": "uint256",
          "name": "",
          "type": "uint256"
        }
      ],
      "stateMutability": "view",
      "type": "function"
    },
    {
      "inputs": [],
      "name": "Silver",
      "outputs": [
        {
          "internalType": "uint256",
          "name": "",
          "type": "uint256"
        }
      ],
      "stateMutability": "view",
      "type": "function"
    },
    {
      "inputs": [
        {
          "internalType": "address",
          "name": "account",
          "type": "address"
        },
        {
          "internalType": "uint256",
          "name": "id",
          "type": "uint256"
        }
      ],
      "name": "balanceOf",
      "outputs": [
        {
          "internalType": "uint256",
          "name": "",
          "type": "uint256"
        }
      ],
      "stateMutability": "view",
      "type": "function"
    },
    {
      "inputs": [
        {
          "internalType": "address[]",
          "name": "accounts",
          "type": "address[]"
        },
        {
          "internalType": "uint256[]",
          "name": "ids",
          "type": "uint256[]"
        }
      ],
      "name": "balanceOfBatch",
      "outputs": [
        {
          "internalType": "uint256[]",
          "name": "",
          "type": "uint256[]"
        }
      ],
      "stateMutability": "view",
      "type": "function"
    },
    {
      "inputs": [
        {
          "internalType": "uint256[]",
          "name": "_type",
          "type": "uint256[]"
        },
        {
          "internalType": "uint256[]",
          "name": "_number",
          "type": "uint256[]"
        }
      ],
      "name": "buyWithUSDC",
      "outputs": [],
      "stateMutability": "nonpayable",
      "type": "function"
    },
    {
      "inputs": [
        {
          "internalType": "address",
          "name": "account",
          "type": "address"
        },
        {
          "internalType": "address",
          "name": "operator",
          "type": "address"
        }
      ],
      "name": "isApprovedForAll",
      "outputs": [
        {
          "internalType": "bool",
          "name": "",
          "type": "bool"
        }
      ],
      "stateMutability": "view",
      "type": "function"
    },
    {
      "inputs": [],
      "name": "owner",
      "outputs": [
        {
          "internalType": "address",
          "name": "",
          "type": "address"
        }
      ],
      "stateMutability": "view",
      "type": "function"
    },
    {
      "inputs": [],
      "name": "price",
      "outputs": [
        {
          "internalType": "uint256",
          "name": "",
          "type": "uint256"
        }
      ],
      "stateMutability": "view",
      "type": "function"
    },
    {
      "inputs": [],
      "name": "renounceOwnership",
      "outputs": [],
      "stateMutability": "nonpayable",
      "type": "function"
    },
    {
      "inputs": [
        {
          "internalType": "address",
          "name": "from",
          "type": "address"
        },
        {
          "internalType": "address",
          "name": "to",
          "type": "address"
        },
        {
          "internalType": "uint256[]",
          "name": "ids",
          "type": "uint256[]"
        },
        {
          "internalType": "uint256[]",
          "name": "values",
          "type": "uint256[]"
        },
        {
          "internalType": "bytes",
          "name": "data",
          "type": "bytes"
        }
      ],
      "name": "safeBatchTransferFrom",
      "outputs": [],
      "stateMutability": "nonpayable",
      "type": "function"
    },
    {
      "inputs": [
        {
          "internalType": "address",
          "name": "from",
          "type": "address"
        },
        {
          "internalType": "address",
          "name": "to",
          "type": "address"
        },
        {
          "internalType": "uint256",
          "name": "id",
          "type": "uint256"
        },
        {
          "internalType": "uint256",
          "name": "value",
          "type": "uint256"
        },
        {
          "internalType": "bytes",
          "name": "data",
          "type": "bytes"
        }
      ],
      "name": "safeTransferFrom",
      "outputs": [],
      "stateMutability": "nonpayable",
      "type": "function"
    },
    {
      "inputs": [
        {
          "internalType": "address",
          "name": "operator",
          "type": "address"
        },
        {
          "internalType": "bool",
          "name": "approved",
          "type": "bool"
        }
      ],
      "name": "setApprovalForAll",
      "outputs": [],
      "stateMutability": "nonpayable",
      "type": "function"
    },
    {
      "inputs": [
        {
          "internalType": "uint256",
          "name": "_newPrice",
          "type": "uint256"
        }
      ],
      "name": "setPrice",
      "outputs": [],
      "stateMutability": "nonpayable",
      "type": "function"
    },
    {
      "inputs": [
        {
          "internalType": "uint256",
          "name": "_id",
          "type": "uint256"
        },
        {
          "internalType": "string",
          "name": "_uri",
          "type": "string"
        }
      ],
      "name": "setURI",
      "outputs": [],
      "stateMutability": "nonpayable",
      "type": "function"
    },
    {
      "inputs": [
        {
          "internalType": "address",
          "name": "_USDCaddress",
          "type": "address"
        }
      ],
      "name": "setUSDC",
      "outputs": [],
      "stateMutability": "nonpayable",
      "type": "function"
    },
    {
      "inputs": [
        {
          "internalType": "bytes4",
          "name": "interfaceId",
          "type": "bytes4"
        }
      ],
      "name": "supportsInterface",
      "outputs": [
        {
          "internalType": "bool",
          "name": "",
          "type": "bool"
        }
      ],
      "stateMutability": "view",
      "type": "function"
    },
    {
      "inputs": [
        {
          "internalType": "uint256",
          "name": "",
          "type": "uint256"
        }
      ],
      "name": "tokenURI",
      "outputs": [
        {
          "internalType": "string",
          "name": "",
          "type": "string"
        }
      ],
      "stateMutability": "view",
      "type": "function"
    },
    {
      "inputs": [
        {
          "internalType": "address",
          "name": "newOwner",
          "type": "address"
        }
      ],
      "name": "transferOwnership",
      "outputs": [],
      "stateMutability": "nonpayable",
      "type": "function"
    },
    {
      "inputs": [
        {
          "internalType": "uint256",
          "name": "_id",
          "type": "uint256"
        }
      ],
      "name": "uri",
      "outputs": [
        {
          "internalType": "string",
          "name": "",
          "type": "string"
        }
      ],
      "stateMutability": "view",
      "type": "function"
    }
  ],
  "bytecode": "0x60806040523462000115576200001560a0604052565b6000608052600254600181811c911680156200010a575b6020821014620000f457620000419062000540565b60006002553315620000db576200005833620004f7565b600580546001600160a01b03191673036cbd53842c5426634e7929541ec2318f3dcf7e179055620000936200008c6200015a565b336200017e565b620000a8620000a16200015a565b336200032e565b620000bd620000b66200015a565b3362000412565b620000cb633b9aca00600455565b6040516113d29081620008738239f35b604051631e4fbdf760e01b815260006004820152602490fd5b634e487b7160e01b600052602260045260246000fd5b90607f16906200002c565b600080fd5b634e487b7160e01b600052604160045260246000fd5b601f909101601f19168101906001600160401b038211908210176200015457604052565b6200011a565b60405190602082016001600160401b03811183821017620001545760405260008252565b6001600160a01b0381169190821562000315576040516001938482526020916020810195600087526040820192818452606094606084019560648752608085018060405285518751808203620002f957505050908391826000905b62000291575b50505083511460001462000252576000885160008051602062001c4583398151915262000222885160405191829133958360209093929193604081019481520152565b0390a45b81510362000242575050620002409351905191336200083a565b565b91509162000240945033620006fa565b60006040517f4a39dc06d4c0dbc64b70af90fd698a233a518aa5d07e595d983b8c0526c8f7fb33918062000288898983620005d6565b0390a462000226565b8651811015620002f35780849160051b8801620002e9620002e08d620002c98789860151950151946000526000602052604060002090565b9060018060a01b0316600052602052604060002090565b9182546200057c565b90550183620001d9565b620001df565b635b05999160e01b8352608488019190915260a4870152604490fd5b604051632bfa23e760e11b815260006004820152602490fd5b6001600160a01b03811691908215620003155760405160019384825260209160208101958087526040820192818452606094606084019560648752608085018060405285518751808203620002f957505050908391826000905b620003d05750505083511460001462000252576000885160008051602062001c4583398151915262000222885160405191829133958360209093929193604081019481520152565b8651811015620002f35780849160051b880162000408620002e08d620002c98789860151950151946000526000602052604060002090565b9055018362000388565b6001600160a01b0381169190821562000315576040516001938482526020916020810195600287526040820192818452606094606084019560648752608085018060405285518751808203620002f957505050908391826000905b620004b55750505083511460001462000252576000885160008051602062001c4583398151915262000222885160405191829133958360209093929193604081019481520152565b8651811015620002f35780849160051b8801620004ed620002e08d620002c98789860151950151946000526000602052604060002090565b905501836200046d565b600380546001600160a01b039283166001600160a01b0319821681179092559091167f8be0079c531659141344cd1fd0a4f28419497f9722a3daafe3b4186f6b6457e0600080a3565b601f81116200054c5750565b60006002600052601f6020600020920160051c8201915b8281106200057057505050565b81815560010162000563565b919082018092116200058a57565b634e487b7160e01b600052601160045260246000fd5b90815180825260208080930193019160005b828110620005c1575050505090565b835185529381019392810192600101620005b2565b9091620005f0620005ff93604084526040840190620005a0565b916020818403910152620005a0565b90565b908160209103126200011557516001600160e01b031981168103620001155790565b919082519283825260005b84811062000651575050826000602080949584010152601f8019910116010190565b6020818301810151848301820152016200062f565b9262000699620005ff9593620006a89360018060a01b031686526000602087015260a0604087015260a0860190620005a0565b908482036060860152620005a0565b91608081840391015262000624565b3d15620006f5573d906001600160401b038211620001545760405191620006e9601f8201601f19166020018462000130565b82523d6000602084013e565b606090565b9293919093843b6200070e575b5050505050565b60209162000733604051948593849363bc197c8160e01b988986526004860162000666565b038160006001600160a01b0388165af160009181620007cf575b506200079057826200075e620006b7565b80519190826200078957604051632bfa23e760e11b81526001600160a01b0383166004820152602490fd5b9050602001fd5b6001600160e01b03191603620007ac5750388080808062000707565b604051632bfa23e760e11b81526001600160a01b03919091166004820152602490fd5b620007f791925060203d602011620007ff575b620007ee818362000130565b81019062000602565b90386200074d565b503d620007e2565b909260a092620005ff9594600180861b031683526000602084015260408301526060820152816080820152019062000624565b9293919093843b6200084d575050505050565b60209162000733604051948593849363f23a6e6160e01b98898652600486016200080756fe6080604052600436101561001257600080fd5b60003560e01c8062fdd58e1461015157806301ffc9a71461014c5780630e89341c1461010b57806310ca7d1c1461014757806323a418b0146101425780632eb2c2d61461013d5780634e1273f414610138578063715018a614610133578063862440e21461012e5780638da5cb5b1461012957806391b7f5ed14610124578063a035b1fe1461011f578063a22cb4651461011a578063b3e089a214610115578063c8449b6514610110578063c87b56dd1461010b578063e985e9c514610106578063f242432a14610101578063f2fde38b146100fc5763fe275280146100f757600080fd5b610d37565b610caf565b610b9a565b610b3d565b6102a8565b610ae7565b610aa4565b6109e6565b6109be565b61099d565b610974565b610849565b6107e8565b61072e565b610606565b610452565b610383565b6101fa565b61019b565b600435906001600160a01b038216820361016c57565b600080fd5b602435906001600160a01b038216820361016c57565b35906001600160a01b038216820361016c57565b3461016c57604036600319011261016c5760206101df6101b9610156565b6024356000526000835260406000209060018060a01b0316600052602052604060002090565b54604051908152f35b6001600160e01b031981160361016c57565b3461016c57602036600319011261016c576020600435610219816101e8565b63ffffffff60e01b16636cdb3d1360e11b8114908115610257575b8115610246575b506040519015158152f35b6301ffc9a760e01b1490503861023b565b6303a24d0760e21b81149150610234565b919082519283825260005b848110610294575050826000602080949584010152601f8019910116010190565b602081830181015184830182015201610273565b3461016c5760208060031936011261016c5760009060043582526006815260408220604051838194908354906102dd82610b03565b948585526001928760018216918260001461035f575050600114610323575b50505061030b925003836103b5565b61031f604051928284938452830190610268565b0390f35b869350819291528282205b85831061034757505061030b93508201013880806102fc565b8054838901850152879450869390920191810161032e565b93509450505061030b94915060ff191682840152151560051b8201013880806102fc565b3461016c57600036600319011261016c57602060405160028152f35b634e487b7160e01b600052604160045260246000fd5b90601f801991011681019081106001600160401b038211176103d657604052565b61039f565b6001600160401b0381116103d65760051b60200190565b9080601f8301121561016c57602090823561040c816103db565b9361041a60405195866103b5565b81855260208086019260051b82010192831161016c57602001905b828210610443575050505090565b81358152908301908301610435565b3461016c57604036600319011261016c576001600160401b0360043581811161016c576104839036906004016103f2565b9060243590811161016c5761049c9036906004016103f2565b60009190825b81518410156104ca576104c26001916104bb8685610d53565b5190610d93565b9301926104a2565b60055461053694506020906001600160a01b03166003546004546001600160a01b039491851692916104fb91610da5565b6040516323b872dd60e01b81523360048201526001600160a01b03909316602484015260448301529095869190829060009082906064820190565b03925af19384156105915761056094610562575b506003541691610558610dd9565b923390610f11565b005b6105839060203d60201161058a575b61057b81836103b5565b810190610db8565b503861054a565b503d610571565b610dcd565b6001600160401b0381116103d657601f01601f191660200190565b9291926105bd82610596565b916105cb60405193846103b5565b82948184528183011161016c578281602093846000960137010152565b9080601f8301121561016c57816020610603933591016105b1565b90565b3461016c5760a036600319011261016c5761061f610156565b610627610171565b6001600160401b0360443581811161016c576106479036906004016103f2565b60643582811161016c5761065f9036906004016103f2565b9160843590811161016c576106789036906004016105e8565b926001600160a01b0385163381141590816106c3575b5061069c5761056094610f11565b60405163711bec9160e11b81523360048201526001600160a01b0386166024820152604490fd5b6000908152600160209081526040808320338452909152902060ff91505416153861068e565b90815180825260208080930193019160005b828110610709575050505090565b8351855293810193928101926001016106fb565b9060206106039281815201906106e9565b3461016c57604036600319011261016c576004356001600160401b0380821161016c573660238301121561016c57816004013561076a816103db565b9261077860405194856103b5565b8184526020916024602086019160051b8301019136831161016c57602401905b8282106107d1578560243586811161016c5761031f916107bf6107c59236906004016103f2565b90610dfc565b6040519182918261071d565b8380916107dd84610187565b815201910190610798565b3461016c5760008060031936011261084657610802610f37565b600380546001600160a01b0319811690915581906001600160a01b03167f8be0079c531659141344cd1fd0a4f28419497f9722a3daafe3b4186f6b6457e08280a380f35b80fd5b3461016c57604036600319011261016c576001600160401b0360243581811161016c573660238201121561016c5761088b9036906024816004013591016105b1565b90610894610f37565b60009060043582526020906006602052604083209184519182116103d6576108c6826108c08554610b03565b85610ebb565b602090601f83116001146109095750819084956108f99495926108fe575b50508160011b916000199060031b1c19161790565b905580f35b0151905038806108e4565b90601f1983169561091f85600052602060002090565b9286905b88821061095c57505083600195969710610943575b505050811b01905580f35b015160001960f88460031b161c19169055388080610938565b80600185968294968601518155019501930190610923565b3461016c57600036600319011261016c576003546040516001600160a01b039091168152602090f35b3461016c57602036600319011261016c576109b6610f37565b600480359055005b3461016c57600036600319011261016c576020600454604051908152f35b8015150361016c57565b3461016c57604036600319011261016c576109ff610156565b602435610a0b816109dc565b6001600160a01b038216918215610a8c573360009081526001602090815260408083206001600160a01b0390941683529290522060ff1981541660ff831515161790557f17307eab39ab6107e8899845ad3d59bd9653f200f220920489ca2b5937696c3160405180610a87339482919091602081019215159052565b0390a3005b60405162ced3e160e81b815260006004820152602490fd5b3461016c57602036600319011261016c57610abd610156565b610ac5610f37565b600580546001600160a01b0319166001600160a01b0392909216919091179055005b3461016c57600036600319011261016c57602060405160008152f35b90600182811c92168015610b33575b6020831014610b1d57565b634e487b7160e01b600052602260045260246000fd5b91607f1691610b12565b3461016c57604036600319011261016c57602060ff610b8e610b5d610156565b610b65610171565b6001600160a01b0391821660009081526001865260408082209290931681526020919091522090565b54166040519015158152f35b3461016c5760a036600319011261016c57610bb3610156565b610bbb610171565b906084356001600160401b03811161016c57610bdb9036906004016105e8565b906001600160a01b03808216903382141580610c8b575b610c6457841615610c4b5715610c33576105609260405190600182526044356020830152604082019260018452606435606084015260808301604052610f63565b604051626a0d4560e21b815260006004820152602490fd5b604051632bfa23e760e11b815260006004820152602490fd5b60405163711bec9160e11b81523360048201526001600160a01b0384166024820152604490fd5b50600082815260016020908152604080832033845290915290205460ff1615610bf2565b3461016c57602036600319011261016c57610cc8610156565b610cd0610f37565b6001600160a01b03908116908115610d1e57600380546001600160a01b031981168417909155167f8be0079c531659141344cd1fd0a4f28419497f9722a3daafe3b4186f6b6457e0600080a3005b604051631e4fbdf760e01b815260006004820152602490fd5b3461016c57600036600319011261016c57602060405160018152f35b8051821015610d675760209160051b010190565b634e487b7160e01b600052603260045260246000fd5b634e487b7160e01b600052601160045260246000fd5b91908201809211610da057565b610d7d565b81810292918115918404141715610da057565b9081602091031261016c5751610603816109dc565b6040513d6000823e3d90fd5b60405190602082018281106001600160401b038211176103d65760405260008252565b91909180518351808203610e99575050805190610e31610e1b836103db565b92610e2960405194856103b5565b8084526103db565b60209190601f1901368484013760005b8151811015610e9157600581901b8281018401519087018401516000908152602081815260408083206001600160a01b039094168352929052205460019190610e8a8287610d53565b5201610e41565b509193505050565b604051635b05999160e01b815260048101919091526024810191909152604490fd5b90601f8111610ec957505050565b6000916000526020600020906020601f850160051c83019410610f07575b601f0160051c01915b828110610efc57505050565b818155600101610ef0565b9092508290610ee7565b939291906001600160a01b0380821615610c4b57851615610c3357610f3594610f63565b565b6003546001600160a01b03163303610f4b57565b60405163118cdaa760e01b8152336004820152602490fd5b949190918151845190818103610e9957505060005b825181101561108557600581901b83810160209081015191870101516001600160a01b03929186908a8516610fff575b6001948216610fbb575b50505001610f78565b610ff591610fd6610fed926000526000602052604060002090565b9060018060a01b0316600052602052604060002090565b918254610d93565b9055388581610fb2565b919293905061101c8a610fd6846000526000602052604060002090565b5483811061104e57918791846001969594036110468d610fd6856000526000602052604060002090565b559450610fa8565b6040516303dee4c560e01b81526001600160a01b038c16600482015260248101919091526044810184905260648101839052608490fd5b509491939290936001855114600014611130576020858101518382015160408051928352928201526001600160a01b03838116929086169133917fc3d58168c5ae7397731d063d5bbf3d657854427343f4c083240f7aacaa2d0f6291a45b6001600160a01b0381166110f9575b5050505050565b845160010361111f576020806111159601519201519233611365565b38808080806110f2565b61112b94919233611233565b611115565b6040516001600160a01b03828116919085169033907f4a39dc06d4c0dbc64b70af90fd698a233a518aa5d07e595d983b8c0526c8f7fb9080611173888c8361117b565b0390a46110e3565b9091611192610603936040845260408401906106e9565b9160208184039101526106e9565b9081602091031261016c5751610603816101e8565b939061060395936111e7916111f59460018060a01b03809216885216602087015260a0604087015260a08601906106e9565b9084820360608601526106e9565b916080818403910152610268565b3d1561122e573d9061121482610596565b9161122260405193846103b5565b82523d6000602084013e565b606090565b939290949194853b611248575b505050505050565b61126b602093604051958694859463bc197c8160e01b998a8752600487016111b5565b038160006001600160a01b0388165af160009181611301575b506112c35782611292611203565b80519190826112bc57604051632bfa23e760e11b81526001600160a01b0383166004820152602490fd5b9050602001fd5b6001600160e01b031916036112de5750388080808080611240565b604051632bfa23e760e11b81526001600160a01b03919091166004820152602490fd5b61132491925060203d60201161132b575b61131c81836103b5565b8101906111a0565b9038611284565b503d611312565b919261060395949160a094600180871b038092168552166020840152604083015260608201528160808201520190610268565b939290949194853b61137957505050505050565b61126b602093604051958694859463f23a6e6160e01b998a87526004870161133256fea26469706673582212206bd024bdc858cb020aba4ecbc882061ab49ca718f64cdc83d1fd94e333839d8564736f6c63430008180033c3d58168c5ae7397731d063d5bbf3d657854427343f4c083240f7aacaa2d0f62",
  "linkReferences": {},
  "deployedLinkReferences": {}
}