{"contracts/NFT.sol":{"CustomNFT":{"abi":[{"inputs":[{"internalType":"string","name":"_uri","type":"string"}],"stateMutability":"nonpayable","type":"constructor"},{"inputs":[{"internalType":"address","name":"sender","type":"address"},{"internalType":"uint256","name":"balance","type":"uint256"},{"internalType":"uint256","name":"needed","type":"uint256"},{"internalType":"uint256","name":"tokenId","type":"uint256"}],"name":"ERC1155InsufficientBalance","type":"error"},{"inputs":[{"internalType":"address","name":"approver","type":"address"}],"name":"ERC1155InvalidApprover","type":"error"},{"inputs":[{"internalType":"uint256","name":"idsLength","type":"uint256"},{"internalType":"uint256","name":"valuesLength","type":"uint256"}],"name":"ERC1155InvalidArrayLength","type":"error"},{"inputs":[{"internalType":"address","name":"operator","type":"address"}],"name":"ERC1155InvalidOperator","type":"error"},{"inputs":[{"internalType":"address","name":"receiver","type":"address"}],"name":"ERC1155InvalidReceiver","type":"error"},{"inputs":[{"internalType":"address","name":"sender","type":"address"}],"name":"ERC1155InvalidSender","type":"error"},{"inputs":[{"internalType":"address","name":"operator","type":"address"},{"internalType":"address","name":"owner","type":"address"}],"name":"ERC1155MissingApprovalForAll","type":"error"},{"inputs":[{"internalType":"address","name":"owner","type":"address"}],"name":"OwnableInvalidOwner","type":"error"},{"inputs":[{"internalType":"address","name":"account","type":"address"}],"name":"OwnableUnauthorizedAccount","type":"error"},{"anonymous":false,"inputs":[{"indexed":true,"internalType":"address","name":"account","type":"address"},{"indexed":true,"internalType":"address","name":"operator","type":"address"},{"indexed":false,"internalType":"bool","name":"approved","type":"bool"}],"name":"ApprovalForAll","type":"event"},{"anonymous":false,"inputs":[{"indexed":true,"internalType":"address","name":"previousOwner","type":"address"},{"indexed":true,"internalType":"address","name":"newOwner","type":"address"}],"name":"OwnershipTransferred","type":"event"},{"anonymous":false,"inputs":[{"indexed":true,"internalType":"address","name":"operator","type":"address"},{"indexed":true,"internalType":"address","name":"from","type":"address"},{"indexed":true,"internalType":"address","name":"to","type":"address"},{"indexed":false,"internalType":"uint256[]","name":"ids","type":"uint256[]"},{"indexed":false,"internalType":"uint256[]","name":"values","type":"uint256[]"}],"name":"TransferBatch","type":"event"},{"anonymous":false,"inputs":[{"indexed":true,"internalType":"address","name":"operator","type":"address"},{"indexed":true,"internalType":"address","name":"from","type":"address"},{"indexed":true,"internalType":"address","name":"to","type":"address"},{"indexed":false,"internalType":"uint256","name":"id","type":"uint256"},{"indexed":false,"internalType":"uint256","name":"value","type":"uint256"}],"name":"TransferSingle","type":"event"},{"anonymous":false,"inputs":[{"indexed":false,"internalType":"string","name":"value","type":"string"},{"indexed":true,"internalType":"uint256","name":"id","type":"uint256"}],"name":"URI","type":"event"},{"inputs":[],"name":"Bronze","outputs":[{"internalType":"uint256","name":"","type":"uint256"}],"stateMutability":"view","type":"function"},{"inputs":[],"name":"Gold","outputs":[{"internalType":"uint256","name":"","type":"uint256"}],"stateMutability":"view","type":"function"},{"inputs":[],"name":"Silver","outputs":[{"internalType":"uint256","name":"","type":"uint256"}],"stateMutability":"view","type":"function"},{"inputs":[{"internalType":"address","name":"account","type":"address"},{"internalType":"uint256","name":"id","type":"uint256"}],"name":"balanceOf","outputs":[{"internalType":"uint256","name":"","type":"uint256"}],"stateMutability":"view","type":"function"},{"inputs":[{"internalType":"address[]","name":"accounts","type":"address[]"},{"internalType":"uint256[]","name":"ids","type":"uint256[]"}],"name":"balanceOfBatch","outputs":[{"internalType":"uint256[]","name":"","type":"uint256[]"}],"stateMutability":"view","type":"function"},{"inputs":[{"internalType":"uint256[]","name":"_type","type":"uint256[]"},{"internalType":"uint256[]","name":"_number","type":"uint256[]"}],"name":"buyWithUSDC","outputs":[],"stateMutability":"nonpayable","type":"function"},{"inputs":[{"internalType":"address","name":"account","type":"address"},{"internalType":"address","name":"operator","type":"address"}],"name":"isApprovedForAll","outputs":[{"internalType":"bool","name":"","type":"bool"}],"stateMutability":"view","type":"function"},{"inputs":[],"name":"owner","outputs":[{"internalType":"address","name":"","type":"address"}],"stateMutability":"view","type":"function"},{"inputs":[],"name":"price","outputs":[{"internalType":"uint256","name":"","type":"uint256"}],"stateMutability":"view","type":"function"},{"inputs":[],"name":"renounceOwnership","outputs":[],"stateMutability":"nonpayable","type":"function"},{"inputs":[{"internalType":"address","name":"from","type":"address"},{"internalType":"address","name":"to","type":"address"},{"internalType":"uint256[]","name":"ids","type":"uint256[]"},{"internalType":"uint256[]","name":"values","type":"uint256[]"},{"internalType":"bytes","name":"data","type":"bytes"}],"name":"safeBatchTransferFrom","outputs":[],"stateMutability":"nonpayable","type":"function"},{"inputs":[{"internalType":"address","name":"from","type":"address"},{"internalType":"address","name":"to","type":"address"},{"internalType":"uint256","name":"id","type":"uint256"},{"internalType":"uint256","name":"value","type":"uint256"},{"internalType":"bytes","name":"data","type":"bytes"}],"name":"safeTransferFrom","outputs":[],"stateMutability":"nonpayable","type":"function"},{"inputs":[{"internalType":"address","name":"operator","type":"address"},{"internalType":"bool","name":"approved","type":"bool"}],"name":"setApprovalForAll","outputs":[],"stateMutability":"nonpayable","type":"function"},{"inputs":[{"internalType":"uint256","name":"_newPrice","type":"uint256"}],"name":"setPrice","outputs":[],"stateMutability":"nonpayable","type":"function"},{"inputs":[{"internalType":"address","name":"_USDCaddress","type":"address"}],"name":"setUSDC","outputs":[],"stateMutability":"nonpayable","type":"function"},{"inputs":[{"internalType":"bytes4","name":"interfaceId","type":"bytes4"}],"name":"supportsInterface","outputs":[{"internalType":"bool","name":"","type":"bool"}],"stateMutability":"view","type":"function"},{"inputs":[{"internalType":"address","name":"newOwner","type":"address"}],"name":"transferOwnership","outputs":[],"stateMutability":"nonpayable","type":"function"},{"inputs":[{"internalType":"uint256","name":"","type":"uint256"}],"name":"uri","outputs":[{"internalType":"string","name":"","type":"string"}],"stateMutability":"view","type":"function"}],"evm":{"bytecode":{"linkReferences":{},"object":"608060405234620000ab5762001a6880380380916200001e82620000c6565b6080396020816080019112620000ab57608051906001600160401b038211620000ab5780609f83011215620000ab578160800151916200005e8362000117565b916200006e6040519384620000f3565b83835260a08483010111620000ab576200009b92620000959160a060208501910162000133565b6200017c565b6040516111ee90816200087a8239f35b600080fd5b634e487b7160e01b600052604160045260246000fd5b6080601f91909101601f19168101906001600160401b03821190821017620000ed57604052565b620000b0565b601f909101601f19168101906001600160401b03821190821017620000ed57604052565b6001600160401b038111620000ed57601f01601f191660200190565b60005b838110620001475750506000910152565b818101518382015260200162000136565b60405190602082016001600160401b03811183821017620000ed5760405260008252565b80519091906001600160401b038111620000ed57620001a881620001a260025462000514565b62000551565b602080601f83116001146200028057508190620001de939460009262000274575b50508160011b916000199060031b1c19161790565b6002555b33156200025b57620001f433620004cb565b600580546001600160a01b03191673036cbd53842c5426634e7929541ec2318f3dcf7e1790556200022f6200022862000158565b336200030c565b6200023d6200022862000158565b6200024b6200022862000158565b62000259633b9aca00600455565b565b604051631e4fbdf760e01b815260006004820152602490fd5b015190503880620001c9565b6002600052601f198316949091907f405787fa12a823e0f2b7631cc41b3ba8828b3321ca811111fa75cd3aa3bb5ace926000905b878210620002f3575050836001959610620002d9575b505050811b01600255620001e2565b015160001960f88460031b161c19169055388080620002ca565b80600185968294968601518155019501930190620002b4565b6001600160a01b03811691908215620004b25760405160019384825260209160208101956000875260408201928184526060946060840195606487526080850180604052855187518082036200049657505050908391826000905b6200042e575b505050835114600014620003ef57600088517fc3d58168c5ae7397731d063d5bbf3d657854427343f4c083240f7aacaa2d0f62620003c1885160405191829133958360209093929193604081019481520152565b0390a45b815103620003df5750506200025993519051913362000841565b9150916200025994503362000701565b60006040517f4a39dc06d4c0dbc64b70af90fd698a233a518aa5d07e595d983b8c0526c8f7fb3391806200042589898362000606565b0390a4620003c5565b8651811015620004905780849160051b8801620004866200047d8d620004668789860151950151946000526000602052604060002090565b9060018060a01b0316600052602052604060002090565b918254620005ac565b9055018362000367565b6200036d565b635b05999160e01b8352608488019190915260a4870152604490fd5b604051632bfa23e760e11b815260006004820152602490fd5b600380546001600160a01b039283166001600160a01b0319821681179092559091167f8be0079c531659141344cd1fd0a4f28419497f9722a3daafe3b4186f6b6457e0600080a3565b90600182811c9216801562000546575b60208310146200053057565b634e487b7160e01b600052602260045260246000fd5b91607f169162000524565b601f81116200055e575050565b60009060026000526020600020906020601f850160051c83019410620005a1575b601f0160051c01915b8281106200059557505050565b81815560010162000588565b90925082906200057f565b91908201809211620005ba57565b634e487b7160e01b600052601160045260246000fd5b90815180825260208080930193019160005b828110620005f1575050505090565b835185529381019392810192600101620005e2565b9091620006206200062f93604084526040840190620005d0565b916020818403910152620005d0565b90565b90816020910312620000ab57516001600160e01b031981168103620000ab5790565b906020916200066f8151809281855285808601910162000133565b601f01601f1916010190565b92620006ae6200062f9593620006bd9360018060a01b031686526000602087015260a0604087015260a0860190620005d0565b908482036060860152620005d0565b91608081840391015262000654565b3d15620006fc573d90620006e08262000117565b91620006f06040519384620000f3565b82523d6000602084013e565b606090565b9293919093843b62000715575b5050505050565b6020916200073a604051948593849363bc197c8160e01b98898652600486016200067b565b038160006001600160a01b0388165af160009181620007d6575b5062000797578262000765620006cc565b80519190826200079057604051632bfa23e760e11b81526001600160a01b0383166004820152602490fd5b9050602001fd5b6001600160e01b03191603620007b3575038808080806200070e565b604051632bfa23e760e11b81526001600160a01b03919091166004820152602490fd5b620007fe91925060203d60201162000806575b620007f58183620000f3565b81019062000632565b903862000754565b503d620007e9565b909260a0926200062f9594600180861b031683526000602084015260408301526060820152816080820152019062000654565b9293919093843b62000854575050505050565b6020916200073a604051948593849363f23a6e6160e01b98898652600486016200080e56fe6080604052600436101561001257600080fd5b60003560e01c8062fdd58e1461012c57806301ffc9a7146101275780630e89341c1461012257806310ca7d1c146100e157806323a418b01461011d5780632eb2c2d6146101185780634e1273f414610113578063715018a61461010e5780638da5cb5b1461010957806391b7f5ed14610104578063a035b1fe146100ff578063a22cb465146100fa578063b3e089a2146100f5578063c8449b65146100e1578063e985e9c5146100f0578063f242432a146100eb578063f2fde38b146100e65763fe275280146100e157600080fd5b6103a0565b610b3d565b610a28565b6109cb565b610988565b6108ca565b6108a2565b610881565b610858565b6107f7565b61073d565b610615565b61046f565b610297565b6101d5565b610176565b600435906001600160a01b038216820361014757565b600080fd5b602435906001600160a01b038216820361014757565b35906001600160a01b038216820361014757565b346101475760403660031901126101475760206101ba610194610131565b6024356000526000835260406000209060018060a01b0316600052602052604060002090565b54604051908152f35b6001600160e01b031981160361014757565b346101475760203660031901126101475760206004356101f4816101c3565b63ffffffff60e01b16636cdb3d1360e11b8114908115610232575b8115610221575b506040519015158152f35b6301ffc9a760e01b14905038610216565b6303a24d0760e21b8114915061020f565b919082519283825260005b84811061026f575050826000602080949584010152601f8019910116010190565b60208183018101518483018201520161024e565b906020610294928181520190610243565b90565b346101475760208060031936011261014757604051906000906002546001918160011c9260018316928315610396575b6020851084146103825784875260208701939081156103635750600114610309575b610305866102f9818803826103d2565b60405191829182610283565b0390f35b6002600090815294509192917f405787fa12a823e0f2b7631cc41b3ba8828b3321ca811111fa75cd3aa3bb5ace5b83861061035257505050910190506102f982610305386102e9565b805485870152948201948101610337565b60ff1916845250505090151560051b0190506102f982610305386102e9565b634e487b7160e01b86526022600452602486fd5b93607f16936102c7565b3461014757600036600319011261014757602060405160008152f35b634e487b7160e01b600052604160045260246000fd5b90601f801991011681019081106001600160401b038211176103f357604052565b6103bc565b6001600160401b0381116103f35760051b60200190565b9080601f83011215610147576020908235610429816103f8565b9361043760405195866103d2565b81855260208086019260051b82010192831161014757602001905b828210610460575050505090565b81358152908301908301610452565b34610147576040366003190112610147576001600160401b03600435818111610147576104a090369060040161040f565b90602435908111610147576104b990369060040161040f565b60009190825b81518410156104e7576104df6001916104d88685610bc5565b5190610c05565b9301926104bf565b60055461055394506020906001600160a01b03166003546004546001600160a01b0394918516929161051891610c17565b6040516323b872dd60e01b81523360048201526001600160a01b03909316602484015260448301529095869190829060009082906064820190565b03925af19384156105ae5761057d9461057f575b506003541691610575610c4b565b923390610d2d565b005b6105a09060203d6020116105a7575b61059881836103d2565b810190610c2a565b5038610567565b503d61058e565b610c3f565b6001600160401b0381116103f357601f01601f191660200190565b81601f82011215610147578035906105e5826105b3565b926105f360405194856103d2565b8284526020838301011161014757816000926020809301838601378301015290565b346101475760a03660031901126101475761062e610131565b61063661014c565b6001600160401b036044358181116101475761065690369060040161040f565b6064358281116101475761066e90369060040161040f565b91608435908111610147576106879036906004016105ce565b926001600160a01b0385163381141590816106d2575b506106ab5761057d94610d2d565b60405163711bec9160e11b81523360048201526001600160a01b0386166024820152604490fd5b6000908152600160209081526040808320338452909152902060ff91505416153861069d565b90815180825260208080930193019160005b828110610718575050505090565b83518552938101939281019260010161070a565b9060206102949281815201906106f8565b34610147576040366003190112610147576004356001600160401b038082116101475736602383011215610147578160040135610779816103f8565b9261078760405194856103d2565b8184526020916024602086019160051b8301019136831161014757602401905b8282106107e0578560243586811161014757610305916107ce6107d492369060040161040f565b90610c6e565b6040519182918261072c565b8380916107ec84610162565b8152019101906107a7565b346101475760008060031936011261085557610811610d53565b600380546001600160a01b0319811690915581906001600160a01b03167f8be0079c531659141344cd1fd0a4f28419497f9722a3daafe3b4186f6b6457e08280a380f35b80fd5b34610147576000366003190112610147576003546040516001600160a01b039091168152602090f35b346101475760203660031901126101475761089a610d53565b600480359055005b34610147576000366003190112610147576020600454604051908152f35b8015150361014757565b34610147576040366003190112610147576108e3610131565b6024356108ef816108c0565b6001600160a01b038216918215610970573360009081526001602090815260408083206001600160a01b0390941683529290522060ff1981541660ff831515161790557f17307eab39ab6107e8899845ad3d59bd9653f200f220920489ca2b5937696c316040518061096b339482919091602081019215159052565b0390a3005b60405162ced3e160e81b815260006004820152602490fd5b34610147576020366003190112610147576109a1610131565b6109a9610d53565b600580546001600160a01b0319166001600160a01b0392909216919091179055005b3461014757604036600319011261014757602060ff610a1c6109eb610131565b6109f361014c565b6001600160a01b0391821660009081526001865260408082209290931681526020919091522090565b54166040519015158152f35b346101475760a036600319011261014757610a41610131565b610a4961014c565b906084356001600160401b03811161014757610a699036906004016105ce565b906001600160a01b03808216903382141580610b19575b610af257841615610ad95715610ac15761057d9260405190600182526044356020830152604082019260018452606435606084015260808301604052610d7f565b604051626a0d4560e21b815260006004820152602490fd5b604051632bfa23e760e11b815260006004820152602490fd5b60405163711bec9160e11b81523360048201526001600160a01b0384166024820152604490fd5b50600082815260016020908152604080832033845290915290205460ff1615610a80565b3461014757602036600319011261014757610b56610131565b610b5e610d53565b6001600160a01b03908116908115610bac57600380546001600160a01b031981168417909155167f8be0079c531659141344cd1fd0a4f28419497f9722a3daafe3b4186f6b6457e0600080a3005b604051631e4fbdf760e01b815260006004820152602490fd5b8051821015610bd95760209160051b010190565b634e487b7160e01b600052603260045260246000fd5b634e487b7160e01b600052601160045260246000fd5b91908201809211610c1257565b610bef565b81810292918115918404141715610c1257565b908160209103126101475751610294816108c0565b6040513d6000823e3d90fd5b60405190602082018281106001600160401b038211176103f35760405260008252565b91909180518351808203610d0b575050805190610ca3610c8d836103f8565b92610c9b60405194856103d2565b8084526103f8565b60209190601f1901368484013760005b8151811015610d0357600581901b8281018401519087018401516000908152602081815260408083206001600160a01b039094168352929052205460019190610cfc8287610bc5565b5201610cb3565b509193505050565b604051635b05999160e01b815260048101919091526024810191909152604490fd5b939291906001600160a01b0380821615610ad957851615610ac157610d5194610d7f565b565b6003546001600160a01b03163303610d6757565b60405163118cdaa760e01b8152336004820152602490fd5b949190918151845190818103610d0b57505060005b8251811015610ea157600581901b83810160209081015191870101516001600160a01b03929186908a8516610e1b575b6001948216610dd7575b50505001610d94565b610e1191610df2610e09926000526000602052604060002090565b9060018060a01b0316600052602052604060002090565b918254610c05565b9055388581610dce565b9192939050610e388a610df2846000526000602052604060002090565b54838110610e6a5791879184600196959403610e628d610df2856000526000602052604060002090565b559450610dc4565b6040516303dee4c560e01b81526001600160a01b038c16600482015260248101919091526044810184905260648101839052608490fd5b509491939290936001855114600014610f4c576020858101518382015160408051928352928201526001600160a01b03838116929086169133917fc3d58168c5ae7397731d063d5bbf3d657854427343f4c083240f7aacaa2d0f6291a45b6001600160a01b038116610f15575b5050505050565b8451600103610f3b57602080610f319601519201519233611181565b3880808080610f0e565b610f479491923361104f565b610f31565b6040516001600160a01b03828116919085169033907f4a39dc06d4c0dbc64b70af90fd698a233a518aa5d07e595d983b8c0526c8f7fb9080610f8f888c83610f97565b0390a4610eff565b9091610fae610294936040845260408401906106f8565b9160208184039101526106f8565b908160209103126101475751610294816101c3565b93906102949593611003916110119460018060a01b03809216885216602087015260a0604087015260a08601906106f8565b9084820360608601526106f8565b916080818403910152610243565b3d1561104a573d90611030826105b3565b9161103e60405193846103d2565b82523d6000602084013e565b606090565b939290949194853b611064575b505050505050565b611087602093604051958694859463bc197c8160e01b998a875260048701610fd1565b038160006001600160a01b0388165af16000918161111d575b506110df57826110ae61101f565b80519190826110d857604051632bfa23e760e11b81526001600160a01b0383166004820152602490fd5b9050602001fd5b6001600160e01b031916036110fa575038808080808061105c565b604051632bfa23e760e11b81526001600160a01b03919091166004820152602490fd5b61114091925060203d602011611147575b61113881836103d2565b810190610fbc565b90386110a0565b503d61112e565b919261029495949160a094600180871b038092168552166020840152604083015260608201528160808201520190610243565b939290949194853b61119557505050505050565b611087602093604051958694859463f23a6e6160e01b998a87526004870161114e56fea2646970667358221220f34d9e97894021560a511b9b2fb80a4c966e537f606f7d0541315256cfc3b37264736f6c63430008180033","opcodes":"PUSH1 0x80 PUSH1 0x40 MSTORE CALLVALUE PUSH3 0xAB JUMPI PUSH3 0x1A68 DUP1 CODESIZE SUB DUP1 SWAP2 PUSH3 0x1E DUP3 PUSH3 0xC6 JUMP JUMPDEST PUSH1 0x80 CODECOPY PUSH1 0x20 DUP2 PUSH1 0x80 ADD SWAP2 SLT PUSH3 0xAB JUMPI PUSH1 0x80 MLOAD SWAP1 PUSH1 0x1 PUSH1 0x1 PUSH1 0x40 SHL SUB DUP3 GT PUSH3 0xAB JUMPI DUP1 PUSH1 0x9F DUP4 ADD SLT ISZERO PUSH3 0xAB JUMPI DUP2 PUSH1 0x80 ADD MLOAD SWAP2 PUSH3 0x5E DUP4 PUSH3 0x117 JUMP JUMPDEST SWAP2 PUSH3 0x6E PUSH1 0x40 MLOAD SWAP4 DUP5 PUSH3 0xF3 JUMP JUMPDEST DUP4 DUP4 MSTORE PUSH1 0xA0 DUP5 DUP4 ADD ADD GT PUSH3 0xAB JUMPI PUSH3 0x9B SWAP3 PUSH3 0x95 SWAP2 PUSH1 0xA0 PUSH1 0x20 DUP6 ADD SWAP2 ADD PUSH3 0x133 JUMP JUMPDEST PUSH3 0x17C JUMP JUMPDEST PUSH1 0x40 MLOAD PUSH2 0x11EE SWAP1 DUP2 PUSH3 0x87A DUP3 CODECOPY RETURN JUMPDEST PUSH1 0x0 DUP1 REVERT JUMPDEST PUSH4 0x4E487B71 PUSH1 0xE0 SHL PUSH1 0x0 MSTORE PUSH1 0x41 PUSH1 0x4 MSTORE PUSH1 0x24 PUSH1 0x0 REVERT JUMPDEST PUSH1 0x80 PUSH1 0x1F SWAP2 SWAP1 SWAP2 ADD PUSH1 0x1F NOT AND DUP2 ADD SWAP1 PUSH1 0x1 PUSH1 0x1 PUSH1 0x40 SHL SUB DUP3 GT SWAP1 DUP3 LT OR PUSH3 0xED JUMPI PUSH1 0x40 MSTORE JUMP JUMPDEST PUSH3 0xB0 JUMP JUMPDEST PUSH1 0x1F SWAP1 SWAP2 ADD PUSH1 0x1F NOT AND DUP2 ADD SWAP1 PUSH1 0x1 PUSH1 0x1 PUSH1 0x40 SHL SUB DUP3 GT SWAP1 DUP3 LT OR PUSH3 0xED JUMPI PUSH1 0x40 MSTORE JUMP JUMPDEST PUSH1 0x1 PUSH1 0x1 PUSH1 0x40 SHL SUB DUP2 GT PUSH3 0xED JUMPI PUSH1 0x1F ADD PUSH1 0x1F NOT AND PUSH1 0x20 ADD SWAP1 JUMP JUMPDEST PUSH1 0x0 JUMPDEST DUP4 DUP2 LT PUSH3 0x147 JUMPI POP POP PUSH1 0x0 SWAP2 ADD MSTORE JUMP JUMPDEST DUP2 DUP2 ADD MLOAD DUP4 DUP3 ADD MSTORE PUSH1 0x20 ADD PUSH3 0x136 JUMP JUMPDEST PUSH1 0x40 MLOAD SWAP1 PUSH1 0x20 DUP3 ADD PUSH1 0x1 PUSH1 0x1 PUSH1 0x40 SHL SUB DUP2 GT DUP4 DUP3 LT OR PUSH3 0xED JUMPI PUSH1 0x40 MSTORE PUSH1 0x0 DUP3 MSTORE JUMP JUMPDEST DUP1 MLOAD SWAP1 SWAP2 SWAP1 PUSH1 0x1 PUSH1 0x1 PUSH1 0x40 SHL SUB DUP2 GT PUSH3 0xED JUMPI PUSH3 0x1A8 DUP2 PUSH3 0x1A2 PUSH1 0x2 SLOAD PUSH3 0x514 JUMP JUMPDEST PUSH3 0x551 JUMP JUMPDEST PUSH1 0x20 DUP1 PUSH1 0x1F DUP4 GT PUSH1 0x1 EQ PUSH3 0x280 JUMPI POP DUP2 SWAP1 PUSH3 0x1DE SWAP4 SWAP5 PUSH1 0x0 SWAP3 PUSH3 0x274 JUMPI JUMPDEST POP POP DUP2 PUSH1 0x1 SHL SWAP2 PUSH1 0x0 NOT SWAP1 PUSH1 0x3 SHL SHR NOT AND OR SWAP1 JUMP JUMPDEST PUSH1 0x2 SSTORE JUMPDEST CALLER ISZERO PUSH3 0x25B JUMPI PUSH3 0x1F4 CALLER PUSH3 0x4CB JUMP JUMPDEST PUSH1 0x5 DUP1 SLOAD PUSH1 0x1 PUSH1 0x1 PUSH1 0xA0 SHL SUB NOT AND PUSH20 0x36CBD53842C5426634E7929541EC2318F3DCF7E OR SWAP1 SSTORE PUSH3 0x22F PUSH3 0x228 PUSH3 0x158 JUMP JUMPDEST CALLER PUSH3 0x30C JUMP JUMPDEST PUSH3 0x23D PUSH3 0x228 PUSH3 0x158 JUMP JUMPDEST PUSH3 0x24B PUSH3 0x228 PUSH3 0x158 JUMP JUMPDEST PUSH3 0x259 PUSH4 0x3B9ACA00 PUSH1 0x4 SSTORE JUMP JUMPDEST JUMP JUMPDEST PUSH1 0x40 MLOAD PUSH4 0x1E4FBDF7 PUSH1 0xE0 SHL DUP2 MSTORE PUSH1 0x0 PUSH1 0x4 DUP3 ADD MSTORE PUSH1 0x24 SWAP1 REVERT JUMPDEST ADD MLOAD SWAP1 POP CODESIZE DUP1 PUSH3 0x1C9 JUMP JUMPDEST PUSH1 0x2 PUSH1 0x0 MSTORE PUSH1 0x1F NOT DUP4 AND SWAP5 SWAP1 SWAP2 SWAP1 PUSH32 0x405787FA12A823E0F2B7631CC41B3BA8828B3321CA811111FA75CD3AA3BB5ACE SWAP3 PUSH1 0x0 SWAP1 JUMPDEST DUP8 DUP3 LT PUSH3 0x2F3 JUMPI POP POP DUP4 PUSH1 0x1 SWAP6 SWAP7 LT PUSH3 0x2D9 JUMPI JUMPDEST POP POP POP DUP2 SHL ADD PUSH1 0x2 SSTORE PUSH3 0x1E2 JUMP JUMPDEST ADD MLOAD PUSH1 0x0 NOT PUSH1 0xF8 DUP5 PUSH1 0x3 SHL AND SHR NOT AND SWAP1 SSTORE CODESIZE DUP1 DUP1 PUSH3 0x2CA JUMP JUMPDEST DUP1 PUSH1 0x1 DUP6 SWAP7 DUP3 SWAP5 SWAP7 DUP7 ADD MLOAD DUP2 SSTORE ADD SWAP6 ADD SWAP4 ADD SWAP1 PUSH3 0x2B4 JUMP JUMPDEST PUSH1 0x1 PUSH1 0x1 PUSH1 0xA0 SHL SUB DUP2 AND SWAP2 SWAP1 DUP3 ISZERO PUSH3 0x4B2 JUMPI PUSH1 0x40 MLOAD PUSH1 0x1 SWAP4 DUP5 DUP3 MSTORE PUSH1 0x20 SWAP2 PUSH1 0x20 DUP2 ADD SWAP6 PUSH1 0x0 DUP8 MSTORE PUSH1 0x40 DUP3 ADD SWAP3 DUP2 DUP5 MSTORE PUSH1 0x60 SWAP5 PUSH1 0x60 DUP5 ADD SWAP6 PUSH1 0x64 DUP8 MSTORE PUSH1 0x80 DUP6 ADD DUP1 PUSH1 0x40 MSTORE DUP6 MLOAD DUP8 MLOAD DUP1 DUP3 SUB PUSH3 0x496 JUMPI POP POP POP SWAP1 DUP4 SWAP2 DUP3 PUSH1 0x0 SWAP1 JUMPDEST PUSH3 0x42E JUMPI JUMPDEST POP POP POP DUP4 MLOAD EQ PUSH1 0x0 EQ PUSH3 0x3EF JUMPI PUSH1 0x0 DUP9 MLOAD PUSH32 0xC3D58168C5AE7397731D063D5BBF3D657854427343F4C083240F7AACAA2D0F62 PUSH3 0x3C1 DUP9 MLOAD PUSH1 0x40 MLOAD SWAP2 DUP3 SWAP2 CALLER SWAP6 DUP4 PUSH1 0x20 SWAP1 SWAP4 SWAP3 SWAP2 SWAP4 PUSH1 0x40 DUP2 ADD SWAP5 DUP2 MSTORE ADD MSTORE JUMP JUMPDEST SUB SWAP1 LOG4 JUMPDEST DUP2 MLOAD SUB PUSH3 0x3DF JUMPI POP POP PUSH3 0x259 SWAP4 MLOAD SWAP1 MLOAD SWAP2 CALLER PUSH3 0x841 JUMP JUMPDEST SWAP2 POP SWAP2 PUSH3 0x259 SWAP5 POP CALLER PUSH3 0x701 JUMP JUMPDEST PUSH1 0x0 PUSH1 0x40 MLOAD PUSH32 0x4A39DC06D4C0DBC64B70AF90FD698A233A518AA5D07E595D983B8C0526C8F7FB CALLER SWAP2 DUP1 PUSH3 0x425 DUP10 DUP10 DUP4 PUSH3 0x606 JUMP JUMPDEST SUB SWAP1 LOG4 PUSH3 0x3C5 JUMP JUMPDEST DUP7 MLOAD DUP2 LT ISZERO PUSH3 0x490 JUMPI DUP1 DUP5 SWAP2 PUSH1 0x5 SHL DUP9 ADD PUSH3 0x486 PUSH3 0x47D DUP14 PUSH3 0x466 DUP8 DUP10 DUP7 ADD MLOAD SWAP6 ADD MLOAD SWAP5 PUSH1 0x0 MSTORE PUSH1 0x0 PUSH1 0x20 MSTORE PUSH1 0x40 PUSH1 0x0 KECCAK256 SWAP1 JUMP JUMPDEST SWAP1 PUSH1 0x1 DUP1 PUSH1 0xA0 SHL SUB AND PUSH1 0x0 MSTORE PUSH1 0x20 MSTORE PUSH1 0x40 PUSH1 0x0 KECCAK256 SWAP1 JUMP JUMPDEST SWAP2 DUP3 SLOAD PUSH3 0x5AC JUMP JUMPDEST SWAP1 SSTORE ADD DUP4 PUSH3 0x367 JUMP JUMPDEST PUSH3 0x36D JUMP JUMPDEST PUSH4 0x5B059991 PUSH1 0xE0 SHL DUP4 MSTORE PUSH1 0x84 DUP9 ADD SWAP2 SWAP1 SWAP2 MSTORE PUSH1 0xA4 DUP8 ADD MSTORE PUSH1 0x44 SWAP1 REVERT JUMPDEST PUSH1 0x40 MLOAD PUSH4 0x2BFA23E7 PUSH1 0xE1 SHL DUP2 MSTORE PUSH1 0x0 PUSH1 0x4 DUP3 ADD MSTORE PUSH1 0x24 SWAP1 REVERT JUMPDEST PUSH1 0x3 DUP1 SLOAD PUSH1 0x1 PUSH1 0x1 PUSH1 0xA0 SHL SUB SWAP3 DUP4 AND PUSH1 0x1 PUSH1 0x1 PUSH1 0xA0 SHL SUB NOT DUP3 AND DUP2 OR SWAP1 SWAP3 SSTORE SWAP1 SWAP2 AND PUSH32 0x8BE0079C531659141344CD1FD0A4F28419497F9722A3DAAFE3B4186F6B6457E0 PUSH1 0x0 DUP1 LOG3 JUMP JUMPDEST SWAP1 PUSH1 0x1 DUP3 DUP2 SHR SWAP3 AND DUP1 ISZERO PUSH3 0x546 JUMPI JUMPDEST PUSH1 0x20 DUP4 LT EQ PUSH3 0x530 JUMPI JUMP JUMPDEST PUSH4 0x4E487B71 PUSH1 0xE0 SHL PUSH1 0x0 MSTORE PUSH1 0x22 PUSH1 0x4 MSTORE PUSH1 0x24 PUSH1 0x0 REVERT JUMPDEST SWAP2 PUSH1 0x7F AND SWAP2 PUSH3 0x524 JUMP JUMPDEST PUSH1 0x1F DUP2 GT PUSH3 0x55E JUMPI POP POP JUMP JUMPDEST PUSH1 0x0 SWAP1 PUSH1 0x2 PUSH1 0x0 MSTORE PUSH1 0x20 PUSH1 0x0 KECCAK256 SWAP1 PUSH1 0x20 PUSH1 0x1F DUP6 ADD PUSH1 0x5 SHR DUP4 ADD SWAP5 LT PUSH3 0x5A1 JUMPI JUMPDEST PUSH1 0x1F ADD PUSH1 0x5 SHR ADD SWAP2 JUMPDEST DUP3 DUP2 LT PUSH3 0x595 JUMPI POP POP POP JUMP JUMPDEST DUP2 DUP2 SSTORE PUSH1 0x1 ADD PUSH3 0x588 JUMP JUMPDEST SWAP1 SWAP3 POP DUP3 SWAP1 PUSH3 0x57F JUMP JUMPDEST SWAP2 SWAP1 DUP3 ADD DUP1 SWAP3 GT PUSH3 0x5BA JUMPI JUMP JUMPDEST PUSH4 0x4E487B71 PUSH1 0xE0 SHL PUSH1 0x0 MSTORE PUSH1 0x11 PUSH1 0x4 MSTORE PUSH1 0x24 PUSH1 0x0 REVERT JUMPDEST SWAP1 DUP2 MLOAD DUP1 DUP3 MSTORE PUSH1 0x20 DUP1 DUP1 SWAP4 ADD SWAP4 ADD SWAP2 PUSH1 0x0 JUMPDEST DUP3 DUP2 LT PUSH3 0x5F1 JUMPI POP POP POP POP SWAP1 JUMP JUMPDEST DUP4 MLOAD DUP6 MSTORE SWAP4 DUP2 ADD SWAP4 SWAP3 DUP2 ADD SWAP3 PUSH1 0x1 ADD PUSH3 0x5E2 JUMP JUMPDEST SWAP1 SWAP2 PUSH3 0x620 PUSH3 0x62F SWAP4 PUSH1 0x40 DUP5 MSTORE PUSH1 0x40 DUP5 ADD SWAP1 PUSH3 0x5D0 JUMP JUMPDEST SWAP2 PUSH1 0x20 DUP2 DUP5 SUB SWAP2 ADD MSTORE PUSH3 0x5D0 JUMP JUMPDEST SWAP1 JUMP JUMPDEST SWAP1 DUP2 PUSH1 0x20 SWAP2 SUB SLT PUSH3 0xAB JUMPI MLOAD PUSH1 0x1 PUSH1 0x1 PUSH1 0xE0 SHL SUB NOT DUP2 AND DUP2 SUB PUSH3 0xAB JUMPI SWAP1 JUMP JUMPDEST SWAP1 PUSH1 0x20 SWAP2 PUSH3 0x66F DUP2 MLOAD DUP1 SWAP3 DUP2 DUP6 MSTORE DUP6 DUP1 DUP7 ADD SWAP2 ADD PUSH3 0x133 JUMP JUMPDEST PUSH1 0x1F ADD PUSH1 0x1F NOT AND ADD ADD SWAP1 JUMP JUMPDEST SWAP3 PUSH3 0x6AE PUSH3 0x62F SWAP6 SWAP4 PUSH3 0x6BD SWAP4 PUSH1 0x1 DUP1 PUSH1 0xA0 SHL SUB AND DUP7 MSTORE PUSH1 0x0 PUSH1 0x20 DUP8 ADD MSTORE PUSH1 0xA0 PUSH1 0x40 DUP8 ADD MSTORE PUSH1 0xA0 DUP7 ADD SWAP1 PUSH3 0x5D0 JUMP JUMPDEST SWAP1 DUP5 DUP3 SUB PUSH1 0x60 DUP7 ADD MSTORE PUSH3 0x5D0 JUMP JUMPDEST SWAP2 PUSH1 0x80 DUP2 DUP5 SUB SWAP2 ADD MSTORE PUSH3 0x654 JUMP JUMPDEST RETURNDATASIZE ISZERO PUSH3 0x6FC JUMPI RETURNDATASIZE SWAP1 PUSH3 0x6E0 DUP3 PUSH3 0x117 JUMP JUMPDEST SWAP2 PUSH3 0x6F0 PUSH1 0x40 MLOAD SWAP4 DUP5 PUSH3 0xF3 JUMP JUMPDEST DUP3 MSTORE RETURNDATASIZE PUSH1 0x0 PUSH1 0x20 DUP5 ADD RETURNDATACOPY JUMP JUMPDEST PUSH1 0x60 SWAP1 JUMP JUMPDEST SWAP3 SWAP4 SWAP2 SWAP1 SWAP4 DUP5 EXTCODESIZE PUSH3 0x715 JUMPI JUMPDEST POP POP POP POP POP JUMP JUMPDEST PUSH1 0x20 SWAP2 PUSH3 0x73A PUSH1 0x40 MLOAD SWAP5 DUP6 SWAP4 DUP5 SWAP4 PUSH4 0xBC197C81 PUSH1 0xE0 SHL SWAP9 DUP10 DUP7 MSTORE PUSH1 0x4 DUP7 ADD PUSH3 0x67B JUMP JUMPDEST SUB DUP2 PUSH1 0x0 PUSH1 0x1 PUSH1 0x1 PUSH1 0xA0 SHL SUB DUP9 AND GAS CALL PUSH1 0x0 SWAP2 DUP2 PUSH3 0x7D6 JUMPI JUMPDEST POP PUSH3 0x797 JUMPI DUP3 PUSH3 0x765 PUSH3 0x6CC JUMP JUMPDEST DUP1 MLOAD SWAP2 SWAP1 DUP3 PUSH3 0x790 JUMPI PUSH1 0x40 MLOAD PUSH4 0x2BFA23E7 PUSH1 0xE1 SHL DUP2 MSTORE PUSH1 0x1 PUSH1 0x1 PUSH1 0xA0 SHL SUB DUP4 AND PUSH1 0x4 DUP3 ADD MSTORE PUSH1 0x24 SWAP1 REVERT JUMPDEST SWAP1 POP PUSH1 0x20 ADD REVERT JUMPDEST PUSH1 0x1 PUSH1 0x1 PUSH1 0xE0 SHL SUB NOT AND SUB PUSH3 0x7B3 JUMPI POP CODESIZE DUP1 DUP1 DUP1 DUP1 PUSH3 0x70E JUMP JUMPDEST PUSH1 0x40 MLOAD PUSH4 0x2BFA23E7 PUSH1 0xE1 SHL DUP2 MSTORE PUSH1 0x1 PUSH1 0x1 PUSH1 0xA0 SHL SUB SWAP2 SWAP1 SWAP2 AND PUSH1 0x4 DUP3 ADD MSTORE PUSH1 0x24 SWAP1 REVERT JUMPDEST PUSH3 0x7FE SWAP2 SWAP3 POP PUSH1 0x20 RETURNDATASIZE PUSH1 0x20 GT PUSH3 0x806 JUMPI JUMPDEST PUSH3 0x7F5 DUP2 DUP4 PUSH3 0xF3 JUMP JUMPDEST DUP2 ADD SWAP1 PUSH3 0x632 JUMP JUMPDEST SWAP1 CODESIZE PUSH3 0x754 JUMP JUMPDEST POP RETURNDATASIZE PUSH3 0x7E9 JUMP JUMPDEST SWAP1 SWAP3 PUSH1 0xA0 SWAP3 PUSH3 0x62F SWAP6 SWAP5 PUSH1 0x1 DUP1 DUP7 SHL SUB AND DUP4 MSTORE PUSH1 0x0 PUSH1 0x20 DUP5 ADD MSTORE PUSH1 0x40 DUP4 ADD MSTORE PUSH1 0x60 DUP3 ADD MSTORE DUP2 PUSH1 0x80 DUP3 ADD MSTORE ADD SWAP1 PUSH3 0x654 JUMP JUMPDEST SWAP3 SWAP4 SWAP2 SWAP1 SWAP4 DUP5 EXTCODESIZE PUSH3 0x854 JUMPI POP POP POP POP POP JUMP JUMPDEST PUSH1 0x20 SWAP2 PUSH3 0x73A PUSH1 0x40 MLOAD SWAP5 DUP6 SWAP4 DUP5 SWAP4 PUSH4 0xF23A6E61 PUSH1 0xE0 SHL SWAP9 DUP10 DUP7 MSTORE PUSH1 0x4 DUP7 ADD PUSH3 0x80E JUMP INVALID PUSH1 0x80 PUSH1 0x40 MSTORE PUSH1 0x4 CALLDATASIZE LT ISZERO PUSH2 0x12 JUMPI PUSH1 0x0 DUP1 REVERT JUMPDEST PUSH1 0x0 CALLDATALOAD PUSH1 0xE0 SHR DUP1 PUSH3 0xFDD58E EQ PUSH2 0x12C JUMPI DUP1 PUSH4 0x1FFC9A7 EQ PUSH2 0x127 JUMPI DUP1 PUSH4 0xE89341C EQ PUSH2 0x122 JUMPI DUP1 PUSH4 0x10CA7D1C EQ PUSH2 0xE1 JUMPI DUP1 PUSH4 0x23A418B0 EQ PUSH2 0x11D JUMPI DUP1 PUSH4 0x2EB2C2D6 EQ PUSH2 0x118 JUMPI DUP1 PUSH4 0x4E1273F4 EQ PUSH2 0x113 JUMPI DUP1 PUSH4 0x715018A6 EQ PUSH2 0x10E JUMPI DUP1 PUSH4 0x8DA5CB5B EQ PUSH2 0x109 JUMPI DUP1 PUSH4 0x91B7F5ED EQ PUSH2 0x104 JUMPI DUP1 PUSH4 0xA035B1FE EQ PUSH2 0xFF JUMPI DUP1 PUSH4 0xA22CB465 EQ PUSH2 0xFA JUMPI DUP1 PUSH4 0xB3E089A2 EQ PUSH2 0xF5 JUMPI DUP1 PUSH4 0xC8449B65 EQ PUSH2 0xE1 JUMPI DUP1 PUSH4 0xE985E9C5 EQ PUSH2 0xF0 JUMPI DUP1 PUSH4 0xF242432A EQ PUSH2 0xEB JUMPI DUP1 PUSH4 0xF2FDE38B EQ PUSH2 0xE6 JUMPI PUSH4 0xFE275280 EQ PUSH2 0xE1 JUMPI PUSH1 0x0 DUP1 REVERT JUMPDEST PUSH2 0x3A0 JUMP JUMPDEST PUSH2 0xB3D JUMP JUMPDEST PUSH2 0xA28 JUMP JUMPDEST PUSH2 0x9CB JUMP JUMPDEST PUSH2 0x988 JUMP JUMPDEST PUSH2 0x8CA JUMP JUMPDEST PUSH2 0x8A2 JUMP JUMPDEST PUSH2 0x881 JUMP JUMPDEST PUSH2 0x858 JUMP JUMPDEST PUSH2 0x7F7 JUMP JUMPDEST PUSH2 0x73D JUMP JUMPDEST PUSH2 0x615 JUMP JUMPDEST PUSH2 0x46F JUMP JUMPDEST PUSH2 0x297 JUMP JUMPDEST PUSH2 0x1D5 JUMP JUMPDEST PUSH2 0x176 JUMP JUMPDEST PUSH1 0x4 CALLDATALOAD SWAP1 PUSH1 0x1 PUSH1 0x1 PUSH1 0xA0 SHL SUB DUP3 AND DUP3 SUB PUSH2 0x147 JUMPI JUMP JUMPDEST PUSH1 0x0 DUP1 REVERT JUMPDEST PUSH1 0x24 CALLDATALOAD SWAP1 PUSH1 0x1 PUSH1 0x1 PUSH1 0xA0 SHL SUB DUP3 AND DUP3 SUB PUSH2 0x147 JUMPI JUMP JUMPDEST CALLDATALOAD SWAP1 PUSH1 0x1 PUSH1 0x1 PUSH1 0xA0 SHL SUB DUP3 AND DUP3 SUB PUSH2 0x147 JUMPI JUMP JUMPDEST CALLVALUE PUSH2 0x147 JUMPI PUSH1 0x40 CALLDATASIZE PUSH1 0x3 NOT ADD SLT PUSH2 0x147 JUMPI PUSH1 0x20 PUSH2 0x1BA PUSH2 0x194 PUSH2 0x131 JUMP JUMPDEST PUSH1 0x24 CALLDATALOAD PUSH1 0x0 MSTORE PUSH1 0x0 DUP4 MSTORE PUSH1 0x40 PUSH1 0x0 KECCAK256 SWAP1 PUSH1 0x1 DUP1 PUSH1 0xA0 SHL SUB AND PUSH1 0x0 MSTORE PUSH1 0x20 MSTORE PUSH1 0x40 PUSH1 0x0 KECCAK256 SWAP1 JUMP JUMPDEST SLOAD PUSH1 0x40 MLOAD SWAP1 DUP2 MSTORE RETURN JUMPDEST PUSH1 0x1 PUSH1 0x1 PUSH1 0xE0 SHL SUB NOT DUP2 AND SUB PUSH2 0x147 JUMPI JUMP JUMPDEST CALLVALUE PUSH2 0x147 JUMPI PUSH1 0x20 CALLDATASIZE PUSH1 0x3 NOT ADD SLT PUSH2 0x147 JUMPI PUSH1 0x20 PUSH1 0x4 CALLDATALOAD PUSH2 0x1F4 DUP2 PUSH2 0x1C3 JUMP JUMPDEST PUSH4 0xFFFFFFFF PUSH1 0xE0 SHL AND PUSH4 0x6CDB3D13 PUSH1 0xE1 SHL DUP2 EQ SWAP1 DUP2 ISZERO PUSH2 0x232 JUMPI JUMPDEST DUP2 ISZERO PUSH2 0x221 JUMPI JUMPDEST POP PUSH1 0x40 MLOAD SWAP1 ISZERO ISZERO DUP2 MSTORE RETURN JUMPDEST PUSH4 0x1FFC9A7 PUSH1 0xE0 SHL EQ SWAP1 POP CODESIZE PUSH2 0x216 JUMP JUMPDEST PUSH4 0x3A24D07 PUSH1 0xE2 SHL DUP2 EQ SWAP2 POP PUSH2 0x20F JUMP JUMPDEST SWAP2 SWAP1 DUP3 MLOAD SWAP3 DUP4 DUP3 MSTORE PUSH1 0x0 JUMPDEST DUP5 DUP2 LT PUSH2 0x26F JUMPI POP POP DUP3 PUSH1 0x0 PUSH1 0x20 DUP1 SWAP5 SWAP6 DUP5 ADD ADD MSTORE PUSH1 0x1F DUP1 NOT SWAP2 ADD AND ADD ADD SWAP1 JUMP JUMPDEST PUSH1 0x20 DUP2 DUP4 ADD DUP2 ADD MLOAD DUP5 DUP4 ADD DUP3 ADD MSTORE ADD PUSH2 0x24E JUMP JUMPDEST SWAP1 PUSH1 0x20 PUSH2 0x294 SWAP3 DUP2 DUP2 MSTORE ADD SWAP1 PUSH2 0x243 JUMP JUMPDEST SWAP1 JUMP JUMPDEST CALLVALUE PUSH2 0x147 JUMPI PUSH1 0x20 DUP1 PUSH1 0x3 NOT CALLDATASIZE ADD SLT PUSH2 0x147 JUMPI PUSH1 0x40 MLOAD SWAP1 PUSH1 0x0 SWAP1 PUSH1 0x2 SLOAD PUSH1 0x1 SWAP2 DUP2 PUSH1 0x1 SHR SWAP3 PUSH1 0x1 DUP4 AND SWAP3 DUP4 ISZERO PUSH2 0x396 JUMPI JUMPDEST PUSH1 0x20 DUP6 LT DUP5 EQ PUSH2 0x382 JUMPI DUP5 DUP8 MSTORE PUSH1 0x20 DUP8 ADD SWAP4 SWAP1 DUP2 ISZERO PUSH2 0x363 JUMPI POP PUSH1 0x1 EQ PUSH2 0x309 JUMPI JUMPDEST PUSH2 0x305 DUP7 PUSH2 0x2F9 DUP2 DUP9 SUB DUP3 PUSH2 0x3D2 JUMP JUMPDEST PUSH1 0x40 MLOAD SWAP2 DUP3 SWAP2 DUP3 PUSH2 0x283 JUMP JUMPDEST SUB SWAP1 RETURN JUMPDEST PUSH1 0x2 PUSH1 0x0 SWAP1 DUP2 MSTORE SWAP5 POP SWAP2 SWAP3 SWAP2 PUSH32 0x405787FA12A823E0F2B7631CC41B3BA8828B3321CA811111FA75CD3AA3BB5ACE JUMPDEST DUP4 DUP7 LT PUSH2 0x352 JUMPI POP POP POP SWAP2 ADD SWAP1 POP PUSH2 0x2F9 DUP3 PUSH2 0x305 CODESIZE PUSH2 0x2E9 JUMP JUMPDEST DUP1 SLOAD DUP6 DUP8 ADD MSTORE SWAP5 DUP3 ADD SWAP5 DUP2 ADD PUSH2 0x337 JUMP JUMPDEST PUSH1 0xFF NOT AND DUP5 MSTORE POP POP POP SWAP1 ISZERO ISZERO PUSH1 0x5 SHL ADD SWAP1 POP PUSH2 0x2F9 DUP3 PUSH2 0x305 CODESIZE PUSH2 0x2E9 JUMP JUMPDEST PUSH4 0x4E487B71 PUSH1 0xE0 SHL DUP7 MSTORE PUSH1 0x22 PUSH1 0x4 MSTORE PUSH1 0x24 DUP7 REVERT JUMPDEST SWAP4 PUSH1 0x7F AND SWAP4 PUSH2 0x2C7 JUMP JUMPDEST CALLVALUE PUSH2 0x147 JUMPI PUSH1 0x0 CALLDATASIZE PUSH1 0x3 NOT ADD SLT PUSH2 0x147 JUMPI PUSH1 0x20 PUSH1 0x40 MLOAD PUSH1 0x0 DUP2 MSTORE RETURN JUMPDEST PUSH4 0x4E487B71 PUSH1 0xE0 SHL PUSH1 0x0 MSTORE PUSH1 0x41 PUSH1 0x4 MSTORE PUSH1 0x24 PUSH1 0x0 REVERT JUMPDEST SWAP1 PUSH1 0x1F DUP1 NOT SWAP2 ADD AND DUP2 ADD SWAP1 DUP2 LT PUSH1 0x1 PUSH1 0x1 PUSH1 0x40 SHL SUB DUP3 GT OR PUSH2 0x3F3 JUMPI PUSH1 0x40 MSTORE JUMP JUMPDEST PUSH2 0x3BC JUMP JUMPDEST PUSH1 0x1 PUSH1 0x1 PUSH1 0x40 SHL SUB DUP2 GT PUSH2 0x3F3 JUMPI PUSH1 0x5 SHL PUSH1 0x20 ADD SWAP1 JUMP JUMPDEST SWAP1 DUP1 PUSH1 0x1F DUP4 ADD SLT ISZERO PUSH2 0x147 JUMPI PUSH1 0x20 SWAP1 DUP3 CALLDATALOAD PUSH2 0x429 DUP2 PUSH2 0x3F8 JUMP JUMPDEST SWAP4 PUSH2 0x437 PUSH1 0x40 MLOAD SWAP6 DUP7 PUSH2 0x3D2 JUMP JUMPDEST DUP2 DUP6 MSTORE PUSH1 0x20 DUP1 DUP7 ADD SWAP3 PUSH1 0x5 SHL DUP3 ADD ADD SWAP3 DUP4 GT PUSH2 0x147 JUMPI PUSH1 0x20 ADD SWAP1 JUMPDEST DUP3 DUP3 LT PUSH2 0x460 JUMPI POP POP POP POP SWAP1 JUMP JUMPDEST DUP2 CALLDATALOAD DUP2 MSTORE SWAP1 DUP4 ADD SWAP1 DUP4 ADD PUSH2 0x452 JUMP JUMPDEST CALLVALUE PUSH2 0x147 JUMPI PUSH1 0x40 CALLDATASIZE PUSH1 0x3 NOT ADD SLT PUSH2 0x147 JUMPI PUSH1 0x1 PUSH1 0x1 PUSH1 0x40 SHL SUB PUSH1 0x4 CALLDATALOAD DUP2 DUP2 GT PUSH2 0x147 JUMPI PUSH2 0x4A0 SWAP1 CALLDATASIZE SWAP1 PUSH1 0x4 ADD PUSH2 0x40F JUMP JUMPDEST SWAP1 PUSH1 0x24 CALLDATALOAD SWAP1 DUP2 GT PUSH2 0x147 JUMPI PUSH2 0x4B9 SWAP1 CALLDATASIZE SWAP1 PUSH1 0x4 ADD PUSH2 0x40F JUMP JUMPDEST PUSH1 0x0 SWAP2 SWAP1 DUP3 JUMPDEST DUP2 MLOAD DUP5 LT ISZERO PUSH2 0x4E7 JUMPI PUSH2 0x4DF PUSH1 0x1 SWAP2 PUSH2 0x4D8 DUP7 DUP6 PUSH2 0xBC5 JUMP JUMPDEST MLOAD SWAP1 PUSH2 0xC05 JUMP JUMPDEST SWAP4 ADD SWAP3 PUSH2 0x4BF JUMP JUMPDEST PUSH1 0x5 SLOAD PUSH2 0x553 SWAP5 POP PUSH1 0x20 SWAP1 PUSH1 0x1 PUSH1 0x1 PUSH1 0xA0 SHL SUB AND PUSH1 0x3 SLOAD PUSH1 0x4 SLOAD PUSH1 0x1 PUSH1 0x1 PUSH1 0xA0 SHL SUB SWAP5 SWAP2 DUP6 AND SWAP3 SWAP2 PUSH2 0x518 SWAP2 PUSH2 0xC17 JUMP JUMPDEST PUSH1 0x40 MLOAD PUSH4 0x23B872DD PUSH1 0xE0 SHL DUP2 MSTORE CALLER PUSH1 0x4 DUP3 ADD MSTORE PUSH1 0x1 PUSH1 0x1 PUSH1 0xA0 SHL SUB SWAP1 SWAP4 AND PUSH1 0x24 DUP5 ADD MSTORE PUSH1 0x44 DUP4 ADD MSTORE SWAP1 SWAP6 DUP7 SWAP2 SWAP1 DUP3 SWAP1 PUSH1 0x0 SWAP1 DUP3 SWAP1 PUSH1 0x64 DUP3 ADD SWAP1 JUMP JUMPDEST SUB SWAP3 GAS CALL SWAP4 DUP5 ISZERO PUSH2 0x5AE JUMPI PUSH2 0x57D SWAP5 PUSH2 0x57F JUMPI JUMPDEST POP PUSH1 0x3 SLOAD AND SWAP2 PUSH2 0x575 PUSH2 0xC4B JUMP JUMPDEST SWAP3 CALLER SWAP1 PUSH2 0xD2D JUMP JUMPDEST STOP JUMPDEST PUSH2 0x5A0 SWAP1 PUSH1 0x20 RETURNDATASIZE PUSH1 0x20 GT PUSH2 0x5A7 JUMPI JUMPDEST PUSH2 0x598 DUP2 DUP4 PUSH2 0x3D2 JUMP JUMPDEST DUP2 ADD SWAP1 PUSH2 0xC2A JUMP JUMPDEST POP CODESIZE PUSH2 0x567 JUMP JUMPDEST POP RETURNDATASIZE PUSH2 0x58E JUMP JUMPDEST PUSH2 0xC3F JUMP JUMPDEST PUSH1 0x1 PUSH1 0x1 PUSH1 0x40 SHL SUB DUP2 GT PUSH2 0x3F3 JUMPI PUSH1 0x1F ADD PUSH1 0x1F NOT AND PUSH1 0x20 ADD SWAP1 JUMP JUMPDEST DUP2 PUSH1 0x1F DUP3 ADD SLT ISZERO PUSH2 0x147 JUMPI DUP1 CALLDATALOAD SWAP1 PUSH2 0x5E5 DUP3 PUSH2 0x5B3 JUMP JUMPDEST SWAP3 PUSH2 0x5F3 PUSH1 0x40 MLOAD SWAP5 DUP6 PUSH2 0x3D2 JUMP JUMPDEST DUP3 DUP5 MSTORE PUSH1 0x20 DUP4 DUP4 ADD ADD GT PUSH2 0x147 JUMPI DUP2 PUSH1 0x0 SWAP3 PUSH1 0x20 DUP1 SWAP4 ADD DUP4 DUP7 ADD CALLDATACOPY DUP4 ADD ADD MSTORE SWAP1 JUMP JUMPDEST CALLVALUE PUSH2 0x147 JUMPI PUSH1 0xA0 CALLDATASIZE PUSH1 0x3 NOT ADD SLT PUSH2 0x147 JUMPI PUSH2 0x62E PUSH2 0x131 JUMP JUMPDEST PUSH2 0x636 PUSH2 0x14C JUMP JUMPDEST PUSH1 0x1 PUSH1 0x1 PUSH1 0x40 SHL SUB PUSH1 0x44 CALLDATALOAD DUP2 DUP2 GT PUSH2 0x147 JUMPI PUSH2 0x656 SWAP1 CALLDATASIZE SWAP1 PUSH1 0x4 ADD PUSH2 0x40F JUMP JUMPDEST PUSH1 0x64 CALLDATALOAD DUP3 DUP2 GT PUSH2 0x147 JUMPI PUSH2 0x66E SWAP1 CALLDATASIZE SWAP1 PUSH1 0x4 ADD PUSH2 0x40F JUMP JUMPDEST SWAP2 PUSH1 0x84 CALLDATALOAD SWAP1 DUP2 GT PUSH2 0x147 JUMPI PUSH2 0x687 SWAP1 CALLDATASIZE SWAP1 PUSH1 0x4 ADD PUSH2 0x5CE JUMP JUMPDEST SWAP3 PUSH1 0x1 PUSH1 0x1 PUSH1 0xA0 SHL SUB DUP6 AND CALLER DUP2 EQ ISZERO SWAP1 DUP2 PUSH2 0x6D2 JUMPI JUMPDEST POP PUSH2 0x6AB JUMPI PUSH2 0x57D SWAP5 PUSH2 0xD2D JUMP JUMPDEST PUSH1 0x40 MLOAD PUSH4 0x711BEC91 PUSH1 0xE1 SHL DUP2 MSTORE CALLER PUSH1 0x4 DUP3 ADD MSTORE PUSH1 0x1 PUSH1 0x1 PUSH1 0xA0 SHL SUB DUP7 AND PUSH1 0x24 DUP3 ADD MSTORE PUSH1 0x44 SWAP1 REVERT JUMPDEST PUSH1 0x0 SWAP1 DUP2 MSTORE PUSH1 0x1 PUSH1 0x20 SWAP1 DUP2 MSTORE PUSH1 0x40 DUP1 DUP4 KECCAK256 CALLER DUP5 MSTORE SWAP1 SWAP2 MSTORE SWAP1 KECCAK256 PUSH1 0xFF SWAP2 POP SLOAD AND ISZERO CODESIZE PUSH2 0x69D JUMP JUMPDEST SWAP1 DUP2 MLOAD DUP1 DUP3 MSTORE PUSH1 0x20 DUP1 DUP1 SWAP4 ADD SWAP4 ADD SWAP2 PUSH1 0x0 JUMPDEST DUP3 DUP2 LT PUSH2 0x718 JUMPI POP POP POP POP SWAP1 JUMP JUMPDEST DUP4 MLOAD DUP6 MSTORE SWAP4 DUP2 ADD SWAP4 SWAP3 DUP2 ADD SWAP3 PUSH1 0x1 ADD PUSH2 0x70A JUMP JUMPDEST SWAP1 PUSH1 0x20 PUSH2 0x294 SWAP3 DUP2 DUP2 MSTORE ADD SWAP1 PUSH2 0x6F8 JUMP JUMPDEST CALLVALUE PUSH2 0x147 JUMPI PUSH1 0x40 CALLDATASIZE PUSH1 0x3 NOT ADD SLT PUSH2 0x147 JUMPI PUSH1 0x4 CALLDATALOAD PUSH1 0x1 PUSH1 0x1 PUSH1 0x40 SHL SUB DUP1 DUP3 GT PUSH2 0x147 JUMPI CALLDATASIZE PUSH1 0x23 DUP4 ADD SLT ISZERO PUSH2 0x147 JUMPI DUP2 PUSH1 0x4 ADD CALLDATALOAD PUSH2 0x779 DUP2 PUSH2 0x3F8 JUMP JUMPDEST SWAP3 PUSH2 0x787 PUSH1 0x40 MLOAD SWAP5 DUP6 PUSH2 0x3D2 JUMP JUMPDEST DUP2 DUP5 MSTORE PUSH1 0x20 SWAP2 PUSH1 0x24 PUSH1 0x20 DUP7 ADD SWAP2 PUSH1 0x5 SHL DUP4 ADD ADD SWAP2 CALLDATASIZE DUP4 GT PUSH2 0x147 JUMPI PUSH1 0x24 ADD SWAP1 JUMPDEST DUP3 DUP3 LT PUSH2 0x7E0 JUMPI DUP6 PUSH1 0x24 CALLDATALOAD DUP7 DUP2 GT PUSH2 0x147 JUMPI PUSH2 0x305 SWAP2 PUSH2 0x7CE PUSH2 0x7D4 SWAP3 CALLDATASIZE SWAP1 PUSH1 0x4 ADD PUSH2 0x40F JUMP JUMPDEST SWAP1 PUSH2 0xC6E JUMP JUMPDEST PUSH1 0x40 MLOAD SWAP2 DUP3 SWAP2 DUP3 PUSH2 0x72C JUMP JUMPDEST DUP4 DUP1 SWAP2 PUSH2 0x7EC DUP5 PUSH2 0x162 JUMP JUMPDEST DUP2 MSTORE ADD SWAP2 ADD SWAP1 PUSH2 0x7A7 JUMP JUMPDEST CALLVALUE PUSH2 0x147 JUMPI PUSH1 0x0 DUP1 PUSH1 0x3 NOT CALLDATASIZE ADD SLT PUSH2 0x855 JUMPI PUSH2 0x811 PUSH2 0xD53 JUMP JUMPDEST PUSH1 0x3 DUP1 SLOAD PUSH1 0x1 PUSH1 0x1 PUSH1 0xA0 SHL SUB NOT DUP2 AND SWAP1 SWAP2 SSTORE DUP2 SWAP1 PUSH1 0x1 PUSH1 0x1 PUSH1 0xA0 SHL SUB AND PUSH32 0x8BE0079C531659141344CD1FD0A4F28419497F9722A3DAAFE3B4186F6B6457E0 DUP3 DUP1 LOG3 DUP1 RETURN JUMPDEST DUP1 REVERT JUMPDEST CALLVALUE PUSH2 0x147 JUMPI PUSH1 0x0 CALLDATASIZE PUSH1 0x3 NOT ADD SLT PUSH2 0x147 JUMPI PUSH1 0x3 SLOAD PUSH1 0x40 MLOAD PUSH1 0x1 PUSH1 0x1 PUSH1 0xA0 SHL SUB SWAP1 SWAP2 AND DUP2 MSTORE PUSH1 0x20 SWAP1 RETURN JUMPDEST CALLVALUE PUSH2 0x147 JUMPI PUSH1 0x20 CALLDATASIZE PUSH1 0x3 NOT ADD SLT PUSH2 0x147 JUMPI PUSH2 0x89A PUSH2 0xD53 JUMP JUMPDEST PUSH1 0x4 DUP1 CALLDATALOAD SWAP1 SSTORE STOP JUMPDEST CALLVALUE PUSH2 0x147 JUMPI PUSH1 0x0 CALLDATASIZE PUSH1 0x3 NOT ADD SLT PUSH2 0x147 JUMPI PUSH1 0x20 PUSH1 0x4 SLOAD PUSH1 0x40 MLOAD SWAP1 DUP2 MSTORE RETURN JUMPDEST DUP1 ISZERO ISZERO SUB PUSH2 0x147 JUMPI JUMP JUMPDEST CALLVALUE PUSH2 0x147 JUMPI PUSH1 0x40 CALLDATASIZE PUSH1 0x3 NOT ADD SLT PUSH2 0x147 JUMPI PUSH2 0x8E3 PUSH2 0x131 JUMP JUMPDEST PUSH1 0x24 CALLDATALOAD PUSH2 0x8EF DUP2 PUSH2 0x8C0 JUMP JUMPDEST PUSH1 0x1 PUSH1 0x1 PUSH1 0xA0 SHL SUB DUP3 AND SWAP2 DUP3 ISZERO PUSH2 0x970 JUMPI CALLER PUSH1 0x0 SWAP1 DUP2 MSTORE PUSH1 0x1 PUSH1 0x20 SWAP1 DUP2 MSTORE PUSH1 0x40 DUP1 DUP4 KECCAK256 PUSH1 0x1 PUSH1 0x1 PUSH1 0xA0 SHL SUB SWAP1 SWAP5 AND DUP4 MSTORE SWAP3 SWAP1 MSTORE KECCAK256 PUSH1 0xFF NOT DUP2 SLOAD AND PUSH1 0xFF DUP4 ISZERO ISZERO AND OR SWAP1 SSTORE PUSH32 0x17307EAB39AB6107E8899845AD3D59BD9653F200F220920489CA2B5937696C31 PUSH1 0x40 MLOAD DUP1 PUSH2 0x96B CALLER SWAP5 DUP3 SWAP2 SWAP1 SWAP2 PUSH1 0x20 DUP2 ADD SWAP3 ISZERO ISZERO SWAP1 MSTORE JUMP JUMPDEST SUB SWAP1 LOG3 STOP JUMPDEST PUSH1 0x40 MLOAD PUSH3 0xCED3E1 PUSH1 0xE8 SHL DUP2 MSTORE PUSH1 0x0 PUSH1 0x4 DUP3 ADD MSTORE PUSH1 0x24 SWAP1 REVERT JUMPDEST CALLVALUE PUSH2 0x147 JUMPI PUSH1 0x20 CALLDATASIZE PUSH1 0x3 NOT ADD SLT PUSH2 0x147 JUMPI PUSH2 0x9A1 PUSH2 0x131 JUMP JUMPDEST PUSH2 0x9A9 PUSH2 0xD53 JUMP JUMPDEST PUSH1 0x5 DUP1 SLOAD PUSH1 0x1 PUSH1 0x1 PUSH1 0xA0 SHL SUB NOT AND PUSH1 0x1 PUSH1 0x1 PUSH1 0xA0 SHL SUB SWAP3 SWAP1 SWAP3 AND SWAP2 SWAP1 SWAP2 OR SWAP1 SSTORE STOP JUMPDEST CALLVALUE PUSH2 0x147 JUMPI PUSH1 0x40 CALLDATASIZE PUSH1 0x3 NOT ADD SLT PUSH2 0x147 JUMPI PUSH1 0x20 PUSH1 0xFF PUSH2 0xA1C PUSH2 0x9EB PUSH2 0x131 JUMP JUMPDEST PUSH2 0x9F3 PUSH2 0x14C JUMP JUMPDEST PUSH1 0x1 PUSH1 0x1 PUSH1 0xA0 SHL SUB SWAP2 DUP3 AND PUSH1 0x0 SWAP1 DUP2 MSTORE PUSH1 0x1 DUP7 MSTORE PUSH1 0x40 DUP1 DUP3 KECCAK256 SWAP3 SWAP1 SWAP4 AND DUP2 MSTORE PUSH1 0x20 SWAP2 SWAP1 SWAP2 MSTORE KECCAK256 SWAP1 JUMP JUMPDEST SLOAD AND PUSH1 0x40 MLOAD SWAP1 ISZERO ISZERO DUP2 MSTORE RETURN JUMPDEST CALLVALUE PUSH2 0x147 JUMPI PUSH1 0xA0 CALLDATASIZE PUSH1 0x3 NOT ADD SLT PUSH2 0x147 JUMPI PUSH2 0xA41 PUSH2 0x131 JUMP JUMPDEST PUSH2 0xA49 PUSH2 0x14C JUMP JUMPDEST SWAP1 PUSH1 0x84 CALLDATALOAD PUSH1 0x1 PUSH1 0x1 PUSH1 0x40 SHL SUB DUP2 GT PUSH2 0x147 JUMPI PUSH2 0xA69 SWAP1 CALLDATASIZE SWAP1 PUSH1 0x4 ADD PUSH2 0x5CE JUMP JUMPDEST SWAP1 PUSH1 0x1 PUSH1 0x1 PUSH1 0xA0 SHL SUB DUP1 DUP3 AND SWAP1 CALLER DUP3 EQ ISZERO DUP1 PUSH2 0xB19 JUMPI JUMPDEST PUSH2 0xAF2 JUMPI DUP5 AND ISZERO PUSH2 0xAD9 JUMPI ISZERO PUSH2 0xAC1 JUMPI PUSH2 0x57D SWAP3 PUSH1 0x40 MLOAD SWAP1 PUSH1 0x1 DUP3 MSTORE PUSH1 0x44 CALLDATALOAD PUSH1 0x20 DUP4 ADD MSTORE PUSH1 0x40 DUP3 ADD SWAP3 PUSH1 0x1 DUP5 MSTORE PUSH1 0x64 CALLDATALOAD PUSH1 0x60 DUP5 ADD MSTORE PUSH1 0x80 DUP4 ADD PUSH1 0x40 MSTORE PUSH2 0xD7F JUMP JUMPDEST PUSH1 0x40 MLOAD PUSH3 0x6A0D45 PUSH1 0xE2 SHL DUP2 MSTORE PUSH1 0x0 PUSH1 0x4 DUP3 ADD MSTORE PUSH1 0x24 SWAP1 REVERT JUMPDEST PUSH1 0x40 MLOAD PUSH4 0x2BFA23E7 PUSH1 0xE1 SHL DUP2 MSTORE PUSH1 0x0 PUSH1 0x4 DUP3 ADD MSTORE PUSH1 0x24 SWAP1 REVERT JUMPDEST PUSH1 0x40 MLOAD PUSH4 0x711BEC91 PUSH1 0xE1 SHL DUP2 MSTORE CALLER PUSH1 0x4 DUP3 ADD MSTORE PUSH1 0x1 PUSH1 0x1 PUSH1 0xA0 SHL SUB DUP5 AND PUSH1 0x24 DUP3 ADD MSTORE PUSH1 0x44 SWAP1 REVERT JUMPDEST POP PUSH1 0x0 DUP3 DUP2 MSTORE PUSH1 0x1 PUSH1 0x20 SWAP1 DUP2 MSTORE PUSH1 0x40 DUP1 DUP4 KECCAK256 CALLER DUP5 MSTORE SWAP1 SWAP2 MSTORE SWAP1 KECCAK256 SLOAD PUSH1 0xFF AND ISZERO PUSH2 0xA80 JUMP JUMPDEST CALLVALUE PUSH2 0x147 JUMPI PUSH1 0x20 CALLDATASIZE PUSH1 0x3 NOT ADD SLT PUSH2 0x147 JUMPI PUSH2 0xB56 PUSH2 0x131 JUMP JUMPDEST PUSH2 0xB5E PUSH2 0xD53 JUMP JUMPDEST PUSH1 0x1 PUSH1 0x1 PUSH1 0xA0 SHL SUB SWAP1 DUP2 AND SWAP1 DUP2 ISZERO PUSH2 0xBAC JUMPI PUSH1 0x3 DUP1 SLOAD PUSH1 0x1 PUSH1 0x1 PUSH1 0xA0 SHL SUB NOT DUP2 AND DUP5 OR SWAP1 SWAP2 SSTORE AND PUSH32 0x8BE0079C531659141344CD1FD0A4F28419497F9722A3DAAFE3B4186F6B6457E0 PUSH1 0x0 DUP1 LOG3 STOP JUMPDEST PUSH1 0x40 MLOAD PUSH4 0x1E4FBDF7 PUSH1 0xE0 SHL DUP2 MSTORE PUSH1 0x0 PUSH1 0x4 DUP3 ADD MSTORE PUSH1 0x24 SWAP1 REVERT JUMPDEST DUP1 MLOAD DUP3 LT ISZERO PUSH2 0xBD9 JUMPI PUSH1 0x20 SWAP2 PUSH1 0x5 SHL ADD ADD SWAP1 JUMP JUMPDEST PUSH4 0x4E487B71 PUSH1 0xE0 SHL PUSH1 0x0 MSTORE PUSH1 0x32 PUSH1 0x4 MSTORE PUSH1 0x24 PUSH1 0x0 REVERT JUMPDEST PUSH4 0x4E487B71 PUSH1 0xE0 SHL PUSH1 0x0 MSTORE PUSH1 0x11 PUSH1 0x4 MSTORE PUSH1 0x24 PUSH1 0x0 REVERT JUMPDEST SWAP2 SWAP1 DUP3 ADD DUP1 SWAP3 GT PUSH2 0xC12 JUMPI JUMP JUMPDEST PUSH2 0xBEF JUMP JUMPDEST DUP2 DUP2 MUL SWAP3 SWAP2 DUP2 ISZERO SWAP2 DUP5 DIV EQ OR ISZERO PUSH2 0xC12 JUMPI JUMP JUMPDEST SWAP1 DUP2 PUSH1 0x20 SWAP2 SUB SLT PUSH2 0x147 JUMPI MLOAD PUSH2 0x294 DUP2 PUSH2 0x8C0 JUMP JUMPDEST PUSH1 0x40 MLOAD RETURNDATASIZE PUSH1 0x0 DUP3 RETURNDATACOPY RETURNDATASIZE SWAP1 REVERT JUMPDEST PUSH1 0x40 MLOAD SWAP1 PUSH1 0x20 DUP3 ADD DUP3 DUP2 LT PUSH1 0x1 PUSH1 0x1 PUSH1 0x40 SHL SUB DUP3 GT OR PUSH2 0x3F3 JUMPI PUSH1 0x40 MSTORE PUSH1 0x0 DUP3 MSTORE JUMP JUMPDEST SWAP2 SWAP1 SWAP2 DUP1 MLOAD DUP4 MLOAD DUP1 DUP3 SUB PUSH2 0xD0B JUMPI POP POP DUP1 MLOAD SWAP1 PUSH2 0xCA3 PUSH2 0xC8D DUP4 PUSH2 0x3F8 JUMP JUMPDEST SWAP3 PUSH2 0xC9B PUSH1 0x40 MLOAD SWAP5 DUP6 PUSH2 0x3D2 JUMP JUMPDEST DUP1 DUP5 MSTORE PUSH2 0x3F8 JUMP JUMPDEST PUSH1 0x20 SWAP2 SWAP1 PUSH1 0x1F NOT ADD CALLDATASIZE DUP5 DUP5 ADD CALLDATACOPY PUSH1 0x0 JUMPDEST DUP2 MLOAD DUP2 LT ISZERO PUSH2 0xD03 JUMPI PUSH1 0x5 DUP2 SWAP1 SHL DUP3 DUP2 ADD DUP5 ADD MLOAD SWAP1 DUP8 ADD DUP5 ADD MLOAD PUSH1 0x0 SWAP1 DUP2 MSTORE PUSH1 0x20 DUP2 DUP2 MSTORE PUSH1 0x40 DUP1 DUP4 KECCAK256 PUSH1 0x1 PUSH1 0x1 PUSH1 0xA0 SHL SUB SWAP1 SWAP5 AND DUP4 MSTORE SWAP3 SWAP1 MSTORE KECCAK256 SLOAD PUSH1 0x1 SWAP2 SWAP1 PUSH2 0xCFC DUP3 DUP8 PUSH2 0xBC5 JUMP JUMPDEST MSTORE ADD PUSH2 0xCB3 JUMP JUMPDEST POP SWAP2 SWAP4 POP POP POP JUMP JUMPDEST PUSH1 0x40 MLOAD PUSH4 0x5B059991 PUSH1 0xE0 SHL DUP2 MSTORE PUSH1 0x4 DUP2 ADD SWAP2 SWAP1 SWAP2 MSTORE PUSH1 0x24 DUP2 ADD SWAP2 SWAP1 SWAP2 MSTORE PUSH1 0x44 SWAP1 REVERT JUMPDEST SWAP4 SWAP3 SWAP2 SWAP1 PUSH1 0x1 PUSH1 0x1 PUSH1 0xA0 SHL SUB DUP1 DUP3 AND ISZERO PUSH2 0xAD9 JUMPI DUP6 AND ISZERO PUSH2 0xAC1 JUMPI PUSH2 0xD51 SWAP5 PUSH2 0xD7F JUMP JUMPDEST JUMP JUMPDEST PUSH1 0x3 SLOAD PUSH1 0x1 PUSH1 0x1 PUSH1 0xA0 SHL SUB AND CALLER SUB PUSH2 0xD67 JUMPI JUMP JUMPDEST PUSH1 0x40 MLOAD PUSH4 0x118CDAA7 PUSH1 0xE0 SHL DUP2 MSTORE CALLER PUSH1 0x4 DUP3 ADD MSTORE PUSH1 0x24 SWAP1 REVERT JUMPDEST SWAP5 SWAP2 SWAP1 SWAP2 DUP2 MLOAD DUP5 MLOAD SWAP1 DUP2 DUP2 SUB PUSH2 0xD0B JUMPI POP POP PUSH1 0x0 JUMPDEST DUP3 MLOAD DUP2 LT ISZERO PUSH2 0xEA1 JUMPI PUSH1 0x5 DUP2 SWAP1 SHL DUP4 DUP2 ADD PUSH1 0x20 SWAP1 DUP2 ADD MLOAD SWAP2 DUP8 ADD ADD MLOAD PUSH1 0x1 PUSH1 0x1 PUSH1 0xA0 SHL SUB SWAP3 SWAP2 DUP7 SWAP1 DUP11 DUP6 AND PUSH2 0xE1B JUMPI JUMPDEST PUSH1 0x1 SWAP5 DUP3 AND PUSH2 0xDD7 JUMPI JUMPDEST POP POP POP ADD PUSH2 0xD94 JUMP JUMPDEST PUSH2 0xE11 SWAP2 PUSH2 0xDF2 PUSH2 0xE09 SWAP3 PUSH1 0x0 MSTORE PUSH1 0x0 PUSH1 0x20 MSTORE PUSH1 0x40 PUSH1 0x0 KECCAK256 SWAP1 JUMP JUMPDEST SWAP1 PUSH1 0x1 DUP1 PUSH1 0xA0 SHL SUB AND PUSH1 0x0 MSTORE PUSH1 0x20 MSTORE PUSH1 0x40 PUSH1 0x0 KECCAK256 SWAP1 JUMP JUMPDEST SWAP2 DUP3 SLOAD PUSH2 0xC05 JUMP JUMPDEST SWAP1 SSTORE CODESIZE DUP6 DUP2 PUSH2 0xDCE JUMP JUMPDEST SWAP2 SWAP3 SWAP4 SWAP1 POP PUSH2 0xE38 DUP11 PUSH2 0xDF2 DUP5 PUSH1 0x0 MSTORE PUSH1 0x0 PUSH1 0x20 MSTORE PUSH1 0x40 PUSH1 0x0 KECCAK256 SWAP1 JUMP JUMPDEST SLOAD DUP4 DUP2 LT PUSH2 0xE6A JUMPI SWAP2 DUP8 SWAP2 DUP5 PUSH1 0x1 SWAP7 SWAP6 SWAP5 SUB PUSH2 0xE62 DUP14 PUSH2 0xDF2 DUP6 PUSH1 0x0 MSTORE PUSH1 0x0 PUSH1 0x20 MSTORE PUSH1 0x40 PUSH1 0x0 KECCAK256 SWAP1 JUMP JUMPDEST SSTORE SWAP5 POP PUSH2 0xDC4 JUMP JUMPDEST PUSH1 0x40 MLOAD PUSH4 0x3DEE4C5 PUSH1 0xE0 SHL DUP2 MSTORE PUSH1 0x1 PUSH1 0x1 PUSH1 0xA0 SHL SUB DUP13 AND PUSH1 0x4 DUP3 ADD MSTORE PUSH1 0x24 DUP2 ADD SWAP2 SWAP1 SWAP2 MSTORE PUSH1 0x44 DUP2 ADD DUP5 SWAP1 MSTORE PUSH1 0x64 DUP2 ADD DUP4 SWAP1 MSTORE PUSH1 0x84 SWAP1 REVERT JUMPDEST POP SWAP5 SWAP2 SWAP4 SWAP3 SWAP1 SWAP4 PUSH1 0x1 DUP6 MLOAD EQ PUSH1 0x0 EQ PUSH2 0xF4C JUMPI PUSH1 0x20 DUP6 DUP2 ADD MLOAD DUP4 DUP3 ADD MLOAD PUSH1 0x40 DUP1 MLOAD SWAP3 DUP4 MSTORE SWAP3 DUP3 ADD MSTORE PUSH1 0x1 PUSH1 0x1 PUSH1 0xA0 SHL SUB DUP4 DUP2 AND SWAP3 SWAP1 DUP7 AND SWAP2 CALLER SWAP2 PUSH32 0xC3D58168C5AE7397731D063D5BBF3D657854427343F4C083240F7AACAA2D0F62 SWAP2 LOG4 JUMPDEST PUSH1 0x1 PUSH1 0x1 PUSH1 0xA0 SHL SUB DUP2 AND PUSH2 0xF15 JUMPI JUMPDEST POP POP POP POP POP JUMP JUMPDEST DUP5 MLOAD PUSH1 0x1 SUB PUSH2 0xF3B JUMPI PUSH1 0x20 DUP1 PUSH2 0xF31 SWAP7 ADD MLOAD SWAP3 ADD MLOAD SWAP3 CALLER PUSH2 0x1181 JUMP JUMPDEST CODESIZE DUP1 DUP1 DUP1 DUP1 PUSH2 0xF0E JUMP JUMPDEST PUSH2 0xF47 SWAP5 SWAP2 SWAP3 CALLER PUSH2 0x104F JUMP JUMPDEST PUSH2 0xF31 JUMP JUMPDEST PUSH1 0x40 MLOAD PUSH1 0x1 PUSH1 0x1 PUSH1 0xA0 SHL SUB DUP3 DUP2 AND SWAP2 SWAP1 DUP6 AND SWAP1 CALLER SWAP1 PUSH32 0x4A39DC06D4C0DBC64B70AF90FD698A233A518AA5D07E595D983B8C0526C8F7FB SWAP1 DUP1 PUSH2 0xF8F DUP9 DUP13 DUP4 PUSH2 0xF97 JUMP JUMPDEST SUB SWAP1 LOG4 PUSH2 0xEFF JUMP JUMPDEST SWAP1 SWAP2 PUSH2 0xFAE PUSH2 0x294 SWAP4 PUSH1 0x40 DUP5 MSTORE PUSH1 0x40 DUP5 ADD SWAP1 PUSH2 0x6F8 JUMP JUMPDEST SWAP2 PUSH1 0x20 DUP2 DUP5 SUB SWAP2 ADD MSTORE PUSH2 0x6F8 JUMP JUMPDEST SWAP1 DUP2 PUSH1 0x20 SWAP2 SUB SLT PUSH2 0x147 JUMPI MLOAD PUSH2 0x294 DUP2 PUSH2 0x1C3 JUMP JUMPDEST SWAP4 SWAP1 PUSH2 0x294 SWAP6 SWAP4 PUSH2 0x1003 SWAP2 PUSH2 0x1011 SWAP5 PUSH1 0x1 DUP1 PUSH1 0xA0 SHL SUB DUP1 SWAP3 AND DUP9 MSTORE AND PUSH1 0x20 DUP8 ADD MSTORE PUSH1 0xA0 PUSH1 0x40 DUP8 ADD MSTORE PUSH1 0xA0 DUP7 ADD SWAP1 PUSH2 0x6F8 JUMP JUMPDEST SWAP1 DUP5 DUP3 SUB PUSH1 0x60 DUP7 ADD MSTORE PUSH2 0x6F8 JUMP JUMPDEST SWAP2 PUSH1 0x80 DUP2 DUP5 SUB SWAP2 ADD MSTORE PUSH2 0x243 JUMP JUMPDEST RETURNDATASIZE ISZERO PUSH2 0x104A JUMPI RETURNDATASIZE SWAP1 PUSH2 0x1030 DUP3 PUSH2 0x5B3 JUMP JUMPDEST SWAP2 PUSH2 0x103E PUSH1 0x40 MLOAD SWAP4 DUP5 PUSH2 0x3D2 JUMP JUMPDEST DUP3 MSTORE RETURNDATASIZE PUSH1 0x0 PUSH1 0x20 DUP5 ADD RETURNDATACOPY JUMP JUMPDEST PUSH1 0x60 SWAP1 JUMP JUMPDEST SWAP4 SWAP3 SWAP1 SWAP5 SWAP2 SWAP5 DUP6 EXTCODESIZE PUSH2 0x1064 JUMPI JUMPDEST POP POP POP POP POP POP JUMP JUMPDEST PUSH2 0x1087 PUSH1 0x20 SWAP4 PUSH1 0x40 MLOAD SWAP6 DUP7 SWAP5 DUP6 SWAP5 PUSH4 0xBC197C81 PUSH1 0xE0 SHL SWAP10 DUP11 DUP8 MSTORE PUSH1 0x4 DUP8 ADD PUSH2 0xFD1 JUMP JUMPDEST SUB DUP2 PUSH1 0x0 PUSH1 0x1 PUSH1 0x1 PUSH1 0xA0 SHL SUB DUP9 AND GAS CALL PUSH1 0x0 SWAP2 DUP2 PUSH2 0x111D JUMPI JUMPDEST POP PUSH2 0x10DF JUMPI DUP3 PUSH2 0x10AE PUSH2 0x101F JUMP JUMPDEST DUP1 MLOAD SWAP2 SWAP1 DUP3 PUSH2 0x10D8 JUMPI PUSH1 0x40 MLOAD PUSH4 0x2BFA23E7 PUSH1 0xE1 SHL DUP2 MSTORE PUSH1 0x1 PUSH1 0x1 PUSH1 0xA0 SHL SUB DUP4 AND PUSH1 0x4 DUP3 ADD MSTORE PUSH1 0x24 SWAP1 REVERT JUMPDEST SWAP1 POP PUSH1 0x20 ADD REVERT JUMPDEST PUSH1 0x1 PUSH1 0x1 PUSH1 0xE0 SHL SUB NOT AND SUB PUSH2 0x10FA JUMPI POP CODESIZE DUP1 DUP1 DUP1 DUP1 DUP1 PUSH2 0x105C JUMP JUMPDEST PUSH1 0x40 MLOAD PUSH4 0x2BFA23E7 PUSH1 0xE1 SHL DUP2 MSTORE PUSH1 0x1 PUSH1 0x1 PUSH1 0xA0 SHL SUB SWAP2 SWAP1 SWAP2 AND PUSH1 0x4 DUP3 ADD MSTORE PUSH1 0x24 SWAP1 REVERT JUMPDEST PUSH2 0x1140 SWAP2 SWAP3 POP PUSH1 0x20 RETURNDATASIZE PUSH1 0x20 GT PUSH2 0x1147 JUMPI JUMPDEST PUSH2 0x1138 DUP2 DUP4 PUSH2 0x3D2 JUMP JUMPDEST DUP2 ADD SWAP1 PUSH2 0xFBC JUMP JUMPDEST SWAP1 CODESIZE PUSH2 0x10A0 JUMP JUMPDEST POP RETURNDATASIZE PUSH2 0x112E JUMP JUMPDEST SWAP2 SWAP3 PUSH2 0x294 SWAP6 SWAP5 SWAP2 PUSH1 0xA0 SWAP5 PUSH1 0x1 DUP1 DUP8 SHL SUB DUP1 SWAP3 AND DUP6 MSTORE AND PUSH1 0x20 DUP5 ADD MSTORE PUSH1 0x40 DUP4 ADD MSTORE PUSH1 0x60 DUP3 ADD MSTORE DUP2 PUSH1 0x80 DUP3 ADD MSTORE ADD SWAP1 PUSH2 0x243 JUMP JUMPDEST SWAP4 SWAP3 SWAP1 SWAP5 SWAP2 SWAP5 DUP6 EXTCODESIZE PUSH2 0x1195 JUMPI POP POP POP POP POP POP JUMP JUMPDEST PUSH2 0x1087 PUSH1 0x20 SWAP4 PUSH1 0x40 MLOAD SWAP6 DUP7 SWAP5 DUP6 SWAP5 PUSH4 0xF23A6E61 PUSH1 0xE0 SHL SWAP10 DUP11 DUP8 MSTORE PUSH1 0x4 DUP8 ADD PUSH2 0x114E JUMP INVALID LOG2 PUSH5 0x6970667358 0x22 SLT KECCAK256 RETURN 0x4D SWAP15 SWAP8 DUP10 BLOCKHASH 0x21 JUMP EXP MLOAD SHL SWAP12 0x2F 0xB8 EXP 0x4C SWAP7 PUSH15 0x537F606F7D0541315256CFC3B37264 PUSH20 0x6F6C634300081800330000000000000000000000 "},"methodIdentifiers":{"Bronze()":"10ca7d1c","Gold()":"c8449b65","Silver()":"fe275280","balanceOf(address,uint256)":"00fdd58e","balanceOfBatch(address[],uint256[])":"4e1273f4","buyWithUSDC(uint256[],uint256[])":"23a418b0","isApprovedForAll(address,address)":"e985e9c5","owner()":"8da5cb5b","price()":"a035b1fe","renounceOwnership()":"715018a6","safeBatchTransferFrom(address,address,uint256[],uint256[],bytes)":"2eb2c2d6","safeTransferFrom(address,address,uint256,uint256,bytes)":"f242432a","setApprovalForAll(address,bool)":"a22cb465","setPrice(uint256)":"91b7f5ed","setUSDC(address)":"b3e089a2","supportsInterface(bytes4)":"01ffc9a7","transferOwnership(address)":"f2fde38b","uri(uint256)":"0e89341c"}}}}}