{"contracts/NFT.sol":{"CustomNFT":{"abi":[{"inputs":[],"stateMutability":"nonpayable","type":"constructor"},{"inputs":[{"internalType":"address","name":"sender","type":"address"},{"internalType":"uint256","name":"balance","type":"uint256"},{"internalType":"uint256","name":"needed","type":"uint256"},{"internalType":"uint256","name":"tokenId","type":"uint256"}],"name":"ERC1155InsufficientBalance","type":"error"},{"inputs":[{"internalType":"address","name":"approver","type":"address"}],"name":"ERC1155InvalidApprover","type":"error"},{"inputs":[{"internalType":"uint256","name":"idsLength","type":"uint256"},{"internalType":"uint256","name":"valuesLength","type":"uint256"}],"name":"ERC1155InvalidArrayLength","type":"error"},{"inputs":[{"internalType":"address","name":"operator","type":"address"}],"name":"ERC1155InvalidOperator","type":"error"},{"inputs":[{"internalType":"address","name":"receiver","type":"address"}],"name":"ERC1155InvalidReceiver","type":"error"},{"inputs":[{"internalType":"address","name":"sender","type":"address"}],"name":"ERC1155InvalidSender","type":"error"},{"inputs":[{"internalType":"address","name":"operator","type":"address"},{"internalType":"address","name":"owner","type":"address"}],"name":"ERC1155MissingApprovalForAll","type":"error"},{"inputs":[{"internalType":"address","name":"owner","type":"address"}],"name":"OwnableInvalidOwner","type":"error"},{"inputs":[{"internalType":"address","name":"account","type":"address"}],"name":"OwnableUnauthorizedAccount","type":"error"},{"anonymous":false,"inputs":[{"indexed":true,"internalType":"address","name":"account","type":"address"},{"indexed":true,"internalType":"address","name":"operator","type":"address"},{"indexed":false,"internalType":"bool","name":"approved","type":"bool"}],"name":"ApprovalForAll","type":"event"},{"anonymous":false,"inputs":[{"indexed":true,"internalType":"address","name":"previousOwner","type":"address"},{"indexed":true,"internalType":"address","name":"newOwner","type":"address"}],"name":"OwnershipTransferred","type":"event"},{"anonymous":false,"inputs":[{"indexed":true,"internalType":"address","name":"operator","type":"address"},{"indexed":true,"internalType":"address","name":"from","type":"address"},{"indexed":true,"internalType":"address","name":"to","type":"address"},{"indexed":false,"internalType":"uint256[]","name":"ids","type":"uint256[]"},{"indexed":false,"internalType":"uint256[]","name":"values","type":"uint256[]"}],"name":"TransferBatch","type":"event"},{"anonymous":false,"inputs":[{"indexed":true,"internalType":"address","name":"operator","type":"address"},{"indexed":true,"internalType":"address","name":"from","type":"address"},{"indexed":true,"internalType":"address","name":"to","type":"address"},{"indexed":false,"internalType":"uint256","name":"id","type":"uint256"},{"indexed":false,"internalType":"uint256","name":"value","type":"uint256"}],"name":"TransferSingle","type":"event"},{"anonymous":false,"inputs":[{"indexed":false,"internalType":"string","name":"value","type":"string"},{"indexed":true,"internalType":"uint256","name":"id","type":"uint256"}],"name":"URI","type":"event"},{"inputs":[],"name":"Bronze","outputs":[{"internalType":"uint256","name":"","type":"uint256"}],"stateMutability":"view","type":"function"},{"inputs":[],"name":"Gold","outputs":[{"internalType":"uint256","name":"","type":"uint256"}],"stateMutability":"view","type":"function"},{"inputs":[],"name":"Silver","outputs":[{"internalType":"uint256","name":"","type":"uint256"}],"stateMutability":"view","type":"function"},{"inputs":[{"internalType":"address","name":"account","type":"address"},{"internalType":"uint256","name":"id","type":"uint256"}],"name":"balanceOf","outputs":[{"internalType":"uint256","name":"","type":"uint256"}],"stateMutability":"view","type":"function"},{"inputs":[{"internalType":"address[]","name":"accounts","type":"address[]"},{"internalType":"uint256[]","name":"ids","type":"uint256[]"}],"name":"balanceOfBatch","outputs":[{"internalType":"uint256[]","name":"","type":"uint256[]"}],"stateMutability":"view","type":"function"},{"inputs":[{"internalType":"uint256[]","name":"_type","type":"uint256[]"},{"internalType":"uint256[]","name":"_number","type":"uint256[]"}],"name":"buyWithUSDC","outputs":[],"stateMutability":"nonpayable","type":"function"},{"inputs":[{"internalType":"address","name":"account","type":"address"},{"internalType":"address","name":"operator","type":"address"}],"name":"isApprovedForAll","outputs":[{"internalType":"bool","name":"","type":"bool"}],"stateMutability":"view","type":"function"},{"inputs":[],"name":"owner","outputs":[{"internalType":"address","name":"","type":"address"}],"stateMutability":"view","type":"function"},{"inputs":[],"name":"price","outputs":[{"internalType":"uint256","name":"","type":"uint256"}],"stateMutability":"view","type":"function"},{"inputs":[],"name":"renounceOwnership","outputs":[],"stateMutability":"nonpayable","type":"function"},{"inputs":[{"internalType":"address","name":"from","type":"address"},{"internalType":"address","name":"to","type":"address"},{"internalType":"uint256[]","name":"ids","type":"uint256[]"},{"internalType":"uint256[]","name":"values","type":"uint256[]"},{"internalType":"bytes","name":"data","type":"bytes"}],"name":"safeBatchTransferFrom","outputs":[],"stateMutability":"nonpayable","type":"function"},{"inputs":[{"internalType":"address","name":"from","type":"address"},{"internalType":"address","name":"to","type":"address"},{"internalType":"uint256","name":"id","type":"uint256"},{"internalType":"uint256","name":"value","type":"uint256"},{"internalType":"bytes","name":"data","type":"bytes"}],"name":"safeTransferFrom","outputs":[],"stateMutability":"nonpayable","type":"function"},{"inputs":[{"internalType":"address","name":"operator","type":"address"},{"internalType":"bool","name":"approved","type":"bool"}],"name":"setApprovalForAll","outputs":[],"stateMutability":"nonpayable","type":"function"},{"inputs":[{"internalType":"uint256","name":"_newPrice","type":"uint256"}],"name":"setPrice","outputs":[],"stateMutability":"nonpayable","type":"function"},{"inputs":[{"internalType":"uint256","name":"_id","type":"uint256"},{"internalType":"string","name":"_uri","type":"string"}],"name":"setURI","outputs":[],"stateMutability":"nonpayable","type":"function"},{"inputs":[{"internalType":"address","name":"_USDCaddress","type":"address"}],"name":"setUSDC","outputs":[],"stateMutability":"nonpayable","type":"function"},{"inputs":[{"internalType":"bytes4","name":"interfaceId","type":"bytes4"}],"name":"supportsInterface","outputs":[{"internalType":"bool","name":"","type":"bool"}],"stateMutability":"view","type":"function"},{"inputs":[{"internalType":"uint256","name":"","type":"uint256"}],"name":"tokenURI","outputs":[{"internalType":"string","name":"","type":"string"}],"stateMutability":"view","type":"function"},{"inputs":[{"internalType":"address","name":"newOwner","type":"address"}],"name":"transferOwnership","outputs":[],"stateMutability":"nonpayable","type":"function"},{"inputs":[{"internalType":"uint256","name":"_id","type":"uint256"}],"name":"uri","outputs":[{"internalType":"string","name":"","type":"string"}],"stateMutability":"view","type":"function"}],"evm":{"bytecode":{"linkReferences":{},"object":"60806040523462000115576200001560a0604052565b6000608052600254600181811c911680156200010a575b6020821014620000f457620000419062000540565b60006002553315620000db576200005833620004f7565b600580546001600160a01b03191673036cbd53842c5426634e7929541ec2318f3dcf7e179055620000936200008c6200015a565b336200017e565b620000a8620000a16200015a565b336200032e565b620000bd620000b66200015a565b3362000412565b620000cb633b9aca00600455565b6040516113d29081620008738239f35b604051631e4fbdf760e01b815260006004820152602490fd5b634e487b7160e01b600052602260045260246000fd5b90607f16906200002c565b600080fd5b634e487b7160e01b600052604160045260246000fd5b601f909101601f19168101906001600160401b038211908210176200015457604052565b6200011a565b60405190602082016001600160401b03811183821017620001545760405260008252565b6001600160a01b0381169190821562000315576040516001938482526020916020810195600087526040820192818452606094606084019560648752608085018060405285518751808203620002f957505050908391826000905b62000291575b50505083511460001462000252576000885160008051602062001c4583398151915262000222885160405191829133958360209093929193604081019481520152565b0390a45b81510362000242575050620002409351905191336200083a565b565b91509162000240945033620006fa565b60006040517f4a39dc06d4c0dbc64b70af90fd698a233a518aa5d07e595d983b8c0526c8f7fb33918062000288898983620005d6565b0390a462000226565b8651811015620002f35780849160051b8801620002e9620002e08d620002c98789860151950151946000526000602052604060002090565b9060018060a01b0316600052602052604060002090565b9182546200057c565b90550183620001d9565b620001df565b635b05999160e01b8352608488019190915260a4870152604490fd5b604051632bfa23e760e11b815260006004820152602490fd5b6001600160a01b03811691908215620003155760405160019384825260209160208101958087526040820192818452606094606084019560648752608085018060405285518751808203620002f957505050908391826000905b620003d05750505083511460001462000252576000885160008051602062001c4583398151915262000222885160405191829133958360209093929193604081019481520152565b8651811015620002f35780849160051b880162000408620002e08d620002c98789860151950151946000526000602052604060002090565b9055018362000388565b6001600160a01b0381169190821562000315576040516001938482526020916020810195600287526040820192818452606094606084019560648752608085018060405285518751808203620002f957505050908391826000905b620004b55750505083511460001462000252576000885160008051602062001c4583398151915262000222885160405191829133958360209093929193604081019481520152565b8651811015620002f35780849160051b8801620004ed620002e08d620002c98789860151950151946000526000602052604060002090565b905501836200046d565b600380546001600160a01b039283166001600160a01b0319821681179092559091167f8be0079c531659141344cd1fd0a4f28419497f9722a3daafe3b4186f6b6457e0600080a3565b601f81116200054c5750565b60006002600052601f6020600020920160051c8201915b8281106200057057505050565b81815560010162000563565b919082018092116200058a57565b634e487b7160e01b600052601160045260246000fd5b90815180825260208080930193019160005b828110620005c1575050505090565b835185529381019392810192600101620005b2565b9091620005f0620005ff93604084526040840190620005a0565b916020818403910152620005a0565b90565b908160209103126200011557516001600160e01b031981168103620001155790565b919082519283825260005b84811062000651575050826000602080949584010152601f8019910116010190565b6020818301810151848301820152016200062f565b9262000699620005ff9593620006a89360018060a01b031686526000602087015260a0604087015260a0860190620005a0565b908482036060860152620005a0565b91608081840391015262000624565b3d15620006f5573d906001600160401b038211620001545760405191620006e9601f8201601f19166020018462000130565b82523d6000602084013e565b606090565b9293919093843b6200070e575b5050505050565b60209162000733604051948593849363bc197c8160e01b988986526004860162000666565b038160006001600160a01b0388165af160009181620007cf575b506200079057826200075e620006b7565b80519190826200078957604051632bfa23e760e11b81526001600160a01b0383166004820152602490fd5b9050602001fd5b6001600160e01b03191603620007ac5750388080808062000707565b604051632bfa23e760e11b81526001600160a01b03919091166004820152602490fd5b620007f791925060203d602011620007ff575b620007ee818362000130565b81019062000602565b90386200074d565b503d620007e2565b909260a092620005ff9594600180861b031683526000602084015260408301526060820152816080820152019062000624565b9293919093843b6200084d575050505050565b60209162000733604051948593849363f23a6e6160e01b98898652600486016200080756fe6080604052600436101561001257600080fd5b60003560e01c8062fdd58e1461015157806301ffc9a71461014c5780630e89341c1461010b57806310ca7d1c1461014757806323a418b0146101425780632eb2c2d61461013d5780634e1273f414610138578063715018a614610133578063862440e21461012e5780638da5cb5b1461012957806391b7f5ed14610124578063a035b1fe1461011f578063a22cb4651461011a578063b3e089a214610115578063c8449b6514610110578063c87b56dd1461010b578063e985e9c514610106578063f242432a14610101578063f2fde38b146100fc5763fe275280146100f757600080fd5b610d37565b610caf565b610b9a565b610b3d565b6102a8565b610ae7565b610aa4565b6109e6565b6109be565b61099d565b610974565b610849565b6107e8565b61072e565b610606565b610452565b610383565b6101fa565b61019b565b600435906001600160a01b038216820361016c57565b600080fd5b602435906001600160a01b038216820361016c57565b35906001600160a01b038216820361016c57565b3461016c57604036600319011261016c5760206101df6101b9610156565b6024356000526000835260406000209060018060a01b0316600052602052604060002090565b54604051908152f35b6001600160e01b031981160361016c57565b3461016c57602036600319011261016c576020600435610219816101e8565b63ffffffff60e01b16636cdb3d1360e11b8114908115610257575b8115610246575b506040519015158152f35b6301ffc9a760e01b1490503861023b565b6303a24d0760e21b81149150610234565b919082519283825260005b848110610294575050826000602080949584010152601f8019910116010190565b602081830181015184830182015201610273565b3461016c5760208060031936011261016c5760009060043582526006815260408220604051838194908354906102dd82610b03565b948585526001928760018216918260001461035f575050600114610323575b50505061030b925003836103b5565b61031f604051928284938452830190610268565b0390f35b869350819291528282205b85831061034757505061030b93508201013880806102fc565b8054838901850152879450869390920191810161032e565b93509450505061030b94915060ff191682840152151560051b8201013880806102fc565b3461016c57600036600319011261016c57602060405160028152f35b634e487b7160e01b600052604160045260246000fd5b90601f801991011681019081106001600160401b038211176103d657604052565b61039f565b6001600160401b0381116103d65760051b60200190565b9080601f8301121561016c57602090823561040c816103db565b9361041a60405195866103b5565b81855260208086019260051b82010192831161016c57602001905b828210610443575050505090565b81358152908301908301610435565b3461016c57604036600319011261016c576001600160401b0360043581811161016c576104839036906004016103f2565b9060243590811161016c5761049c9036906004016103f2565b60009190825b81518410156104ca576104c26001916104bb8685610d53565b5190610d93565b9301926104a2565b60055461053694506020906001600160a01b03166003546004546001600160a01b039491851692916104fb91610da5565b6040516323b872dd60e01b81523360048201526001600160a01b03909316602484015260448301529095869190829060009082906064820190565b03925af19384156105915761056094610562575b506003541691610558610dd9565b923390610f11565b005b6105839060203d60201161058a575b61057b81836103b5565b810190610db8565b503861054a565b503d610571565b610dcd565b6001600160401b0381116103d657601f01601f191660200190565b9291926105bd82610596565b916105cb60405193846103b5565b82948184528183011161016c578281602093846000960137010152565b9080601f8301121561016c57816020610603933591016105b1565b90565b3461016c5760a036600319011261016c5761061f610156565b610627610171565b6001600160401b0360443581811161016c576106479036906004016103f2565b60643582811161016c5761065f9036906004016103f2565b9160843590811161016c576106789036906004016105e8565b926001600160a01b0385163381141590816106c3575b5061069c5761056094610f11565b60405163711bec9160e11b81523360048201526001600160a01b0386166024820152604490fd5b6000908152600160209081526040808320338452909152902060ff91505416153861068e565b90815180825260208080930193019160005b828110610709575050505090565b8351855293810193928101926001016106fb565b9060206106039281815201906106e9565b3461016c57604036600319011261016c576004356001600160401b0380821161016c573660238301121561016c57816004013561076a816103db565b9261077860405194856103b5565b8184526020916024602086019160051b8301019136831161016c57602401905b8282106107d1578560243586811161016c5761031f916107bf6107c59236906004016103f2565b90610dfc565b6040519182918261071d565b8380916107dd84610187565b815201910190610798565b3461016c5760008060031936011261084657610802610f37565b600380546001600160a01b0319811690915581906001600160a01b03167f8be0079c531659141344cd1fd0a4f28419497f9722a3daafe3b4186f6b6457e08280a380f35b80fd5b3461016c57604036600319011261016c576001600160401b0360243581811161016c573660238201121561016c5761088b9036906024816004013591016105b1565b90610894610f37565b60009060043582526020906006602052604083209184519182116103d6576108c6826108c08554610b03565b85610ebb565b602090601f83116001146109095750819084956108f99495926108fe575b50508160011b916000199060031b1c19161790565b905580f35b0151905038806108e4565b90601f1983169561091f85600052602060002090565b9286905b88821061095c57505083600195969710610943575b505050811b01905580f35b015160001960f88460031b161c19169055388080610938565b80600185968294968601518155019501930190610923565b3461016c57600036600319011261016c576003546040516001600160a01b039091168152602090f35b3461016c57602036600319011261016c576109b6610f37565b600480359055005b3461016c57600036600319011261016c576020600454604051908152f35b8015150361016c57565b3461016c57604036600319011261016c576109ff610156565b602435610a0b816109dc565b6001600160a01b038216918215610a8c573360009081526001602090815260408083206001600160a01b0390941683529290522060ff1981541660ff831515161790557f17307eab39ab6107e8899845ad3d59bd9653f200f220920489ca2b5937696c3160405180610a87339482919091602081019215159052565b0390a3005b60405162ced3e160e81b815260006004820152602490fd5b3461016c57602036600319011261016c57610abd610156565b610ac5610f37565b600580546001600160a01b0319166001600160a01b0392909216919091179055005b3461016c57600036600319011261016c57602060405160008152f35b90600182811c92168015610b33575b6020831014610b1d57565b634e487b7160e01b600052602260045260246000fd5b91607f1691610b12565b3461016c57604036600319011261016c57602060ff610b8e610b5d610156565b610b65610171565b6001600160a01b0391821660009081526001865260408082209290931681526020919091522090565b54166040519015158152f35b3461016c5760a036600319011261016c57610bb3610156565b610bbb610171565b906084356001600160401b03811161016c57610bdb9036906004016105e8565b906001600160a01b03808216903382141580610c8b575b610c6457841615610c4b5715610c33576105609260405190600182526044356020830152604082019260018452606435606084015260808301604052610f63565b604051626a0d4560e21b815260006004820152602490fd5b604051632bfa23e760e11b815260006004820152602490fd5b60405163711bec9160e11b81523360048201526001600160a01b0384166024820152604490fd5b50600082815260016020908152604080832033845290915290205460ff1615610bf2565b3461016c57602036600319011261016c57610cc8610156565b610cd0610f37565b6001600160a01b03908116908115610d1e57600380546001600160a01b031981168417909155167f8be0079c531659141344cd1fd0a4f28419497f9722a3daafe3b4186f6b6457e0600080a3005b604051631e4fbdf760e01b815260006004820152602490fd5b3461016c57600036600319011261016c57602060405160018152f35b8051821015610d675760209160051b010190565b634e487b7160e01b600052603260045260246000fd5b634e487b7160e01b600052601160045260246000fd5b91908201809211610da057565b610d7d565b81810292918115918404141715610da057565b9081602091031261016c5751610603816109dc565b6040513d6000823e3d90fd5b60405190602082018281106001600160401b038211176103d65760405260008252565b91909180518351808203610e99575050805190610e31610e1b836103db565b92610e2960405194856103b5565b8084526103db565b60209190601f1901368484013760005b8151811015610e9157600581901b8281018401519087018401516000908152602081815260408083206001600160a01b039094168352929052205460019190610e8a8287610d53565b5201610e41565b509193505050565b604051635b05999160e01b815260048101919091526024810191909152604490fd5b90601f8111610ec957505050565b6000916000526020600020906020601f850160051c83019410610f07575b601f0160051c01915b828110610efc57505050565b818155600101610ef0565b9092508290610ee7565b939291906001600160a01b0380821615610c4b57851615610c3357610f3594610f63565b565b6003546001600160a01b03163303610f4b57565b60405163118cdaa760e01b8152336004820152602490fd5b949190918151845190818103610e9957505060005b825181101561108557600581901b83810160209081015191870101516001600160a01b03929186908a8516610fff575b6001948216610fbb575b50505001610f78565b610ff591610fd6610fed926000526000602052604060002090565b9060018060a01b0316600052602052604060002090565b918254610d93565b9055388581610fb2565b919293905061101c8a610fd6846000526000602052604060002090565b5483811061104e57918791846001969594036110468d610fd6856000526000602052604060002090565b559450610fa8565b6040516303dee4c560e01b81526001600160a01b038c16600482015260248101919091526044810184905260648101839052608490fd5b509491939290936001855114600014611130576020858101518382015160408051928352928201526001600160a01b03838116929086169133917fc3d58168c5ae7397731d063d5bbf3d657854427343f4c083240f7aacaa2d0f6291a45b6001600160a01b0381166110f9575b5050505050565b845160010361111f576020806111159601519201519233611365565b38808080806110f2565b61112b94919233611233565b611115565b6040516001600160a01b03828116919085169033907f4a39dc06d4c0dbc64b70af90fd698a233a518aa5d07e595d983b8c0526c8f7fb9080611173888c8361117b565b0390a46110e3565b9091611192610603936040845260408401906106e9565b9160208184039101526106e9565b9081602091031261016c5751610603816101e8565b939061060395936111e7916111f59460018060a01b03809216885216602087015260a0604087015260a08601906106e9565b9084820360608601526106e9565b916080818403910152610268565b3d1561122e573d9061121482610596565b9161122260405193846103b5565b82523d6000602084013e565b606090565b939290949194853b611248575b505050505050565b61126b602093604051958694859463bc197c8160e01b998a8752600487016111b5565b038160006001600160a01b0388165af160009181611301575b506112c35782611292611203565b80519190826112bc57604051632bfa23e760e11b81526001600160a01b0383166004820152602490fd5b9050602001fd5b6001600160e01b031916036112de5750388080808080611240565b604051632bfa23e760e11b81526001600160a01b03919091166004820152602490fd5b61132491925060203d60201161132b575b61131c81836103b5565b8101906111a0565b9038611284565b503d611312565b919261060395949160a094600180871b038092168552166020840152604083015260608201528160808201520190610268565b939290949194853b61137957505050505050565b61126b602093604051958694859463f23a6e6160e01b998a87526004870161133256fea26469706673582212206bd024bdc858cb020aba4ecbc882061ab49ca718f64cdc83d1fd94e333839d8564736f6c63430008180033c3d58168c5ae7397731d063d5bbf3d657854427343f4c083240f7aacaa2d0f62","opcodes":"PUSH1 0x80 PUSH1 0x40 MSTORE CALLVALUE PUSH3 0x115 JUMPI PUSH3 0x15 PUSH1 0xA0 PUSH1 0x40 MSTORE JUMP JUMPDEST PUSH1 0x0 PUSH1 0x80 MSTORE PUSH1 0x2 SLOAD PUSH1 0x1 DUP2 DUP2 SHR SWAP2 AND DUP1 ISZERO PUSH3 0x10A JUMPI JUMPDEST PUSH1 0x20 DUP3 LT EQ PUSH3 0xF4 JUMPI PUSH3 0x41 SWAP1 PUSH3 0x540 JUMP JUMPDEST PUSH1 0x0 PUSH1 0x2 SSTORE CALLER ISZERO PUSH3 0xDB JUMPI PUSH3 0x58 CALLER PUSH3 0x4F7 JUMP JUMPDEST PUSH1 0x5 DUP1 SLOAD PUSH1 0x1 PUSH1 0x1 PUSH1 0xA0 SHL SUB NOT AND PUSH20 0x36CBD53842C5426634E7929541EC2318F3DCF7E OR SWAP1 SSTORE PUSH3 0x93 PUSH3 0x8C PUSH3 0x15A JUMP JUMPDEST CALLER PUSH3 0x17E JUMP JUMPDEST PUSH3 0xA8 PUSH3 0xA1 PUSH3 0x15A JUMP JUMPDEST CALLER PUSH3 0x32E JUMP JUMPDEST PUSH3 0xBD PUSH3 0xB6 PUSH3 0x15A JUMP JUMPDEST CALLER PUSH3 0x412 JUMP JUMPDEST PUSH3 0xCB PUSH4 0x3B9ACA00 PUSH1 0x4 SSTORE JUMP JUMPDEST PUSH1 0x40 MLOAD PUSH2 0x13D2 SWAP1 DUP2 PUSH3 0x873 DUP3 CODECOPY RETURN JUMPDEST PUSH1 0x40 MLOAD PUSH4 0x1E4FBDF7 PUSH1 0xE0 SHL DUP2 MSTORE PUSH1 0x0 PUSH1 0x4 DUP3 ADD MSTORE PUSH1 0x24 SWAP1 REVERT JUMPDEST PUSH4 0x4E487B71 PUSH1 0xE0 SHL PUSH1 0x0 MSTORE PUSH1 0x22 PUSH1 0x4 MSTORE PUSH1 0x24 PUSH1 0x0 REVERT JUMPDEST SWAP1 PUSH1 0x7F AND SWAP1 PUSH3 0x2C JUMP JUMPDEST PUSH1 0x0 DUP1 REVERT JUMPDEST PUSH4 0x4E487B71 PUSH1 0xE0 SHL PUSH1 0x0 MSTORE PUSH1 0x41 PUSH1 0x4 MSTORE PUSH1 0x24 PUSH1 0x0 REVERT JUMPDEST PUSH1 0x1F SWAP1 SWAP2 ADD PUSH1 0x1F NOT AND DUP2 ADD SWAP1 PUSH1 0x1 PUSH1 0x1 PUSH1 0x40 SHL SUB DUP3 GT SWAP1 DUP3 LT OR PUSH3 0x154 JUMPI PUSH1 0x40 MSTORE JUMP JUMPDEST PUSH3 0x11A JUMP JUMPDEST PUSH1 0x40 MLOAD SWAP1 PUSH1 0x20 DUP3 ADD PUSH1 0x1 PUSH1 0x1 PUSH1 0x40 SHL SUB DUP2 GT DUP4 DUP3 LT OR PUSH3 0x154 JUMPI PUSH1 0x40 MSTORE PUSH1 0x0 DUP3 MSTORE JUMP JUMPDEST PUSH1 0x1 PUSH1 0x1 PUSH1 0xA0 SHL SUB DUP2 AND SWAP2 SWAP1 DUP3 ISZERO PUSH3 0x315 JUMPI PUSH1 0x40 MLOAD PUSH1 0x1 SWAP4 DUP5 DUP3 MSTORE PUSH1 0x20 SWAP2 PUSH1 0x20 DUP2 ADD SWAP6 PUSH1 0x0 DUP8 MSTORE PUSH1 0x40 DUP3 ADD SWAP3 DUP2 DUP5 MSTORE PUSH1 0x60 SWAP5 PUSH1 0x60 DUP5 ADD SWAP6 PUSH1 0x64 DUP8 MSTORE PUSH1 0x80 DUP6 ADD DUP1 PUSH1 0x40 MSTORE DUP6 MLOAD DUP8 MLOAD DUP1 DUP3 SUB PUSH3 0x2F9 JUMPI POP POP POP SWAP1 DUP4 SWAP2 DUP3 PUSH1 0x0 SWAP1 JUMPDEST PUSH3 0x291 JUMPI JUMPDEST POP POP POP DUP4 MLOAD EQ PUSH1 0x0 EQ PUSH3 0x252 JUMPI PUSH1 0x0 DUP9 MLOAD PUSH1 0x0 DUP1 MLOAD PUSH1 0x20 PUSH3 0x1C45 DUP4 CODECOPY DUP2 MLOAD SWAP2 MSTORE PUSH3 0x222 DUP9 MLOAD PUSH1 0x40 MLOAD SWAP2 DUP3 SWAP2 CALLER SWAP6 DUP4 PUSH1 0x20 SWAP1 SWAP4 SWAP3 SWAP2 SWAP4 PUSH1 0x40 DUP2 ADD SWAP5 DUP2 MSTORE ADD MSTORE JUMP JUMPDEST SUB SWAP1 LOG4 JUMPDEST DUP2 MLOAD SUB PUSH3 0x242 JUMPI POP POP PUSH3 0x240 SWAP4 MLOAD SWAP1 MLOAD SWAP2 CALLER PUSH3 0x83A JUMP JUMPDEST JUMP JUMPDEST SWAP2 POP SWAP2 PUSH3 0x240 SWAP5 POP CALLER PUSH3 0x6FA JUMP JUMPDEST PUSH1 0x0 PUSH1 0x40 MLOAD PUSH32 0x4A39DC06D4C0DBC64B70AF90FD698A233A518AA5D07E595D983B8C0526C8F7FB CALLER SWAP2 DUP1 PUSH3 0x288 DUP10 DUP10 DUP4 PUSH3 0x5D6 JUMP JUMPDEST SUB SWAP1 LOG4 PUSH3 0x226 JUMP JUMPDEST DUP7 MLOAD DUP2 LT ISZERO PUSH3 0x2F3 JUMPI DUP1 DUP5 SWAP2 PUSH1 0x5 SHL DUP9 ADD PUSH3 0x2E9 PUSH3 0x2E0 DUP14 PUSH3 0x2C9 DUP8 DUP10 DUP7 ADD MLOAD SWAP6 ADD MLOAD SWAP5 PUSH1 0x0 MSTORE PUSH1 0x0 PUSH1 0x20 MSTORE PUSH1 0x40 PUSH1 0x0 KECCAK256 SWAP1 JUMP JUMPDEST SWAP1 PUSH1 0x1 DUP1 PUSH1 0xA0 SHL SUB AND PUSH1 0x0 MSTORE PUSH1 0x20 MSTORE PUSH1 0x40 PUSH1 0x0 KECCAK256 SWAP1 JUMP JUMPDEST SWAP2 DUP3 SLOAD PUSH3 0x57C JUMP JUMPDEST SWAP1 SSTORE ADD DUP4 PUSH3 0x1D9 JUMP JUMPDEST PUSH3 0x1DF JUMP JUMPDEST PUSH4 0x5B059991 PUSH1 0xE0 SHL DUP4 MSTORE PUSH1 0x84 DUP9 ADD SWAP2 SWAP1 SWAP2 MSTORE PUSH1 0xA4 DUP8 ADD MSTORE PUSH1 0x44 SWAP1 REVERT JUMPDEST PUSH1 0x40 MLOAD PUSH4 0x2BFA23E7 PUSH1 0xE1 SHL DUP2 MSTORE PUSH1 0x0 PUSH1 0x4 DUP3 ADD MSTORE PUSH1 0x24 SWAP1 REVERT JUMPDEST PUSH1 0x1 PUSH1 0x1 PUSH1 0xA0 SHL SUB DUP2 AND SWAP2 SWAP1 DUP3 ISZERO PUSH3 0x315 JUMPI PUSH1 0x40 MLOAD PUSH1 0x1 SWAP4 DUP5 DUP3 MSTORE PUSH1 0x20 SWAP2 PUSH1 0x20 DUP2 ADD SWAP6 DUP1 DUP8 MSTORE PUSH1 0x40 DUP3 ADD SWAP3 DUP2 DUP5 MSTORE PUSH1 0x60 SWAP5 PUSH1 0x60 DUP5 ADD SWAP6 PUSH1 0x64 DUP8 MSTORE PUSH1 0x80 DUP6 ADD DUP1 PUSH1 0x40 MSTORE DUP6 MLOAD DUP8 MLOAD DUP1 DUP3 SUB PUSH3 0x2F9 JUMPI POP POP POP SWAP1 DUP4 SWAP2 DUP3 PUSH1 0x0 SWAP1 JUMPDEST PUSH3 0x3D0 JUMPI POP POP POP DUP4 MLOAD EQ PUSH1 0x0 EQ PUSH3 0x252 JUMPI PUSH1 0x0 DUP9 MLOAD PUSH1 0x0 DUP1 MLOAD PUSH1 0x20 PUSH3 0x1C45 DUP4 CODECOPY DUP2 MLOAD SWAP2 MSTORE PUSH3 0x222 DUP9 MLOAD PUSH1 0x40 MLOAD SWAP2 DUP3 SWAP2 CALLER SWAP6 DUP4 PUSH1 0x20 SWAP1 SWAP4 SWAP3 SWAP2 SWAP4 PUSH1 0x40 DUP2 ADD SWAP5 DUP2 MSTORE ADD MSTORE JUMP JUMPDEST DUP7 MLOAD DUP2 LT ISZERO PUSH3 0x2F3 JUMPI DUP1 DUP5 SWAP2 PUSH1 0x5 SHL DUP9 ADD PUSH3 0x408 PUSH3 0x2E0 DUP14 PUSH3 0x2C9 DUP8 DUP10 DUP7 ADD MLOAD SWAP6 ADD MLOAD SWAP5 PUSH1 0x0 MSTORE PUSH1 0x0 PUSH1 0x20 MSTORE PUSH1 0x40 PUSH1 0x0 KECCAK256 SWAP1 JUMP JUMPDEST SWAP1 SSTORE ADD DUP4 PUSH3 0x388 JUMP JUMPDEST PUSH1 0x1 PUSH1 0x1 PUSH1 0xA0 SHL SUB DUP2 AND SWAP2 SWAP1 DUP3 ISZERO PUSH3 0x315 JUMPI PUSH1 0x40 MLOAD PUSH1 0x1 SWAP4 DUP5 DUP3 MSTORE PUSH1 0x20 SWAP2 PUSH1 0x20 DUP2 ADD SWAP6 PUSH1 0x2 DUP8 MSTORE PUSH1 0x40 DUP3 ADD SWAP3 DUP2 DUP5 MSTORE PUSH1 0x60 SWAP5 PUSH1 0x60 DUP5 ADD SWAP6 PUSH1 0x64 DUP8 MSTORE PUSH1 0x80 DUP6 ADD DUP1 PUSH1 0x40 MSTORE DUP6 MLOAD DUP8 MLOAD DUP1 DUP3 SUB PUSH3 0x2F9 JUMPI POP POP POP SWAP1 DUP4 SWAP2 DUP3 PUSH1 0x0 SWAP1 JUMPDEST PUSH3 0x4B5 JUMPI POP POP POP DUP4 MLOAD EQ PUSH1 0x0 EQ PUSH3 0x252 JUMPI PUSH1 0x0 DUP9 MLOAD PUSH1 0x0 DUP1 MLOAD PUSH1 0x20 PUSH3 0x1C45 DUP4 CODECOPY DUP2 MLOAD SWAP2 MSTORE PUSH3 0x222 DUP9 MLOAD PUSH1 0x40 MLOAD SWAP2 DUP3 SWAP2 CALLER SWAP6 DUP4 PUSH1 0x20 SWAP1 SWAP4 SWAP3 SWAP2 SWAP4 PUSH1 0x40 DUP2 ADD SWAP5 DUP2 MSTORE ADD MSTORE JUMP JUMPDEST DUP7 MLOAD DUP2 LT ISZERO PUSH3 0x2F3 JUMPI DUP1 DUP5 SWAP2 PUSH1 0x5 SHL DUP9 ADD PUSH3 0x4ED PUSH3 0x2E0 DUP14 PUSH3 0x2C9 DUP8 DUP10 DUP7 ADD MLOAD SWAP6 ADD MLOAD SWAP5 PUSH1 0x0 MSTORE PUSH1 0x0 PUSH1 0x20 MSTORE PUSH1 0x40 PUSH1 0x0 KECCAK256 SWAP1 JUMP JUMPDEST SWAP1 SSTORE ADD DUP4 PUSH3 0x46D JUMP JUMPDEST PUSH1 0x3 DUP1 SLOAD PUSH1 0x1 PUSH1 0x1 PUSH1 0xA0 SHL SUB SWAP3 DUP4 AND PUSH1 0x1 PUSH1 0x1 PUSH1 0xA0 SHL SUB NOT DUP3 AND DUP2 OR SWAP1 SWAP3 SSTORE SWAP1 SWAP2 AND PUSH32 0x8BE0079C531659141344CD1FD0A4F28419497F9722A3DAAFE3B4186F6B6457E0 PUSH1 0x0 DUP1 LOG3 JUMP JUMPDEST PUSH1 0x1F DUP2 GT PUSH3 0x54C JUMPI POP JUMP JUMPDEST PUSH1 0x0 PUSH1 0x2 PUSH1 0x0 MSTORE PUSH1 0x1F PUSH1 0x20 PUSH1 0x0 KECCAK256 SWAP3 ADD PUSH1 0x5 SHR DUP3 ADD SWAP2 JUMPDEST DUP3 DUP2 LT PUSH3 0x570 JUMPI POP POP POP JUMP JUMPDEST DUP2 DUP2 SSTORE PUSH1 0x1 ADD PUSH3 0x563 JUMP JUMPDEST SWAP2 SWAP1 DUP3 ADD DUP1 SWAP3 GT PUSH3 0x58A JUMPI JUMP JUMPDEST PUSH4 0x4E487B71 PUSH1 0xE0 SHL PUSH1 0x0 MSTORE PUSH1 0x11 PUSH1 0x4 MSTORE PUSH1 0x24 PUSH1 0x0 REVERT JUMPDEST SWAP1 DUP2 MLOAD DUP1 DUP3 MSTORE PUSH1 0x20 DUP1 DUP1 SWAP4 ADD SWAP4 ADD SWAP2 PUSH1 0x0 JUMPDEST DUP3 DUP2 LT PUSH3 0x5C1 JUMPI POP POP POP POP SWAP1 JUMP JUMPDEST DUP4 MLOAD DUP6 MSTORE SWAP4 DUP2 ADD SWAP4 SWAP3 DUP2 ADD SWAP3 PUSH1 0x1 ADD PUSH3 0x5B2 JUMP JUMPDEST SWAP1 SWAP2 PUSH3 0x5F0 PUSH3 0x5FF SWAP4 PUSH1 0x40 DUP5 MSTORE PUSH1 0x40 DUP5 ADD SWAP1 PUSH3 0x5A0 JUMP JUMPDEST SWAP2 PUSH1 0x20 DUP2 DUP5 SUB SWAP2 ADD MSTORE PUSH3 0x5A0 JUMP JUMPDEST SWAP1 JUMP JUMPDEST SWAP1 DUP2 PUSH1 0x20 SWAP2 SUB SLT PUSH3 0x115 JUMPI MLOAD PUSH1 0x1 PUSH1 0x1 PUSH1 0xE0 SHL SUB NOT DUP2 AND DUP2 SUB PUSH3 0x115 JUMPI SWAP1 JUMP JUMPDEST SWAP2 SWAP1 DUP3 MLOAD SWAP3 DUP4 DUP3 MSTORE PUSH1 0x0 JUMPDEST DUP5 DUP2 LT PUSH3 0x651 JUMPI POP POP DUP3 PUSH1 0x0 PUSH1 0x20 DUP1 SWAP5 SWAP6 DUP5 ADD ADD MSTORE PUSH1 0x1F DUP1 NOT SWAP2 ADD AND ADD ADD SWAP1 JUMP JUMPDEST PUSH1 0x20 DUP2 DUP4 ADD DUP2 ADD MLOAD DUP5 DUP4 ADD DUP3 ADD MSTORE ADD PUSH3 0x62F JUMP JUMPDEST SWAP3 PUSH3 0x699 PUSH3 0x5FF SWAP6 SWAP4 PUSH3 0x6A8 SWAP4 PUSH1 0x1 DUP1 PUSH1 0xA0 SHL SUB AND DUP7 MSTORE PUSH1 0x0 PUSH1 0x20 DUP8 ADD MSTORE PUSH1 0xA0 PUSH1 0x40 DUP8 ADD MSTORE PUSH1 0xA0 DUP7 ADD SWAP1 PUSH3 0x5A0 JUMP JUMPDEST SWAP1 DUP5 DUP3 SUB PUSH1 0x60 DUP7 ADD MSTORE PUSH3 0x5A0 JUMP JUMPDEST SWAP2 PUSH1 0x80 DUP2 DUP5 SUB SWAP2 ADD MSTORE PUSH3 0x624 JUMP JUMPDEST RETURNDATASIZE ISZERO PUSH3 0x6F5 JUMPI RETURNDATASIZE SWAP1 PUSH1 0x1 PUSH1 0x1 PUSH1 0x40 SHL SUB DUP3 GT PUSH3 0x154 JUMPI PUSH1 0x40 MLOAD SWAP2 PUSH3 0x6E9 PUSH1 0x1F DUP3 ADD PUSH1 0x1F NOT AND PUSH1 0x20 ADD DUP5 PUSH3 0x130 JUMP JUMPDEST DUP3 MSTORE RETURNDATASIZE PUSH1 0x0 PUSH1 0x20 DUP5 ADD RETURNDATACOPY JUMP JUMPDEST PUSH1 0x60 SWAP1 JUMP JUMPDEST SWAP3 SWAP4 SWAP2 SWAP1 SWAP4 DUP5 EXTCODESIZE PUSH3 0x70E JUMPI JUMPDEST POP POP POP POP POP JUMP JUMPDEST PUSH1 0x20 SWAP2 PUSH3 0x733 PUSH1 0x40 MLOAD SWAP5 DUP6 SWAP4 DUP5 SWAP4 PUSH4 0xBC197C81 PUSH1 0xE0 SHL SWAP9 DUP10 DUP7 MSTORE PUSH1 0x4 DUP7 ADD PUSH3 0x666 JUMP JUMPDEST SUB DUP2 PUSH1 0x0 PUSH1 0x1 PUSH1 0x1 PUSH1 0xA0 SHL SUB DUP9 AND GAS CALL PUSH1 0x0 SWAP2 DUP2 PUSH3 0x7CF JUMPI JUMPDEST POP PUSH3 0x790 JUMPI DUP3 PUSH3 0x75E PUSH3 0x6B7 JUMP JUMPDEST DUP1 MLOAD SWAP2 SWAP1 DUP3 PUSH3 0x789 JUMPI PUSH1 0x40 MLOAD PUSH4 0x2BFA23E7 PUSH1 0xE1 SHL DUP2 MSTORE PUSH1 0x1 PUSH1 0x1 PUSH1 0xA0 SHL SUB DUP4 AND PUSH1 0x4 DUP3 ADD MSTORE PUSH1 0x24 SWAP1 REVERT JUMPDEST SWAP1 POP PUSH1 0x20 ADD REVERT JUMPDEST PUSH1 0x1 PUSH1 0x1 PUSH1 0xE0 SHL SUB NOT AND SUB PUSH3 0x7AC JUMPI POP CODESIZE DUP1 DUP1 DUP1 DUP1 PUSH3 0x707 JUMP JUMPDEST PUSH1 0x40 MLOAD PUSH4 0x2BFA23E7 PUSH1 0xE1 SHL DUP2 MSTORE PUSH1 0x1 PUSH1 0x1 PUSH1 0xA0 SHL SUB SWAP2 SWAP1 SWAP2 AND PUSH1 0x4 DUP3 ADD MSTORE PUSH1 0x24 SWAP1 REVERT JUMPDEST PUSH3 0x7F7 SWAP2 SWAP3 POP PUSH1 0x20 RETURNDATASIZE PUSH1 0x20 GT PUSH3 0x7FF JUMPI JUMPDEST PUSH3 0x7EE DUP2 DUP4 PUSH3 0x130 JUMP JUMPDEST DUP2 ADD SWAP1 PUSH3 0x602 JUMP JUMPDEST SWAP1 CODESIZE PUSH3 0x74D JUMP JUMPDEST POP RETURNDATASIZE PUSH3 0x7E2 JUMP JUMPDEST SWAP1 SWAP3 PUSH1 0xA0 SWAP3 PUSH3 0x5FF SWAP6 SWAP5 PUSH1 0x1 DUP1 DUP7 SHL SUB AND DUP4 MSTORE PUSH1 0x0 PUSH1 0x20 DUP5 ADD MSTORE PUSH1 0x40 DUP4 ADD MSTORE PUSH1 0x60 DUP3 ADD MSTORE DUP2 PUSH1 0x80 DUP3 ADD MSTORE ADD SWAP1 PUSH3 0x624 JUMP JUMPDEST SWAP3 SWAP4 SWAP2 SWAP1 SWAP4 DUP5 EXTCODESIZE PUSH3 0x84D JUMPI POP POP POP POP POP JUMP JUMPDEST PUSH1 0x20 SWAP2 PUSH3 0x733 PUSH1 0x40 MLOAD SWAP5 DUP6 SWAP4 DUP5 SWAP4 PUSH4 0xF23A6E61 PUSH1 0xE0 SHL SWAP9 DUP10 DUP7 MSTORE PUSH1 0x4 DUP7 ADD PUSH3 0x807 JUMP INVALID PUSH1 0x80 PUSH1 0x40 MSTORE PUSH1 0x4 CALLDATASIZE LT ISZERO PUSH2 0x12 JUMPI PUSH1 0x0 DUP1 REVERT JUMPDEST PUSH1 0x0 CALLDATALOAD PUSH1 0xE0 SHR DUP1 PUSH3 0xFDD58E EQ PUSH2 0x151 JUMPI DUP1 PUSH4 0x1FFC9A7 EQ PUSH2 0x14C JUMPI DUP1 PUSH4 0xE89341C EQ PUSH2 0x10B JUMPI DUP1 PUSH4 0x10CA7D1C EQ PUSH2 0x147 JUMPI DUP1 PUSH4 0x23A418B0 EQ PUSH2 0x142 JUMPI DUP1 PUSH4 0x2EB2C2D6 EQ PUSH2 0x13D JUMPI DUP1 PUSH4 0x4E1273F4 EQ PUSH2 0x138 JUMPI DUP1 PUSH4 0x715018A6 EQ PUSH2 0x133 JUMPI DUP1 PUSH4 0x862440E2 EQ PUSH2 0x12E JUMPI DUP1 PUSH4 0x8DA5CB5B EQ PUSH2 0x129 JUMPI DUP1 PUSH4 0x91B7F5ED EQ PUSH2 0x124 JUMPI DUP1 PUSH4 0xA035B1FE EQ PUSH2 0x11F JUMPI DUP1 PUSH4 0xA22CB465 EQ PUSH2 0x11A JUMPI DUP1 PUSH4 0xB3E089A2 EQ PUSH2 0x115 JUMPI DUP1 PUSH4 0xC8449B65 EQ PUSH2 0x110 JUMPI DUP1 PUSH4 0xC87B56DD EQ PUSH2 0x10B JUMPI DUP1 PUSH4 0xE985E9C5 EQ PUSH2 0x106 JUMPI DUP1 PUSH4 0xF242432A EQ PUSH2 0x101 JUMPI DUP1 PUSH4 0xF2FDE38B EQ PUSH2 0xFC JUMPI PUSH4 0xFE275280 EQ PUSH2 0xF7 JUMPI PUSH1 0x0 DUP1 REVERT JUMPDEST PUSH2 0xD37 JUMP JUMPDEST PUSH2 0xCAF JUMP JUMPDEST PUSH2 0xB9A JUMP JUMPDEST PUSH2 0xB3D JUMP JUMPDEST PUSH2 0x2A8 JUMP JUMPDEST PUSH2 0xAE7 JUMP JUMPDEST PUSH2 0xAA4 JUMP JUMPDEST PUSH2 0x9E6 JUMP JUMPDEST PUSH2 0x9BE JUMP JUMPDEST PUSH2 0x99D JUMP JUMPDEST PUSH2 0x974 JUMP JUMPDEST PUSH2 0x849 JUMP JUMPDEST PUSH2 0x7E8 JUMP JUMPDEST PUSH2 0x72E JUMP JUMPDEST PUSH2 0x606 JUMP JUMPDEST PUSH2 0x452 JUMP JUMPDEST PUSH2 0x383 JUMP JUMPDEST PUSH2 0x1FA JUMP JUMPDEST PUSH2 0x19B JUMP JUMPDEST PUSH1 0x4 CALLDATALOAD SWAP1 PUSH1 0x1 PUSH1 0x1 PUSH1 0xA0 SHL SUB DUP3 AND DUP3 SUB PUSH2 0x16C JUMPI JUMP JUMPDEST PUSH1 0x0 DUP1 REVERT JUMPDEST PUSH1 0x24 CALLDATALOAD SWAP1 PUSH1 0x1 PUSH1 0x1 PUSH1 0xA0 SHL SUB DUP3 AND DUP3 SUB PUSH2 0x16C JUMPI JUMP JUMPDEST CALLDATALOAD SWAP1 PUSH1 0x1 PUSH1 0x1 PUSH1 0xA0 SHL SUB DUP3 AND DUP3 SUB PUSH2 0x16C JUMPI JUMP JUMPDEST CALLVALUE PUSH2 0x16C JUMPI PUSH1 0x40 CALLDATASIZE PUSH1 0x3 NOT ADD SLT PUSH2 0x16C JUMPI PUSH1 0x20 PUSH2 0x1DF PUSH2 0x1B9 PUSH2 0x156 JUMP JUMPDEST PUSH1 0x24 CALLDATALOAD PUSH1 0x0 MSTORE PUSH1 0x0 DUP4 MSTORE PUSH1 0x40 PUSH1 0x0 KECCAK256 SWAP1 PUSH1 0x1 DUP1 PUSH1 0xA0 SHL SUB AND PUSH1 0x0 MSTORE PUSH1 0x20 MSTORE PUSH1 0x40 PUSH1 0x0 KECCAK256 SWAP1 JUMP JUMPDEST SLOAD PUSH1 0x40 MLOAD SWAP1 DUP2 MSTORE RETURN JUMPDEST PUSH1 0x1 PUSH1 0x1 PUSH1 0xE0 SHL SUB NOT DUP2 AND SUB PUSH2 0x16C JUMPI JUMP JUMPDEST CALLVALUE PUSH2 0x16C JUMPI PUSH1 0x20 CALLDATASIZE PUSH1 0x3 NOT ADD SLT PUSH2 0x16C JUMPI PUSH1 0x20 PUSH1 0x4 CALLDATALOAD PUSH2 0x219 DUP2 PUSH2 0x1E8 JUMP JUMPDEST PUSH4 0xFFFFFFFF PUSH1 0xE0 SHL AND PUSH4 0x6CDB3D13 PUSH1 0xE1 SHL DUP2 EQ SWAP1 DUP2 ISZERO PUSH2 0x257 JUMPI JUMPDEST DUP2 ISZERO PUSH2 0x246 JUMPI JUMPDEST POP PUSH1 0x40 MLOAD SWAP1 ISZERO ISZERO DUP2 MSTORE RETURN JUMPDEST PUSH4 0x1FFC9A7 PUSH1 0xE0 SHL EQ SWAP1 POP CODESIZE PUSH2 0x23B JUMP JUMPDEST PUSH4 0x3A24D07 PUSH1 0xE2 SHL DUP2 EQ SWAP2 POP PUSH2 0x234 JUMP JUMPDEST SWAP2 SWAP1 DUP3 MLOAD SWAP3 DUP4 DUP3 MSTORE PUSH1 0x0 JUMPDEST DUP5 DUP2 LT PUSH2 0x294 JUMPI POP POP DUP3 PUSH1 0x0 PUSH1 0x20 DUP1 SWAP5 SWAP6 DUP5 ADD ADD MSTORE PUSH1 0x1F DUP1 NOT SWAP2 ADD AND ADD ADD SWAP1 JUMP JUMPDEST PUSH1 0x20 DUP2 DUP4 ADD DUP2 ADD MLOAD DUP5 DUP4 ADD DUP3 ADD MSTORE ADD PUSH2 0x273 JUMP JUMPDEST CALLVALUE PUSH2 0x16C JUMPI PUSH1 0x20 DUP1 PUSH1 0x3 NOT CALLDATASIZE ADD SLT PUSH2 0x16C JUMPI PUSH1 0x0 SWAP1 PUSH1 0x4 CALLDATALOAD DUP3 MSTORE PUSH1 0x6 DUP2 MSTORE PUSH1 0x40 DUP3 KECCAK256 PUSH1 0x40 MLOAD DUP4 DUP2 SWAP5 SWAP1 DUP4 SLOAD SWAP1 PUSH2 0x2DD DUP3 PUSH2 0xB03 JUMP JUMPDEST SWAP5 DUP6 DUP6 MSTORE PUSH1 0x1 SWAP3 DUP8 PUSH1 0x1 DUP3 AND SWAP2 DUP3 PUSH1 0x0 EQ PUSH2 0x35F JUMPI POP POP PUSH1 0x1 EQ PUSH2 0x323 JUMPI JUMPDEST POP POP POP PUSH2 0x30B SWAP3 POP SUB DUP4 PUSH2 0x3B5 JUMP JUMPDEST PUSH2 0x31F PUSH1 0x40 MLOAD SWAP3 DUP3 DUP5 SWAP4 DUP5 MSTORE DUP4 ADD SWAP1 PUSH2 0x268 JUMP JUMPDEST SUB SWAP1 RETURN JUMPDEST DUP7 SWAP4 POP DUP2 SWAP3 SWAP2 MSTORE DUP3 DUP3 KECCAK256 JUMPDEST DUP6 DUP4 LT PUSH2 0x347 JUMPI POP POP PUSH2 0x30B SWAP4 POP DUP3 ADD ADD CODESIZE DUP1 DUP1 PUSH2 0x2FC JUMP JUMPDEST DUP1 SLOAD DUP4 DUP10 ADD DUP6 ADD MSTORE DUP8 SWAP5 POP DUP7 SWAP4 SWAP1 SWAP3 ADD SWAP2 DUP2 ADD PUSH2 0x32E JUMP JUMPDEST SWAP4 POP SWAP5 POP POP POP PUSH2 0x30B SWAP5 SWAP2 POP PUSH1 0xFF NOT AND DUP3 DUP5 ADD MSTORE ISZERO ISZERO PUSH1 0x5 SHL DUP3 ADD ADD CODESIZE DUP1 DUP1 PUSH2 0x2FC JUMP JUMPDEST CALLVALUE PUSH2 0x16C JUMPI PUSH1 0x0 CALLDATASIZE PUSH1 0x3 NOT ADD SLT PUSH2 0x16C JUMPI PUSH1 0x20 PUSH1 0x40 MLOAD PUSH1 0x2 DUP2 MSTORE RETURN JUMPDEST PUSH4 0x4E487B71 PUSH1 0xE0 SHL PUSH1 0x0 MSTORE PUSH1 0x41 PUSH1 0x4 MSTORE PUSH1 0x24 PUSH1 0x0 REVERT JUMPDEST SWAP1 PUSH1 0x1F DUP1 NOT SWAP2 ADD AND DUP2 ADD SWAP1 DUP2 LT PUSH1 0x1 PUSH1 0x1 PUSH1 0x40 SHL SUB DUP3 GT OR PUSH2 0x3D6 JUMPI PUSH1 0x40 MSTORE JUMP JUMPDEST PUSH2 0x39F JUMP JUMPDEST PUSH1 0x1 PUSH1 0x1 PUSH1 0x40 SHL SUB DUP2 GT PUSH2 0x3D6 JUMPI PUSH1 0x5 SHL PUSH1 0x20 ADD SWAP1 JUMP JUMPDEST SWAP1 DUP1 PUSH1 0x1F DUP4 ADD SLT ISZERO PUSH2 0x16C JUMPI PUSH1 0x20 SWAP1 DUP3 CALLDATALOAD PUSH2 0x40C DUP2 PUSH2 0x3DB JUMP JUMPDEST SWAP4 PUSH2 0x41A PUSH1 0x40 MLOAD SWAP6 DUP7 PUSH2 0x3B5 JUMP JUMPDEST DUP2 DUP6 MSTORE PUSH1 0x20 DUP1 DUP7 ADD SWAP3 PUSH1 0x5 SHL DUP3 ADD ADD SWAP3 DUP4 GT PUSH2 0x16C JUMPI PUSH1 0x20 ADD SWAP1 JUMPDEST DUP3 DUP3 LT PUSH2 0x443 JUMPI POP POP POP POP SWAP1 JUMP JUMPDEST DUP2 CALLDATALOAD DUP2 MSTORE SWAP1 DUP4 ADD SWAP1 DUP4 ADD PUSH2 0x435 JUMP JUMPDEST CALLVALUE PUSH2 0x16C JUMPI PUSH1 0x40 CALLDATASIZE PUSH1 0x3 NOT ADD SLT PUSH2 0x16C JUMPI PUSH1 0x1 PUSH1 0x1 PUSH1 0x40 SHL SUB PUSH1 0x4 CALLDATALOAD DUP2 DUP2 GT PUSH2 0x16C JUMPI PUSH2 0x483 SWAP1 CALLDATASIZE SWAP1 PUSH1 0x4 ADD PUSH2 0x3F2 JUMP JUMPDEST SWAP1 PUSH1 0x24 CALLDATALOAD SWAP1 DUP2 GT PUSH2 0x16C JUMPI PUSH2 0x49C SWAP1 CALLDATASIZE SWAP1 PUSH1 0x4 ADD PUSH2 0x3F2 JUMP JUMPDEST PUSH1 0x0 SWAP2 SWAP1 DUP3 JUMPDEST DUP2 MLOAD DUP5 LT ISZERO PUSH2 0x4CA JUMPI PUSH2 0x4C2 PUSH1 0x1 SWAP2 PUSH2 0x4BB DUP7 DUP6 PUSH2 0xD53 JUMP JUMPDEST MLOAD SWAP1 PUSH2 0xD93 JUMP JUMPDEST SWAP4 ADD SWAP3 PUSH2 0x4A2 JUMP JUMPDEST PUSH1 0x5 SLOAD PUSH2 0x536 SWAP5 POP PUSH1 0x20 SWAP1 PUSH1 0x1 PUSH1 0x1 PUSH1 0xA0 SHL SUB AND PUSH1 0x3 SLOAD PUSH1 0x4 SLOAD PUSH1 0x1 PUSH1 0x1 PUSH1 0xA0 SHL SUB SWAP5 SWAP2 DUP6 AND SWAP3 SWAP2 PUSH2 0x4FB SWAP2 PUSH2 0xDA5 JUMP JUMPDEST PUSH1 0x40 MLOAD PUSH4 0x23B872DD PUSH1 0xE0 SHL DUP2 MSTORE CALLER PUSH1 0x4 DUP3 ADD MSTORE PUSH1 0x1 PUSH1 0x1 PUSH1 0xA0 SHL SUB SWAP1 SWAP4 AND PUSH1 0x24 DUP5 ADD MSTORE PUSH1 0x44 DUP4 ADD MSTORE SWAP1 SWAP6 DUP7 SWAP2 SWAP1 DUP3 SWAP1 PUSH1 0x0 SWAP1 DUP3 SWAP1 PUSH1 0x64 DUP3 ADD SWAP1 JUMP JUMPDEST SUB SWAP3 GAS CALL SWAP4 DUP5 ISZERO PUSH2 0x591 JUMPI PUSH2 0x560 SWAP5 PUSH2 0x562 JUMPI JUMPDEST POP PUSH1 0x3 SLOAD AND SWAP2 PUSH2 0x558 PUSH2 0xDD9 JUMP JUMPDEST SWAP3 CALLER SWAP1 PUSH2 0xF11 JUMP JUMPDEST STOP JUMPDEST PUSH2 0x583 SWAP1 PUSH1 0x20 RETURNDATASIZE PUSH1 0x20 GT PUSH2 0x58A JUMPI JUMPDEST PUSH2 0x57B DUP2 DUP4 PUSH2 0x3B5 JUMP JUMPDEST DUP2 ADD SWAP1 PUSH2 0xDB8 JUMP JUMPDEST POP CODESIZE PUSH2 0x54A JUMP JUMPDEST POP RETURNDATASIZE PUSH2 0x571 JUMP JUMPDEST PUSH2 0xDCD JUMP JUMPDEST PUSH1 0x1 PUSH1 0x1 PUSH1 0x40 SHL SUB DUP2 GT PUSH2 0x3D6 JUMPI PUSH1 0x1F ADD PUSH1 0x1F NOT AND PUSH1 0x20 ADD SWAP1 JUMP JUMPDEST SWAP3 SWAP2 SWAP3 PUSH2 0x5BD DUP3 PUSH2 0x596 JUMP JUMPDEST SWAP2 PUSH2 0x5CB PUSH1 0x40 MLOAD SWAP4 DUP5 PUSH2 0x3B5 JUMP JUMPDEST DUP3 SWAP5 DUP2 DUP5 MSTORE DUP2 DUP4 ADD GT PUSH2 0x16C JUMPI DUP3 DUP2 PUSH1 0x20 SWAP4 DUP5 PUSH1 0x0 SWAP7 ADD CALLDATACOPY ADD ADD MSTORE JUMP JUMPDEST SWAP1 DUP1 PUSH1 0x1F DUP4 ADD SLT ISZERO PUSH2 0x16C JUMPI DUP2 PUSH1 0x20 PUSH2 0x603 SWAP4 CALLDATALOAD SWAP2 ADD PUSH2 0x5B1 JUMP JUMPDEST SWAP1 JUMP JUMPDEST CALLVALUE PUSH2 0x16C JUMPI PUSH1 0xA0 CALLDATASIZE PUSH1 0x3 NOT ADD SLT PUSH2 0x16C JUMPI PUSH2 0x61F PUSH2 0x156 JUMP JUMPDEST PUSH2 0x627 PUSH2 0x171 JUMP JUMPDEST PUSH1 0x1 PUSH1 0x1 PUSH1 0x40 SHL SUB PUSH1 0x44 CALLDATALOAD DUP2 DUP2 GT PUSH2 0x16C JUMPI PUSH2 0x647 SWAP1 CALLDATASIZE SWAP1 PUSH1 0x4 ADD PUSH2 0x3F2 JUMP JUMPDEST PUSH1 0x64 CALLDATALOAD DUP3 DUP2 GT PUSH2 0x16C JUMPI PUSH2 0x65F SWAP1 CALLDATASIZE SWAP1 PUSH1 0x4 ADD PUSH2 0x3F2 JUMP JUMPDEST SWAP2 PUSH1 0x84 CALLDATALOAD SWAP1 DUP2 GT PUSH2 0x16C JUMPI PUSH2 0x678 SWAP1 CALLDATASIZE SWAP1 PUSH1 0x4 ADD PUSH2 0x5E8 JUMP JUMPDEST SWAP3 PUSH1 0x1 PUSH1 0x1 PUSH1 0xA0 SHL SUB DUP6 AND CALLER DUP2 EQ ISZERO SWAP1 DUP2 PUSH2 0x6C3 JUMPI JUMPDEST POP PUSH2 0x69C JUMPI PUSH2 0x560 SWAP5 PUSH2 0xF11 JUMP JUMPDEST PUSH1 0x40 MLOAD PUSH4 0x711BEC91 PUSH1 0xE1 SHL DUP2 MSTORE CALLER PUSH1 0x4 DUP3 ADD MSTORE PUSH1 0x1 PUSH1 0x1 PUSH1 0xA0 SHL SUB DUP7 AND PUSH1 0x24 DUP3 ADD MSTORE PUSH1 0x44 SWAP1 REVERT JUMPDEST PUSH1 0x0 SWAP1 DUP2 MSTORE PUSH1 0x1 PUSH1 0x20 SWAP1 DUP2 MSTORE PUSH1 0x40 DUP1 DUP4 KECCAK256 CALLER DUP5 MSTORE SWAP1 SWAP2 MSTORE SWAP1 KECCAK256 PUSH1 0xFF SWAP2 POP SLOAD AND ISZERO CODESIZE PUSH2 0x68E JUMP JUMPDEST SWAP1 DUP2 MLOAD DUP1 DUP3 MSTORE PUSH1 0x20 DUP1 DUP1 SWAP4 ADD SWAP4 ADD SWAP2 PUSH1 0x0 JUMPDEST DUP3 DUP2 LT PUSH2 0x709 JUMPI POP POP POP POP SWAP1 JUMP JUMPDEST DUP4 MLOAD DUP6 MSTORE SWAP4 DUP2 ADD SWAP4 SWAP3 DUP2 ADD SWAP3 PUSH1 0x1 ADD PUSH2 0x6FB JUMP JUMPDEST SWAP1 PUSH1 0x20 PUSH2 0x603 SWAP3 DUP2 DUP2 MSTORE ADD SWAP1 PUSH2 0x6E9 JUMP JUMPDEST CALLVALUE PUSH2 0x16C JUMPI PUSH1 0x40 CALLDATASIZE PUSH1 0x3 NOT ADD SLT PUSH2 0x16C JUMPI PUSH1 0x4 CALLDATALOAD PUSH1 0x1 PUSH1 0x1 PUSH1 0x40 SHL SUB DUP1 DUP3 GT PUSH2 0x16C JUMPI CALLDATASIZE PUSH1 0x23 DUP4 ADD SLT ISZERO PUSH2 0x16C JUMPI DUP2 PUSH1 0x4 ADD CALLDATALOAD PUSH2 0x76A DUP2 PUSH2 0x3DB JUMP JUMPDEST SWAP3 PUSH2 0x778 PUSH1 0x40 MLOAD SWAP5 DUP6 PUSH2 0x3B5 JUMP JUMPDEST DUP2 DUP5 MSTORE PUSH1 0x20 SWAP2 PUSH1 0x24 PUSH1 0x20 DUP7 ADD SWAP2 PUSH1 0x5 SHL DUP4 ADD ADD SWAP2 CALLDATASIZE DUP4 GT PUSH2 0x16C JUMPI PUSH1 0x24 ADD SWAP1 JUMPDEST DUP3 DUP3 LT PUSH2 0x7D1 JUMPI DUP6 PUSH1 0x24 CALLDATALOAD DUP7 DUP2 GT PUSH2 0x16C JUMPI PUSH2 0x31F SWAP2 PUSH2 0x7BF PUSH2 0x7C5 SWAP3 CALLDATASIZE SWAP1 PUSH1 0x4 ADD PUSH2 0x3F2 JUMP JUMPDEST SWAP1 PUSH2 0xDFC JUMP JUMPDEST PUSH1 0x40 MLOAD SWAP2 DUP3 SWAP2 DUP3 PUSH2 0x71D JUMP JUMPDEST DUP4 DUP1 SWAP2 PUSH2 0x7DD DUP5 PUSH2 0x187 JUMP JUMPDEST DUP2 MSTORE ADD SWAP2 ADD SWAP1 PUSH2 0x798 JUMP JUMPDEST CALLVALUE PUSH2 0x16C JUMPI PUSH1 0x0 DUP1 PUSH1 0x3 NOT CALLDATASIZE ADD SLT PUSH2 0x846 JUMPI PUSH2 0x802 PUSH2 0xF37 JUMP JUMPDEST PUSH1 0x3 DUP1 SLOAD PUSH1 0x1 PUSH1 0x1 PUSH1 0xA0 SHL SUB NOT DUP2 AND SWAP1 SWAP2 SSTORE DUP2 SWAP1 PUSH1 0x1 PUSH1 0x1 PUSH1 0xA0 SHL SUB AND PUSH32 0x8BE0079C531659141344CD1FD0A4F28419497F9722A3DAAFE3B4186F6B6457E0 DUP3 DUP1 LOG3 DUP1 RETURN JUMPDEST DUP1 REVERT JUMPDEST CALLVALUE PUSH2 0x16C JUMPI PUSH1 0x40 CALLDATASIZE PUSH1 0x3 NOT ADD SLT PUSH2 0x16C JUMPI PUSH1 0x1 PUSH1 0x1 PUSH1 0x40 SHL SUB PUSH1 0x24 CALLDATALOAD DUP2 DUP2 GT PUSH2 0x16C JUMPI CALLDATASIZE PUSH1 0x23 DUP3 ADD SLT ISZERO PUSH2 0x16C JUMPI PUSH2 0x88B SWAP1 CALLDATASIZE SWAP1 PUSH1 0x24 DUP2 PUSH1 0x4 ADD CALLDATALOAD SWAP2 ADD PUSH2 0x5B1 JUMP JUMPDEST SWAP1 PUSH2 0x894 PUSH2 0xF37 JUMP JUMPDEST PUSH1 0x0 SWAP1 PUSH1 0x4 CALLDATALOAD DUP3 MSTORE PUSH1 0x20 SWAP1 PUSH1 0x6 PUSH1 0x20 MSTORE PUSH1 0x40 DUP4 KECCAK256 SWAP2 DUP5 MLOAD SWAP2 DUP3 GT PUSH2 0x3D6 JUMPI PUSH2 0x8C6 DUP3 PUSH2 0x8C0 DUP6 SLOAD PUSH2 0xB03 JUMP JUMPDEST DUP6 PUSH2 0xEBB JUMP JUMPDEST PUSH1 0x20 SWAP1 PUSH1 0x1F DUP4 GT PUSH1 0x1 EQ PUSH2 0x909 JUMPI POP DUP2 SWAP1 DUP5 SWAP6 PUSH2 0x8F9 SWAP5 SWAP6 SWAP3 PUSH2 0x8FE JUMPI JUMPDEST POP POP DUP2 PUSH1 0x1 SHL SWAP2 PUSH1 0x0 NOT SWAP1 PUSH1 0x3 SHL SHR NOT AND OR SWAP1 JUMP JUMPDEST SWAP1 SSTORE DUP1 RETURN JUMPDEST ADD MLOAD SWAP1 POP CODESIZE DUP1 PUSH2 0x8E4 JUMP JUMPDEST SWAP1 PUSH1 0x1F NOT DUP4 AND SWAP6 PUSH2 0x91F DUP6 PUSH1 0x0 MSTORE PUSH1 0x20 PUSH1 0x0 KECCAK256 SWAP1 JUMP JUMPDEST SWAP3 DUP7 SWAP1 JUMPDEST DUP9 DUP3 LT PUSH2 0x95C JUMPI POP POP DUP4 PUSH1 0x1 SWAP6 SWAP7 SWAP8 LT PUSH2 0x943 JUMPI JUMPDEST POP POP POP DUP2 SHL ADD SWAP1 SSTORE DUP1 RETURN JUMPDEST ADD MLOAD PUSH1 0x0 NOT PUSH1 0xF8 DUP5 PUSH1 0x3 SHL AND SHR NOT AND SWAP1 SSTORE CODESIZE DUP1 DUP1 PUSH2 0x938 JUMP JUMPDEST DUP1 PUSH1 0x1 DUP6 SWAP7 DUP3 SWAP5 SWAP7 DUP7 ADD MLOAD DUP2 SSTORE ADD SWAP6 ADD SWAP4 ADD SWAP1 PUSH2 0x923 JUMP JUMPDEST CALLVALUE PUSH2 0x16C JUMPI PUSH1 0x0 CALLDATASIZE PUSH1 0x3 NOT ADD SLT PUSH2 0x16C JUMPI PUSH1 0x3 SLOAD PUSH1 0x40 MLOAD PUSH1 0x1 PUSH1 0x1 PUSH1 0xA0 SHL SUB SWAP1 SWAP2 AND DUP2 MSTORE PUSH1 0x20 SWAP1 RETURN JUMPDEST CALLVALUE PUSH2 0x16C JUMPI PUSH1 0x20 CALLDATASIZE PUSH1 0x3 NOT ADD SLT PUSH2 0x16C JUMPI PUSH2 0x9B6 PUSH2 0xF37 JUMP JUMPDEST PUSH1 0x4 DUP1 CALLDATALOAD SWAP1 SSTORE STOP JUMPDEST CALLVALUE PUSH2 0x16C JUMPI PUSH1 0x0 CALLDATASIZE PUSH1 0x3 NOT ADD SLT PUSH2 0x16C JUMPI PUSH1 0x20 PUSH1 0x4 SLOAD PUSH1 0x40 MLOAD SWAP1 DUP2 MSTORE RETURN JUMPDEST DUP1 ISZERO ISZERO SUB PUSH2 0x16C JUMPI JUMP JUMPDEST CALLVALUE PUSH2 0x16C JUMPI PUSH1 0x40 CALLDATASIZE PUSH1 0x3 NOT ADD SLT PUSH2 0x16C JUMPI PUSH2 0x9FF PUSH2 0x156 JUMP JUMPDEST PUSH1 0x24 CALLDATALOAD PUSH2 0xA0B DUP2 PUSH2 0x9DC JUMP JUMPDEST PUSH1 0x1 PUSH1 0x1 PUSH1 0xA0 SHL SUB DUP3 AND SWAP2 DUP3 ISZERO PUSH2 0xA8C JUMPI CALLER PUSH1 0x0 SWAP1 DUP2 MSTORE PUSH1 0x1 PUSH1 0x20 SWAP1 DUP2 MSTORE PUSH1 0x40 DUP1 DUP4 KECCAK256 PUSH1 0x1 PUSH1 0x1 PUSH1 0xA0 SHL SUB SWAP1 SWAP5 AND DUP4 MSTORE SWAP3 SWAP1 MSTORE KECCAK256 PUSH1 0xFF NOT DUP2 SLOAD AND PUSH1 0xFF DUP4 ISZERO ISZERO AND OR SWAP1 SSTORE PUSH32 0x17307EAB39AB6107E8899845AD3D59BD9653F200F220920489CA2B5937696C31 PUSH1 0x40 MLOAD DUP1 PUSH2 0xA87 CALLER SWAP5 DUP3 SWAP2 SWAP1 SWAP2 PUSH1 0x20 DUP2 ADD SWAP3 ISZERO ISZERO SWAP1 MSTORE JUMP JUMPDEST SUB SWAP1 LOG3 STOP JUMPDEST PUSH1 0x40 MLOAD PUSH3 0xCED3E1 PUSH1 0xE8 SHL DUP2 MSTORE PUSH1 0x0 PUSH1 0x4 DUP3 ADD MSTORE PUSH1 0x24 SWAP1 REVERT JUMPDEST CALLVALUE PUSH2 0x16C JUMPI PUSH1 0x20 CALLDATASIZE PUSH1 0x3 NOT ADD SLT PUSH2 0x16C JUMPI PUSH2 0xABD PUSH2 0x156 JUMP JUMPDEST PUSH2 0xAC5 PUSH2 0xF37 JUMP JUMPDEST PUSH1 0x5 DUP1 SLOAD PUSH1 0x1 PUSH1 0x1 PUSH1 0xA0 SHL SUB NOT AND PUSH1 0x1 PUSH1 0x1 PUSH1 0xA0 SHL SUB SWAP3 SWAP1 SWAP3 AND SWAP2 SWAP1 SWAP2 OR SWAP1 SSTORE STOP JUMPDEST CALLVALUE PUSH2 0x16C JUMPI PUSH1 0x0 CALLDATASIZE PUSH1 0x3 NOT ADD SLT PUSH2 0x16C JUMPI PUSH1 0x20 PUSH1 0x40 MLOAD PUSH1 0x0 DUP2 MSTORE RETURN JUMPDEST SWAP1 PUSH1 0x1 DUP3 DUP2 SHR SWAP3 AND DUP1 ISZERO PUSH2 0xB33 JUMPI JUMPDEST PUSH1 0x20 DUP4 LT EQ PUSH2 0xB1D JUMPI JUMP JUMPDEST PUSH4 0x4E487B71 PUSH1 0xE0 SHL PUSH1 0x0 MSTORE PUSH1 0x22 PUSH1 0x4 MSTORE PUSH1 0x24 PUSH1 0x0 REVERT JUMPDEST SWAP2 PUSH1 0x7F AND SWAP2 PUSH2 0xB12 JUMP JUMPDEST CALLVALUE PUSH2 0x16C JUMPI PUSH1 0x40 CALLDATASIZE PUSH1 0x3 NOT ADD SLT PUSH2 0x16C JUMPI PUSH1 0x20 PUSH1 0xFF PUSH2 0xB8E PUSH2 0xB5D PUSH2 0x156 JUMP JUMPDEST PUSH2 0xB65 PUSH2 0x171 JUMP JUMPDEST PUSH1 0x1 PUSH1 0x1 PUSH1 0xA0 SHL SUB SWAP2 DUP3 AND PUSH1 0x0 SWAP1 DUP2 MSTORE PUSH1 0x1 DUP7 MSTORE PUSH1 0x40 DUP1 DUP3 KECCAK256 SWAP3 SWAP1 SWAP4 AND DUP2 MSTORE PUSH1 0x20 SWAP2 SWAP1 SWAP2 MSTORE KECCAK256 SWAP1 JUMP JUMPDEST SLOAD AND PUSH1 0x40 MLOAD SWAP1 ISZERO ISZERO DUP2 MSTORE RETURN JUMPDEST CALLVALUE PUSH2 0x16C JUMPI PUSH1 0xA0 CALLDATASIZE PUSH1 0x3 NOT ADD SLT PUSH2 0x16C JUMPI PUSH2 0xBB3 PUSH2 0x156 JUMP JUMPDEST PUSH2 0xBBB PUSH2 0x171 JUMP JUMPDEST SWAP1 PUSH1 0x84 CALLDATALOAD PUSH1 0x1 PUSH1 0x1 PUSH1 0x40 SHL SUB DUP2 GT PUSH2 0x16C JUMPI PUSH2 0xBDB SWAP1 CALLDATASIZE SWAP1 PUSH1 0x4 ADD PUSH2 0x5E8 JUMP JUMPDEST SWAP1 PUSH1 0x1 PUSH1 0x1 PUSH1 0xA0 SHL SUB DUP1 DUP3 AND SWAP1 CALLER DUP3 EQ ISZERO DUP1 PUSH2 0xC8B JUMPI JUMPDEST PUSH2 0xC64 JUMPI DUP5 AND ISZERO PUSH2 0xC4B JUMPI ISZERO PUSH2 0xC33 JUMPI PUSH2 0x560 SWAP3 PUSH1 0x40 MLOAD SWAP1 PUSH1 0x1 DUP3 MSTORE PUSH1 0x44 CALLDATALOAD PUSH1 0x20 DUP4 ADD MSTORE PUSH1 0x40 DUP3 ADD SWAP3 PUSH1 0x1 DUP5 MSTORE PUSH1 0x64 CALLDATALOAD PUSH1 0x60 DUP5 ADD MSTORE PUSH1 0x80 DUP4 ADD PUSH1 0x40 MSTORE PUSH2 0xF63 JUMP JUMPDEST PUSH1 0x40 MLOAD PUSH3 0x6A0D45 PUSH1 0xE2 SHL DUP2 MSTORE PUSH1 0x0 PUSH1 0x4 DUP3 ADD MSTORE PUSH1 0x24 SWAP1 REVERT JUMPDEST PUSH1 0x40 MLOAD PUSH4 0x2BFA23E7 PUSH1 0xE1 SHL DUP2 MSTORE PUSH1 0x0 PUSH1 0x4 DUP3 ADD MSTORE PUSH1 0x24 SWAP1 REVERT JUMPDEST PUSH1 0x40 MLOAD PUSH4 0x711BEC91 PUSH1 0xE1 SHL DUP2 MSTORE CALLER PUSH1 0x4 DUP3 ADD MSTORE PUSH1 0x1 PUSH1 0x1 PUSH1 0xA0 SHL SUB DUP5 AND PUSH1 0x24 DUP3 ADD MSTORE PUSH1 0x44 SWAP1 REVERT JUMPDEST POP PUSH1 0x0 DUP3 DUP2 MSTORE PUSH1 0x1 PUSH1 0x20 SWAP1 DUP2 MSTORE PUSH1 0x40 DUP1 DUP4 KECCAK256 CALLER DUP5 MSTORE SWAP1 SWAP2 MSTORE SWAP1 KECCAK256 SLOAD PUSH1 0xFF AND ISZERO PUSH2 0xBF2 JUMP JUMPDEST CALLVALUE PUSH2 0x16C JUMPI PUSH1 0x20 CALLDATASIZE PUSH1 0x3 NOT ADD SLT PUSH2 0x16C JUMPI PUSH2 0xCC8 PUSH2 0x156 JUMP JUMPDEST PUSH2 0xCD0 PUSH2 0xF37 JUMP JUMPDEST PUSH1 0x1 PUSH1 0x1 PUSH1 0xA0 SHL SUB SWAP1 DUP2 AND SWAP1 DUP2 ISZERO PUSH2 0xD1E JUMPI PUSH1 0x3 DUP1 SLOAD PUSH1 0x1 PUSH1 0x1 PUSH1 0xA0 SHL SUB NOT DUP2 AND DUP5 OR SWAP1 SWAP2 SSTORE AND PUSH32 0x8BE0079C531659141344CD1FD0A4F28419497F9722A3DAAFE3B4186F6B6457E0 PUSH1 0x0 DUP1 LOG3 STOP JUMPDEST PUSH1 0x40 MLOAD PUSH4 0x1E4FBDF7 PUSH1 0xE0 SHL DUP2 MSTORE PUSH1 0x0 PUSH1 0x4 DUP3 ADD MSTORE PUSH1 0x24 SWAP1 REVERT JUMPDEST CALLVALUE PUSH2 0x16C JUMPI PUSH1 0x0 CALLDATASIZE PUSH1 0x3 NOT ADD SLT PUSH2 0x16C JUMPI PUSH1 0x20 PUSH1 0x40 MLOAD PUSH1 0x1 DUP2 MSTORE RETURN JUMPDEST DUP1 MLOAD DUP3 LT ISZERO PUSH2 0xD67 JUMPI PUSH1 0x20 SWAP2 PUSH1 0x5 SHL ADD ADD SWAP1 JUMP JUMPDEST PUSH4 0x4E487B71 PUSH1 0xE0 SHL PUSH1 0x0 MSTORE PUSH1 0x32 PUSH1 0x4 MSTORE PUSH1 0x24 PUSH1 0x0 REVERT JUMPDEST PUSH4 0x4E487B71 PUSH1 0xE0 SHL PUSH1 0x0 MSTORE PUSH1 0x11 PUSH1 0x4 MSTORE PUSH1 0x24 PUSH1 0x0 REVERT JUMPDEST SWAP2 SWAP1 DUP3 ADD DUP1 SWAP3 GT PUSH2 0xDA0 JUMPI JUMP JUMPDEST PUSH2 0xD7D JUMP JUMPDEST DUP2 DUP2 MUL SWAP3 SWAP2 DUP2 ISZERO SWAP2 DUP5 DIV EQ OR ISZERO PUSH2 0xDA0 JUMPI JUMP JUMPDEST SWAP1 DUP2 PUSH1 0x20 SWAP2 SUB SLT PUSH2 0x16C JUMPI MLOAD PUSH2 0x603 DUP2 PUSH2 0x9DC JUMP JUMPDEST PUSH1 0x40 MLOAD RETURNDATASIZE PUSH1 0x0 DUP3 RETURNDATACOPY RETURNDATASIZE SWAP1 REVERT JUMPDEST PUSH1 0x40 MLOAD SWAP1 PUSH1 0x20 DUP3 ADD DUP3 DUP2 LT PUSH1 0x1 PUSH1 0x1 PUSH1 0x40 SHL SUB DUP3 GT OR PUSH2 0x3D6 JUMPI PUSH1 0x40 MSTORE PUSH1 0x0 DUP3 MSTORE JUMP JUMPDEST SWAP2 SWAP1 SWAP2 DUP1 MLOAD DUP4 MLOAD DUP1 DUP3 SUB PUSH2 0xE99 JUMPI POP POP DUP1 MLOAD SWAP1 PUSH2 0xE31 PUSH2 0xE1B DUP4 PUSH2 0x3DB JUMP JUMPDEST SWAP3 PUSH2 0xE29 PUSH1 0x40 MLOAD SWAP5 DUP6 PUSH2 0x3B5 JUMP JUMPDEST DUP1 DUP5 MSTORE PUSH2 0x3DB JUMP JUMPDEST PUSH1 0x20 SWAP2 SWAP1 PUSH1 0x1F NOT ADD CALLDATASIZE DUP5 DUP5 ADD CALLDATACOPY PUSH1 0x0 JUMPDEST DUP2 MLOAD DUP2 LT ISZERO PUSH2 0xE91 JUMPI PUSH1 0x5 DUP2 SWAP1 SHL DUP3 DUP2 ADD DUP5 ADD MLOAD SWAP1 DUP8 ADD DUP5 ADD MLOAD PUSH1 0x0 SWAP1 DUP2 MSTORE PUSH1 0x20 DUP2 DUP2 MSTORE PUSH1 0x40 DUP1 DUP4 KECCAK256 PUSH1 0x1 PUSH1 0x1 PUSH1 0xA0 SHL SUB SWAP1 SWAP5 AND DUP4 MSTORE SWAP3 SWAP1 MSTORE KECCAK256 SLOAD PUSH1 0x1 SWAP2 SWAP1 PUSH2 0xE8A DUP3 DUP8 PUSH2 0xD53 JUMP JUMPDEST MSTORE ADD PUSH2 0xE41 JUMP JUMPDEST POP SWAP2 SWAP4 POP POP POP JUMP JUMPDEST PUSH1 0x40 MLOAD PUSH4 0x5B059991 PUSH1 0xE0 SHL DUP2 MSTORE PUSH1 0x4 DUP2 ADD SWAP2 SWAP1 SWAP2 MSTORE PUSH1 0x24 DUP2 ADD SWAP2 SWAP1 SWAP2 MSTORE PUSH1 0x44 SWAP1 REVERT JUMPDEST SWAP1 PUSH1 0x1F DUP2 GT PUSH2 0xEC9 JUMPI POP POP POP JUMP JUMPDEST PUSH1 0x0 SWAP2 PUSH1 0x0 MSTORE PUSH1 0x20 PUSH1 0x0 KECCAK256 SWAP1 PUSH1 0x20 PUSH1 0x1F DUP6 ADD PUSH1 0x5 SHR DUP4 ADD SWAP5 LT PUSH2 0xF07 JUMPI JUMPDEST PUSH1 0x1F ADD PUSH1 0x5 SHR ADD SWAP2 JUMPDEST DUP3 DUP2 LT PUSH2 0xEFC JUMPI POP POP POP JUMP JUMPDEST DUP2 DUP2 SSTORE PUSH1 0x1 ADD PUSH2 0xEF0 JUMP JUMPDEST SWAP1 SWAP3 POP DUP3 SWAP1 PUSH2 0xEE7 JUMP JUMPDEST SWAP4 SWAP3 SWAP2 SWAP1 PUSH1 0x1 PUSH1 0x1 PUSH1 0xA0 SHL SUB DUP1 DUP3 AND ISZERO PUSH2 0xC4B JUMPI DUP6 AND ISZERO PUSH2 0xC33 JUMPI PUSH2 0xF35 SWAP5 PUSH2 0xF63 JUMP JUMPDEST JUMP JUMPDEST PUSH1 0x3 SLOAD PUSH1 0x1 PUSH1 0x1 PUSH1 0xA0 SHL SUB AND CALLER SUB PUSH2 0xF4B JUMPI JUMP JUMPDEST PUSH1 0x40 MLOAD PUSH4 0x118CDAA7 PUSH1 0xE0 SHL DUP2 MSTORE CALLER PUSH1 0x4 DUP3 ADD MSTORE PUSH1 0x24 SWAP1 REVERT JUMPDEST SWAP5 SWAP2 SWAP1 SWAP2 DUP2 MLOAD DUP5 MLOAD SWAP1 DUP2 DUP2 SUB PUSH2 0xE99 JUMPI POP POP PUSH1 0x0 JUMPDEST DUP3 MLOAD DUP2 LT ISZERO PUSH2 0x1085 JUMPI PUSH1 0x5 DUP2 SWAP1 SHL DUP4 DUP2 ADD PUSH1 0x20 SWAP1 DUP2 ADD MLOAD SWAP2 DUP8 ADD ADD MLOAD PUSH1 0x1 PUSH1 0x1 PUSH1 0xA0 SHL SUB SWAP3 SWAP2 DUP7 SWAP1 DUP11 DUP6 AND PUSH2 0xFFF JUMPI JUMPDEST PUSH1 0x1 SWAP5 DUP3 AND PUSH2 0xFBB JUMPI JUMPDEST POP POP POP ADD PUSH2 0xF78 JUMP JUMPDEST PUSH2 0xFF5 SWAP2 PUSH2 0xFD6 PUSH2 0xFED SWAP3 PUSH1 0x0 MSTORE PUSH1 0x0 PUSH1 0x20 MSTORE PUSH1 0x40 PUSH1 0x0 KECCAK256 SWAP1 JUMP JUMPDEST SWAP1 PUSH1 0x1 DUP1 PUSH1 0xA0 SHL SUB AND PUSH1 0x0 MSTORE PUSH1 0x20 MSTORE PUSH1 0x40 PUSH1 0x0 KECCAK256 SWAP1 JUMP JUMPDEST SWAP2 DUP3 SLOAD PUSH2 0xD93 JUMP JUMPDEST SWAP1 SSTORE CODESIZE DUP6 DUP2 PUSH2 0xFB2 JUMP JUMPDEST SWAP2 SWAP3 SWAP4 SWAP1 POP PUSH2 0x101C DUP11 PUSH2 0xFD6 DUP5 PUSH1 0x0 MSTORE PUSH1 0x0 PUSH1 0x20 MSTORE PUSH1 0x40 PUSH1 0x0 KECCAK256 SWAP1 JUMP JUMPDEST SLOAD DUP4 DUP2 LT PUSH2 0x104E JUMPI SWAP2 DUP8 SWAP2 DUP5 PUSH1 0x1 SWAP7 SWAP6 SWAP5 SUB PUSH2 0x1046 DUP14 PUSH2 0xFD6 DUP6 PUSH1 0x0 MSTORE PUSH1 0x0 PUSH1 0x20 MSTORE PUSH1 0x40 PUSH1 0x0 KECCAK256 SWAP1 JUMP JUMPDEST SSTORE SWAP5 POP PUSH2 0xFA8 JUMP JUMPDEST PUSH1 0x40 MLOAD PUSH4 0x3DEE4C5 PUSH1 0xE0 SHL DUP2 MSTORE PUSH1 0x1 PUSH1 0x1 PUSH1 0xA0 SHL SUB DUP13 AND PUSH1 0x4 DUP3 ADD MSTORE PUSH1 0x24 DUP2 ADD SWAP2 SWAP1 SWAP2 MSTORE PUSH1 0x44 DUP2 ADD DUP5 SWAP1 MSTORE PUSH1 0x64 DUP2 ADD DUP4 SWAP1 MSTORE PUSH1 0x84 SWAP1 REVERT JUMPDEST POP SWAP5 SWAP2 SWAP4 SWAP3 SWAP1 SWAP4 PUSH1 0x1 DUP6 MLOAD EQ PUSH1 0x0 EQ PUSH2 0x1130 JUMPI PUSH1 0x20 DUP6 DUP2 ADD MLOAD DUP4 DUP3 ADD MLOAD PUSH1 0x40 DUP1 MLOAD SWAP3 DUP4 MSTORE SWAP3 DUP3 ADD MSTORE PUSH1 0x1 PUSH1 0x1 PUSH1 0xA0 SHL SUB DUP4 DUP2 AND SWAP3 SWAP1 DUP7 AND SWAP2 CALLER SWAP2 PUSH32 0xC3D58168C5AE7397731D063D5BBF3D657854427343F4C083240F7AACAA2D0F62 SWAP2 LOG4 JUMPDEST PUSH1 0x1 PUSH1 0x1 PUSH1 0xA0 SHL SUB DUP2 AND PUSH2 0x10F9 JUMPI JUMPDEST POP POP POP POP POP JUMP JUMPDEST DUP5 MLOAD PUSH1 0x1 SUB PUSH2 0x111F JUMPI PUSH1 0x20 DUP1 PUSH2 0x1115 SWAP7 ADD MLOAD SWAP3 ADD MLOAD SWAP3 CALLER PUSH2 0x1365 JUMP JUMPDEST CODESIZE DUP1 DUP1 DUP1 DUP1 PUSH2 0x10F2 JUMP JUMPDEST PUSH2 0x112B SWAP5 SWAP2 SWAP3 CALLER PUSH2 0x1233 JUMP JUMPDEST PUSH2 0x1115 JUMP JUMPDEST PUSH1 0x40 MLOAD PUSH1 0x1 PUSH1 0x1 PUSH1 0xA0 SHL SUB DUP3 DUP2 AND SWAP2 SWAP1 DUP6 AND SWAP1 CALLER SWAP1 PUSH32 0x4A39DC06D4C0DBC64B70AF90FD698A233A518AA5D07E595D983B8C0526C8F7FB SWAP1 DUP1 PUSH2 0x1173 DUP9 DUP13 DUP4 PUSH2 0x117B JUMP JUMPDEST SUB SWAP1 LOG4 PUSH2 0x10E3 JUMP JUMPDEST SWAP1 SWAP2 PUSH2 0x1192 PUSH2 0x603 SWAP4 PUSH1 0x40 DUP5 MSTORE PUSH1 0x40 DUP5 ADD SWAP1 PUSH2 0x6E9 JUMP JUMPDEST SWAP2 PUSH1 0x20 DUP2 DUP5 SUB SWAP2 ADD MSTORE PUSH2 0x6E9 JUMP JUMPDEST SWAP1 DUP2 PUSH1 0x20 SWAP2 SUB SLT PUSH2 0x16C JUMPI MLOAD PUSH2 0x603 DUP2 PUSH2 0x1E8 JUMP JUMPDEST SWAP4 SWAP1 PUSH2 0x603 SWAP6 SWAP4 PUSH2 0x11E7 SWAP2 PUSH2 0x11F5 SWAP5 PUSH1 0x1 DUP1 PUSH1 0xA0 SHL SUB DUP1 SWAP3 AND DUP9 MSTORE AND PUSH1 0x20 DUP8 ADD MSTORE PUSH1 0xA0 PUSH1 0x40 DUP8 ADD MSTORE PUSH1 0xA0 DUP7 ADD SWAP1 PUSH2 0x6E9 JUMP JUMPDEST SWAP1 DUP5 DUP3 SUB PUSH1 0x60 DUP7 ADD MSTORE PUSH2 0x6E9 JUMP JUMPDEST SWAP2 PUSH1 0x80 DUP2 DUP5 SUB SWAP2 ADD MSTORE PUSH2 0x268 JUMP JUMPDEST RETURNDATASIZE ISZERO PUSH2 0x122E JUMPI RETURNDATASIZE SWAP1 PUSH2 0x1214 DUP3 PUSH2 0x596 JUMP JUMPDEST SWAP2 PUSH2 0x1222 PUSH1 0x40 MLOAD SWAP4 DUP5 PUSH2 0x3B5 JUMP JUMPDEST DUP3 MSTORE RETURNDATASIZE PUSH1 0x0 PUSH1 0x20 DUP5 ADD RETURNDATACOPY JUMP JUMPDEST PUSH1 0x60 SWAP1 JUMP JUMPDEST SWAP4 SWAP3 SWAP1 SWAP5 SWAP2 SWAP5 DUP6 EXTCODESIZE PUSH2 0x1248 JUMPI JUMPDEST POP POP POP POP POP POP JUMP JUMPDEST PUSH2 0x126B PUSH1 0x20 SWAP4 PUSH1 0x40 MLOAD SWAP6 DUP7 SWAP5 DUP6 SWAP5 PUSH4 0xBC197C81 PUSH1 0xE0 SHL SWAP10 DUP11 DUP8 MSTORE PUSH1 0x4 DUP8 ADD PUSH2 0x11B5 JUMP JUMPDEST SUB DUP2 PUSH1 0x0 PUSH1 0x1 PUSH1 0x1 PUSH1 0xA0 SHL SUB DUP9 AND GAS CALL PUSH1 0x0 SWAP2 DUP2 PUSH2 0x1301 JUMPI JUMPDEST POP PUSH2 0x12C3 JUMPI DUP3 PUSH2 0x1292 PUSH2 0x1203 JUMP JUMPDEST DUP1 MLOAD SWAP2 SWAP1 DUP3 PUSH2 0x12BC JUMPI PUSH1 0x40 MLOAD PUSH4 0x2BFA23E7 PUSH1 0xE1 SHL DUP2 MSTORE PUSH1 0x1 PUSH1 0x1 PUSH1 0xA0 SHL SUB DUP4 AND PUSH1 0x4 DUP3 ADD MSTORE PUSH1 0x24 SWAP1 REVERT JUMPDEST SWAP1 POP PUSH1 0x20 ADD REVERT JUMPDEST PUSH1 0x1 PUSH1 0x1 PUSH1 0xE0 SHL SUB NOT AND SUB PUSH2 0x12DE JUMPI POP CODESIZE DUP1 DUP1 DUP1 DUP1 DUP1 PUSH2 0x1240 JUMP JUMPDEST PUSH1 0x40 MLOAD PUSH4 0x2BFA23E7 PUSH1 0xE1 SHL DUP2 MSTORE PUSH1 0x1 PUSH1 0x1 PUSH1 0xA0 SHL SUB SWAP2 SWAP1 SWAP2 AND PUSH1 0x4 DUP3 ADD MSTORE PUSH1 0x24 SWAP1 REVERT JUMPDEST PUSH2 0x1324 SWAP2 SWAP3 POP PUSH1 0x20 RETURNDATASIZE PUSH1 0x20 GT PUSH2 0x132B JUMPI JUMPDEST PUSH2 0x131C DUP2 DUP4 PUSH2 0x3B5 JUMP JUMPDEST DUP2 ADD SWAP1 PUSH2 0x11A0 JUMP JUMPDEST SWAP1 CODESIZE PUSH2 0x1284 JUMP JUMPDEST POP RETURNDATASIZE PUSH2 0x1312 JUMP JUMPDEST SWAP2 SWAP3 PUSH2 0x603 SWAP6 SWAP5 SWAP2 PUSH1 0xA0 SWAP5 PUSH1 0x1 DUP1 DUP8 SHL SUB DUP1 SWAP3 AND DUP6 MSTORE AND PUSH1 0x20 DUP5 ADD MSTORE PUSH1 0x40 DUP4 ADD MSTORE PUSH1 0x60 DUP3 ADD MSTORE DUP2 PUSH1 0x80 DUP3 ADD MSTORE ADD SWAP1 PUSH2 0x268 JUMP JUMPDEST SWAP4 SWAP3 SWAP1 SWAP5 SWAP2 SWAP5 DUP6 EXTCODESIZE PUSH2 0x1379 JUMPI POP POP POP POP POP POP JUMP JUMPDEST PUSH2 0x126B PUSH1 0x20 SWAP4 PUSH1 0x40 MLOAD SWAP6 DUP7 SWAP5 DUP6 SWAP5 PUSH4 0xF23A6E61 PUSH1 0xE0 SHL SWAP10 DUP11 DUP8 MSTORE PUSH1 0x4 DUP8 ADD PUSH2 0x1332 JUMP INVALID LOG2 PUSH5 0x6970667358 0x22 SLT KECCAK256 PUSH12 0xD024BDC858CB020ABA4ECBC8 DUP3 MOD BYTE 0xB4 SWAP13 0xA7 XOR 0xF6 0x4C 0xDC DUP4 0xD1 REVERT SWAP5 0xE3 CALLER DUP4 SWAP14 DUP6 PUSH5 0x736F6C6343 STOP ADDMOD XOR STOP CALLER 0xC3 0xD5 DUP2 PUSH9 0xC5AE7397731D063D5B 0xBF RETURNDATASIZE PUSH6 0x7854427343F4 0xC0 DUP4 0x24 0xF PUSH27 0xACAA2D0F6200000000000000000000000000000000000000000000 "},"methodIdentifiers":{"Bronze()":"10ca7d1c","Gold()":"c8449b65","Silver()":"fe275280","balanceOf(address,uint256)":"00fdd58e","balanceOfBatch(address[],uint256[])":"4e1273f4","buyWithUSDC(uint256[],uint256[])":"23a418b0","isApprovedForAll(address,address)":"e985e9c5","owner()":"8da5cb5b","price()":"a035b1fe","renounceOwnership()":"715018a6","safeBatchTransferFrom(address,address,uint256[],uint256[],bytes)":"2eb2c2d6","safeTransferFrom(address,address,uint256,uint256,bytes)":"f242432a","setApprovalForAll(address,bool)":"a22cb465","setPrice(uint256)":"91b7f5ed","setURI(uint256,string)":"862440e2","setUSDC(address)":"b3e089a2","supportsInterface(bytes4)":"01ffc9a7","tokenURI(uint256)":"c87b56dd","transferOwnership(address)":"f2fde38b","uri(uint256)":"0e89341c"}}}}}