{"contracts/NFT.sol":{"CustomNFT":{"abi":[{"inputs":[{"internalType":"string","name":"_uri","type":"string"}],"stateMutability":"nonpayable","type":"constructor"},{"inputs":[{"internalType":"address","name":"sender","type":"address"},{"internalType":"uint256","name":"balance","type":"uint256"},{"internalType":"uint256","name":"needed","type":"uint256"},{"internalType":"uint256","name":"tokenId","type":"uint256"}],"name":"ERC1155InsufficientBalance","type":"error"},{"inputs":[{"internalType":"address","name":"approver","type":"address"}],"name":"ERC1155InvalidApprover","type":"error"},{"inputs":[{"internalType":"uint256","name":"idsLength","type":"uint256"},{"internalType":"uint256","name":"valuesLength","type":"uint256"}],"name":"ERC1155InvalidArrayLength","type":"error"},{"inputs":[{"internalType":"address","name":"operator","type":"address"}],"name":"ERC1155InvalidOperator","type":"error"},{"inputs":[{"internalType":"address","name":"receiver","type":"address"}],"name":"ERC1155InvalidReceiver","type":"error"},{"inputs":[{"internalType":"address","name":"sender","type":"address"}],"name":"ERC1155InvalidSender","type":"error"},{"inputs":[{"internalType":"address","name":"operator","type":"address"},{"internalType":"address","name":"owner","type":"address"}],"name":"ERC1155MissingApprovalForAll","type":"error"},{"inputs":[{"internalType":"address","name":"owner","type":"address"}],"name":"OwnableInvalidOwner","type":"error"},{"inputs":[{"internalType":"address","name":"account","type":"address"}],"name":"OwnableUnauthorizedAccount","type":"error"},{"anonymous":false,"inputs":[{"indexed":true,"internalType":"address","name":"account","type":"address"},{"indexed":true,"internalType":"address","name":"operator","type":"address"},{"indexed":false,"internalType":"bool","name":"approved","type":"bool"}],"name":"ApprovalForAll","type":"event"},{"anonymous":false,"inputs":[{"indexed":true,"internalType":"address","name":"previousOwner","type":"address"},{"indexed":true,"internalType":"address","name":"newOwner","type":"address"}],"name":"OwnershipTransferred","type":"event"},{"anonymous":false,"inputs":[{"indexed":true,"internalType":"address","name":"operator","type":"address"},{"indexed":true,"internalType":"address","name":"from","type":"address"},{"indexed":true,"internalType":"address","name":"to","type":"address"},{"indexed":false,"internalType":"uint256[]","name":"ids","type":"uint256[]"},{"indexed":false,"internalType":"uint256[]","name":"values","type":"uint256[]"}],"name":"TransferBatch","type":"event"},{"anonymous":false,"inputs":[{"indexed":true,"internalType":"address","name":"operator","type":"address"},{"indexed":true,"internalType":"address","name":"from","type":"address"},{"indexed":true,"internalType":"address","name":"to","type":"address"},{"indexed":false,"internalType":"uint256","name":"id","type":"uint256"},{"indexed":false,"internalType":"uint256","name":"value","type":"uint256"}],"name":"TransferSingle","type":"event"},{"anonymous":false,"inputs":[{"indexed":false,"internalType":"string","name":"value","type":"string"},{"indexed":true,"internalType":"uint256","name":"id","type":"uint256"}],"name":"URI","type":"event"},{"inputs":[],"name":"Bronze","outputs":[{"internalType":"uint256","name":"","type":"uint256"}],"stateMutability":"view","type":"function"},{"inputs":[],"name":"Gold","outputs":[{"internalType":"uint256","name":"","type":"uint256"}],"stateMutability":"view","type":"function"},{"inputs":[],"name":"Silver","outputs":[{"internalType":"uint256","name":"","type":"uint256"}],"stateMutability":"view","type":"function"},{"inputs":[{"internalType":"address","name":"account","type":"address"},{"internalType":"uint256","name":"id","type":"uint256"}],"name":"balanceOf","outputs":[{"internalType":"uint256","name":"","type":"uint256"}],"stateMutability":"view","type":"function"},{"inputs":[{"internalType":"address[]","name":"accounts","type":"address[]"},{"internalType":"uint256[]","name":"ids","type":"uint256[]"}],"name":"balanceOfBatch","outputs":[{"internalType":"uint256[]","name":"","type":"uint256[]"}],"stateMutability":"view","type":"function"},{"inputs":[{"internalType":"address","name":"account","type":"address"},{"internalType":"address","name":"operator","type":"address"}],"name":"isApprovedForAll","outputs":[{"internalType":"bool","name":"","type":"bool"}],"stateMutability":"view","type":"function"},{"inputs":[],"name":"owner","outputs":[{"internalType":"address","name":"","type":"address"}],"stateMutability":"view","type":"function"},{"inputs":[],"name":"renounceOwnership","outputs":[],"stateMutability":"nonpayable","type":"function"},{"inputs":[{"internalType":"address","name":"from","type":"address"},{"internalType":"address","name":"to","type":"address"},{"internalType":"uint256[]","name":"ids","type":"uint256[]"},{"internalType":"uint256[]","name":"values","type":"uint256[]"},{"internalType":"bytes","name":"data","type":"bytes"}],"name":"safeBatchTransferFrom","outputs":[],"stateMutability":"nonpayable","type":"function"},{"inputs":[{"internalType":"address","name":"from","type":"address"},{"internalType":"address","name":"to","type":"address"},{"internalType":"uint256","name":"id","type":"uint256"},{"internalType":"uint256","name":"value","type":"uint256"},{"internalType":"bytes","name":"data","type":"bytes"}],"name":"safeTransferFrom","outputs":[],"stateMutability":"nonpayable","type":"function"},{"inputs":[{"internalType":"address","name":"operator","type":"address"},{"internalType":"bool","name":"approved","type":"bool"}],"name":"setApprovalForAll","outputs":[],"stateMutability":"nonpayable","type":"function"},{"inputs":[{"internalType":"bytes4","name":"interfaceId","type":"bytes4"}],"name":"supportsInterface","outputs":[{"internalType":"bool","name":"","type":"bool"}],"stateMutability":"view","type":"function"},{"inputs":[{"internalType":"address","name":"newOwner","type":"address"}],"name":"transferOwnership","outputs":[],"stateMutability":"nonpayable","type":"function"},{"inputs":[{"internalType":"uint256","name":"","type":"uint256"}],"name":"uri","outputs":[{"internalType":"string","name":"","type":"string"}],"stateMutability":"view","type":"function"}],"evm":{"bytecode":{"linkReferences":{},"object":"608060405234620000ab57620017ec80380380916200001e82620000c6565b6080396020816080019112620000ab57608051906001600160401b038211620000ab5780609f83011215620000ab578160800151916200005e8362000117565b916200006e6040519384620000f3565b83835260a08483010111620000ab576200009b92620000959160a060208501910162000133565b6200017c565b604051610fa69081620008468239f35b600080fd5b634e487b7160e01b600052604160045260246000fd5b6080601f91909101601f19168101906001600160401b03821190821017620000ed57604052565b620000b0565b601f909101601f19168101906001600160401b03821190821017620000ed57604052565b6001600160401b038111620000ed57601f01601f191660200190565b60005b838110620001475750506000910152565b818101518382015260200162000136565b60405190602082016001600160401b03811183821017620000ed5760405260008252565b80519091906001600160401b038111620000ed57620001a881620001a2600254620004e0565b6200051d565b602080601f83116001146200024c57508190620001de939460009262000240575b50508160011b916000199060031b1c19161790565b6002555b33156200022757620001f43362000497565b620002096200020262000158565b30620002d8565b620002176200020262000158565b620002256200020262000158565b565b604051631e4fbdf760e01b815260006004820152602490fd5b015190503880620001c9565b6002600052601f198316949091907f405787fa12a823e0f2b7631cc41b3ba8828b3321ca811111fa75cd3aa3bb5ace926000905b878210620002bf575050836001959610620002a5575b505050811b01600255620001e2565b015160001960f88460031b161c1916905538808062000296565b8060018596829496860151815501950193019062000280565b6001600160a01b038116919082156200047e5760405160019384825260209160208101956000875260408201928184526060946060840195606487526080850180604052855187518082036200046257505050908391826000905b620003fa575b505050835114600014620003bb57600088517fc3d58168c5ae7397731d063d5bbf3d657854427343f4c083240f7aacaa2d0f626200038d885160405191829133958360209093929193604081019481520152565b0390a45b815103620003ab575050620002259351905191336200080d565b91509162000225945033620006cd565b60006040517f4a39dc06d4c0dbc64b70af90fd698a233a518aa5d07e595d983b8c0526c8f7fb339180620003f1898983620005d2565b0390a462000391565b86518110156200045c5780849160051b880162000452620004498d620004328789860151950151946000526000602052604060002090565b9060018060a01b0316600052602052604060002090565b91825462000578565b9055018362000333565b62000339565b635b05999160e01b8352608488019190915260a4870152604490fd5b604051632bfa23e760e11b815260006004820152602490fd5b600380546001600160a01b039283166001600160a01b0319821681179092559091167f8be0079c531659141344cd1fd0a4f28419497f9722a3daafe3b4186f6b6457e0600080a3565b90600182811c9216801562000512575b6020831014620004fc57565b634e487b7160e01b600052602260045260246000fd5b91607f1691620004f0565b601f81116200052a575050565b60009060026000526020600020906020601f850160051c830194106200056d575b601f0160051c01915b8281106200056157505050565b81815560010162000554565b90925082906200054b565b919082018092116200058657565b634e487b7160e01b600052601160045260246000fd5b90815180825260208080930193019160005b828110620005bd575050505090565b835185529381019392810192600101620005ae565b9091620005ec620005fb936040845260408401906200059c565b9160208184039101526200059c565b90565b90816020910312620000ab57516001600160e01b031981168103620000ab5790565b906020916200063b8151809281855285808601910162000133565b601f01601f1916010190565b926200067a620005fb9593620006899360018060a01b031686526000602087015260a0604087015260a08601906200059c565b9084820360608601526200059c565b91608081840391015262000620565b3d15620006c8573d90620006ac8262000117565b91620006bc6040519384620000f3565b82523d6000602084013e565b606090565b9293919093843b620006e1575b5050505050565b60209162000706604051948593849363bc197c8160e01b988986526004860162000647565b038160006001600160a01b0388165af160009181620007a2575b506200076357826200073162000698565b80519190826200075c57604051632bfa23e760e11b81526001600160a01b0383166004820152602490fd5b9050602001fd5b6001600160e01b031916036200077f57503880808080620006da565b604051632bfa23e760e11b81526001600160a01b03919091166004820152602490fd5b620007ca91925060203d602011620007d2575b620007c18183620000f3565b810190620005fe565b903862000720565b503d620007b5565b909260a092620005fb9594600180861b031683526000602084015260408301526060820152816080820152019062000620565b9293919093843b62000820575050505050565b60209162000706604051948593849363f23a6e6160e01b9889865260048601620007da56fe6080604052600436101561001257600080fd5b60003560e01c8062fdd58e146100ec57806301ffc9a7146100e75780630e89341c146100e257806310ca7d1c146100b55780632eb2c2d6146100dd5780634e1273f4146100d8578063715018a6146100d35780638da5cb5b146100ce578063a22cb465146100c9578063c8449b65146100b5578063e985e9c5146100c4578063f242432a146100bf578063f2fde38b146100ba5763fe275280146100b557600080fd5b610360565b610977565b610861565b610804565b610747565b61071e565b6106bd565b610602565b610494565b610257565b610195565b610136565b600435906001600160a01b038216820361010757565b600080fd5b602435906001600160a01b038216820361010757565b35906001600160a01b038216820361010757565b3461010757604036600319011261010757602061017a6101546100f1565b6024356000526000835260406000209060018060a01b0316600052602052604060002090565b54604051908152f35b6001600160e01b031981160361010757565b346101075760203660031901126101075760206004356101b481610183565b63ffffffff60e01b16636cdb3d1360e11b81149081156101f2575b81156101e1575b506040519015158152f35b6301ffc9a760e01b149050386101d6565b6303a24d0760e21b811491506101cf565b919082519283825260005b84811061022f575050826000602080949584010152601f8019910116010190565b60208183018101518483018201520161020e565b906020610254928181520190610203565b90565b346101075760208060031936011261010757604051906000906002546001918160011c9260018316928315610356575b60208510841461034257848752602087019390811561032357506001146102c9575b6102c5866102b981880382610392565b60405191829182610243565b0390f35b6002600090815294509192917f405787fa12a823e0f2b7631cc41b3ba8828b3321ca811111fa75cd3aa3bb5ace5b83861061031257505050910190506102b9826102c5386102a9565b8054858701529482019481016102f7565b60ff1916845250505090151560051b0190506102b9826102c5386102a9565b634e487b7160e01b86526022600452602486fd5b93607f1693610287565b3461010757600036600319011261010757602060405160008152f35b634e487b7160e01b600052604160045260246000fd5b90601f8019910116810190811067ffffffffffffffff8211176103b457604052565b61037c565b67ffffffffffffffff81116103b45760051b60200190565b9080601f830112156101075760209082356103eb816103b9565b936103f96040519586610392565b81855260208086019260051b82010192831161010757602001905b828210610422575050505090565b81358152908301908301610414565b67ffffffffffffffff81116103b457601f01601f191660200190565b81601f820112156101075780359061046482610431565b926104726040519485610392565b8284526020838301011161010757816000926020809301838601378301015290565b346101075760a0366003190112610107576104ad6100f1565b6104b561010c565b906044359167ffffffffffffffff90818411610107576104da600494369086016103d1565b90606435838111610107576104f290369087016103d1565b926084359081116101075761050a903690870161044d565b936001600160a01b03808216903382141580610599575b61056c57831615610554571561053d5761053b9550610b14565b005b604051626a0d4560e21b8152600081880152602490fd5b604051632bfa23e760e11b8152600081890152602490fd5b6040805163711bec9160e11b815233818b019081526001600160a01b038616602082015290918291010390fd5b50600082815260016020908152604080832033845290915290205460ff1615610521565b90815180825260208080930193019160005b8281106105dd575050505090565b8351855293810193928101926001016105cf565b9060206102549281815201906105bd565b346101075760403660031901126101075760043567ffffffffffffffff808211610107573660238301121561010757816004013561063f816103b9565b9261064d6040519485610392565b8184526020916024602086019160051b8301019136831161010757602401905b8282106106a65785602435868111610107576102c59161069461069a9236906004016103d1565b90610a29565b604051918291826105f1565b8380916106b284610122565b81520191019061066d565b346101075760008060031936011261071b576106d7610ae8565b600380546001600160a01b0319811690915581906001600160a01b03167f8be0079c531659141344cd1fd0a4f28419497f9722a3daafe3b4186f6b6457e08280a380f35b80fd5b34610107576000366003190112610107576003546040516001600160a01b039091168152602090f35b34610107576040366003190112610107576107606100f1565b602435801515808203610107576001600160a01b0383169283156107ec573360009081526001602090815260408083206001600160a01b039094168352929052209060ff801983541691161790557f17307eab39ab6107e8899845ad3d59bd9653f200f220920489ca2b5937696c31604051806107e7339482919091602081019215159052565b0390a3005b60405162ced3e160e81b815260006004820152602490fd5b3461010757604036600319011261010757602060ff6108556108246100f1565b61082c61010c565b6001600160a01b0391821660009081526001865260408082209290931681526020919091522090565b54166040519015158152f35b346101075760a03660031901126101075761087a6100f1565b61088261010c565b9060843567ffffffffffffffff8111610107576108a390369060040161044d565b906001600160a01b03808216903382141580610953575b61092c5784161561091357156108fb5761053b9260405190600182526044356020830152604082019260018452606435606084015260808301604052610b14565b604051626a0d4560e21b815260006004820152602490fd5b604051632bfa23e760e11b815260006004820152602490fd5b60405163711bec9160e11b81523360048201526001600160a01b0384166024820152604490fd5b50600082815260016020908152604080832033845290915290205460ff16156108ba565b34610107576020366003190112610107576109906100f1565b610998610ae8565b6001600160a01b039081169081156109e657600380546001600160a01b031981168417909155167f8be0079c531659141344cd1fd0a4f28419497f9722a3daafe3b4186f6b6457e0600080a3005b604051631e4fbdf760e01b815260006004820152602490fd5b8051821015610a135760209160051b010190565b634e487b7160e01b600052603260045260246000fd5b91909180518351808203610ac6575050805190610a5e610a48836103b9565b92610a566040519485610392565b8084526103b9565b60209190601f1901368484013760005b8151811015610abe57600581901b8281018401519087018401516000908152602081815260408083206001600160a01b039094168352929052205460019190610ab782876109ff565b5201610a6e565b509193505050565b604051635b05999160e01b815260048101919091526024810191909152604490fd5b6003546001600160a01b03163303610afc57565b60405163118cdaa760e01b8152336004820152602490fd5b949190918151845190818103610ac657505060005b8251811015610c3657600581901b83810160209081015191870101516001600160a01b03929186908a8516610bb0575b6001948216610b6c575b50505001610b29565b610ba691610b87610b9e926000526000602052604060002090565b9060018060a01b0316600052602052604060002090565b918254610d2c565b9055388581610b63565b9192939050610bcd8a610b87846000526000602052604060002090565b54838110610bff5791879184600196959403610bf78d610b87856000526000602052604060002090565b559450610b59565b6040516303dee4c560e01b81526001600160a01b038c16600482015260248101919091526044810184905260648101839052608490fd5b509491939290936001855114600014610ce1576020858101518382015160408051928352928201526001600160a01b03838116929086169133917fc3d58168c5ae7397731d063d5bbf3d657854427343f4c083240f7aacaa2d0f6291a45b6001600160a01b038116610caa575b5050505050565b8451600103610cd057602080610cc69601519201519233610f39565b3880808080610ca3565b610cdc94919233610e07565b610cc6565b6040516001600160a01b03828116919085169033907f4a39dc06d4c0dbc64b70af90fd698a233a518aa5d07e595d983b8c0526c8f7fb9080610d24888c83610d4f565b0390a4610c94565b91908201809211610d3957565b634e487b7160e01b600052601160045260246000fd5b9091610d66610254936040845260408401906105bd565b9160208184039101526105bd565b90816020910312610107575161025481610183565b93906102549593610dbb91610dc99460018060a01b03809216885216602087015260a0604087015260a08601906105bd565b9084820360608601526105bd565b916080818403910152610203565b3d15610e02573d90610de882610431565b91610df66040519384610392565b82523d6000602084013e565b606090565b939290949194853b610e1c575b505050505050565b610e3f602093604051958694859463bc197c8160e01b998a875260048701610d89565b038160006001600160a01b0388165af160009181610ed5575b50610e975782610e66610dd7565b8051919082610e9057604051632bfa23e760e11b81526001600160a01b0383166004820152602490fd5b9050602001fd5b6001600160e01b03191603610eb25750388080808080610e14565b604051632bfa23e760e11b81526001600160a01b03919091166004820152602490fd5b610ef891925060203d602011610eff575b610ef08183610392565b810190610d74565b9038610e58565b503d610ee6565b919261025495949160a094600180871b038092168552166020840152604083015260608201528160808201520190610203565b939290949194853b610f4d57505050505050565b610e3f602093604051958694859463f23a6e6160e01b998a875260048701610f0656fea26469706673582212200860625cae8a627247d371f9b8baae7db684cdbf1e18b218f9c79be0a29ad4f064736f6c63430008180033","opcodes":"PUSH1 0x80 PUSH1 0x40 MSTORE CALLVALUE PUSH3 0xAB JUMPI PUSH3 0x17EC DUP1 CODESIZE SUB DUP1 SWAP2 PUSH3 0x1E DUP3 PUSH3 0xC6 JUMP JUMPDEST PUSH1 0x80 CODECOPY PUSH1 0x20 DUP2 PUSH1 0x80 ADD SWAP2 SLT PUSH3 0xAB JUMPI PUSH1 0x80 MLOAD SWAP1 PUSH1 0x1 PUSH1 0x1 PUSH1 0x40 SHL SUB DUP3 GT PUSH3 0xAB JUMPI DUP1 PUSH1 0x9F DUP4 ADD SLT ISZERO PUSH3 0xAB JUMPI DUP2 PUSH1 0x80 ADD MLOAD SWAP2 PUSH3 0x5E DUP4 PUSH3 0x117 JUMP JUMPDEST SWAP2 PUSH3 0x6E PUSH1 0x40 MLOAD SWAP4 DUP5 PUSH3 0xF3 JUMP JUMPDEST DUP4 DUP4 MSTORE PUSH1 0xA0 DUP5 DUP4 ADD ADD GT PUSH3 0xAB JUMPI PUSH3 0x9B SWAP3 PUSH3 0x95 SWAP2 PUSH1 0xA0 PUSH1 0x20 DUP6 ADD SWAP2 ADD PUSH3 0x133 JUMP JUMPDEST PUSH3 0x17C JUMP JUMPDEST PUSH1 0x40 MLOAD PUSH2 0xFA6 SWAP1 DUP2 PUSH3 0x846 DUP3 CODECOPY RETURN JUMPDEST PUSH1 0x0 DUP1 REVERT JUMPDEST PUSH4 0x4E487B71 PUSH1 0xE0 SHL PUSH1 0x0 MSTORE PUSH1 0x41 PUSH1 0x4 MSTORE PUSH1 0x24 PUSH1 0x0 REVERT JUMPDEST PUSH1 0x80 PUSH1 0x1F SWAP2 SWAP1 SWAP2 ADD PUSH1 0x1F NOT AND DUP2 ADD SWAP1 PUSH1 0x1 PUSH1 0x1 PUSH1 0x40 SHL SUB DUP3 GT SWAP1 DUP3 LT OR PUSH3 0xED JUMPI PUSH1 0x40 MSTORE JUMP JUMPDEST PUSH3 0xB0 JUMP JUMPDEST PUSH1 0x1F SWAP1 SWAP2 ADD PUSH1 0x1F NOT AND DUP2 ADD SWAP1 PUSH1 0x1 PUSH1 0x1 PUSH1 0x40 SHL SUB DUP3 GT SWAP1 DUP3 LT OR PUSH3 0xED JUMPI PUSH1 0x40 MSTORE JUMP JUMPDEST PUSH1 0x1 PUSH1 0x1 PUSH1 0x40 SHL SUB DUP2 GT PUSH3 0xED JUMPI PUSH1 0x1F ADD PUSH1 0x1F NOT AND PUSH1 0x20 ADD SWAP1 JUMP JUMPDEST PUSH1 0x0 JUMPDEST DUP4 DUP2 LT PUSH3 0x147 JUMPI POP POP PUSH1 0x0 SWAP2 ADD MSTORE JUMP JUMPDEST DUP2 DUP2 ADD MLOAD DUP4 DUP3 ADD MSTORE PUSH1 0x20 ADD PUSH3 0x136 JUMP JUMPDEST PUSH1 0x40 MLOAD SWAP1 PUSH1 0x20 DUP3 ADD PUSH1 0x1 PUSH1 0x1 PUSH1 0x40 SHL SUB DUP2 GT DUP4 DUP3 LT OR PUSH3 0xED JUMPI PUSH1 0x40 MSTORE PUSH1 0x0 DUP3 MSTORE JUMP JUMPDEST DUP1 MLOAD SWAP1 SWAP2 SWAP1 PUSH1 0x1 PUSH1 0x1 PUSH1 0x40 SHL SUB DUP2 GT PUSH3 0xED JUMPI PUSH3 0x1A8 DUP2 PUSH3 0x1A2 PUSH1 0x2 SLOAD PUSH3 0x4E0 JUMP JUMPDEST PUSH3 0x51D JUMP JUMPDEST PUSH1 0x20 DUP1 PUSH1 0x1F DUP4 GT PUSH1 0x1 EQ PUSH3 0x24C JUMPI POP DUP2 SWAP1 PUSH3 0x1DE SWAP4 SWAP5 PUSH1 0x0 SWAP3 PUSH3 0x240 JUMPI JUMPDEST POP POP DUP2 PUSH1 0x1 SHL SWAP2 PUSH1 0x0 NOT SWAP1 PUSH1 0x3 SHL SHR NOT AND OR SWAP1 JUMP JUMPDEST PUSH1 0x2 SSTORE JUMPDEST CALLER ISZERO PUSH3 0x227 JUMPI PUSH3 0x1F4 CALLER PUSH3 0x497 JUMP JUMPDEST PUSH3 0x209 PUSH3 0x202 PUSH3 0x158 JUMP JUMPDEST ADDRESS PUSH3 0x2D8 JUMP JUMPDEST PUSH3 0x217 PUSH3 0x202 PUSH3 0x158 JUMP JUMPDEST PUSH3 0x225 PUSH3 0x202 PUSH3 0x158 JUMP JUMPDEST JUMP JUMPDEST PUSH1 0x40 MLOAD PUSH4 0x1E4FBDF7 PUSH1 0xE0 SHL DUP2 MSTORE PUSH1 0x0 PUSH1 0x4 DUP3 ADD MSTORE PUSH1 0x24 SWAP1 REVERT JUMPDEST ADD MLOAD SWAP1 POP CODESIZE DUP1 PUSH3 0x1C9 JUMP JUMPDEST PUSH1 0x2 PUSH1 0x0 MSTORE PUSH1 0x1F NOT DUP4 AND SWAP5 SWAP1 SWAP2 SWAP1 PUSH32 0x405787FA12A823E0F2B7631CC41B3BA8828B3321CA811111FA75CD3AA3BB5ACE SWAP3 PUSH1 0x0 SWAP1 JUMPDEST DUP8 DUP3 LT PUSH3 0x2BF JUMPI POP POP DUP4 PUSH1 0x1 SWAP6 SWAP7 LT PUSH3 0x2A5 JUMPI JUMPDEST POP POP POP DUP2 SHL ADD PUSH1 0x2 SSTORE PUSH3 0x1E2 JUMP JUMPDEST ADD MLOAD PUSH1 0x0 NOT PUSH1 0xF8 DUP5 PUSH1 0x3 SHL AND SHR NOT AND SWAP1 SSTORE CODESIZE DUP1 DUP1 PUSH3 0x296 JUMP JUMPDEST DUP1 PUSH1 0x1 DUP6 SWAP7 DUP3 SWAP5 SWAP7 DUP7 ADD MLOAD DUP2 SSTORE ADD SWAP6 ADD SWAP4 ADD SWAP1 PUSH3 0x280 JUMP JUMPDEST PUSH1 0x1 PUSH1 0x1 PUSH1 0xA0 SHL SUB DUP2 AND SWAP2 SWAP1 DUP3 ISZERO PUSH3 0x47E JUMPI PUSH1 0x40 MLOAD PUSH1 0x1 SWAP4 DUP5 DUP3 MSTORE PUSH1 0x20 SWAP2 PUSH1 0x20 DUP2 ADD SWAP6 PUSH1 0x0 DUP8 MSTORE PUSH1 0x40 DUP3 ADD SWAP3 DUP2 DUP5 MSTORE PUSH1 0x60 SWAP5 PUSH1 0x60 DUP5 ADD SWAP6 PUSH1 0x64 DUP8 MSTORE PUSH1 0x80 DUP6 ADD DUP1 PUSH1 0x40 MSTORE DUP6 MLOAD DUP8 MLOAD DUP1 DUP3 SUB PUSH3 0x462 JUMPI POP POP POP SWAP1 DUP4 SWAP2 DUP3 PUSH1 0x0 SWAP1 JUMPDEST PUSH3 0x3FA JUMPI JUMPDEST POP POP POP DUP4 MLOAD EQ PUSH1 0x0 EQ PUSH3 0x3BB JUMPI PUSH1 0x0 DUP9 MLOAD PUSH32 0xC3D58168C5AE7397731D063D5BBF3D657854427343F4C083240F7AACAA2D0F62 PUSH3 0x38D DUP9 MLOAD PUSH1 0x40 MLOAD SWAP2 DUP3 SWAP2 CALLER SWAP6 DUP4 PUSH1 0x20 SWAP1 SWAP4 SWAP3 SWAP2 SWAP4 PUSH1 0x40 DUP2 ADD SWAP5 DUP2 MSTORE ADD MSTORE JUMP JUMPDEST SUB SWAP1 LOG4 JUMPDEST DUP2 MLOAD SUB PUSH3 0x3AB JUMPI POP POP PUSH3 0x225 SWAP4 MLOAD SWAP1 MLOAD SWAP2 CALLER PUSH3 0x80D JUMP JUMPDEST SWAP2 POP SWAP2 PUSH3 0x225 SWAP5 POP CALLER PUSH3 0x6CD JUMP JUMPDEST PUSH1 0x0 PUSH1 0x40 MLOAD PUSH32 0x4A39DC06D4C0DBC64B70AF90FD698A233A518AA5D07E595D983B8C0526C8F7FB CALLER SWAP2 DUP1 PUSH3 0x3F1 DUP10 DUP10 DUP4 PUSH3 0x5D2 JUMP JUMPDEST SUB SWAP1 LOG4 PUSH3 0x391 JUMP JUMPDEST DUP7 MLOAD DUP2 LT ISZERO PUSH3 0x45C JUMPI DUP1 DUP5 SWAP2 PUSH1 0x5 SHL DUP9 ADD PUSH3 0x452 PUSH3 0x449 DUP14 PUSH3 0x432 DUP8 DUP10 DUP7 ADD MLOAD SWAP6 ADD MLOAD SWAP5 PUSH1 0x0 MSTORE PUSH1 0x0 PUSH1 0x20 MSTORE PUSH1 0x40 PUSH1 0x0 KECCAK256 SWAP1 JUMP JUMPDEST SWAP1 PUSH1 0x1 DUP1 PUSH1 0xA0 SHL SUB AND PUSH1 0x0 MSTORE PUSH1 0x20 MSTORE PUSH1 0x40 PUSH1 0x0 KECCAK256 SWAP1 JUMP JUMPDEST SWAP2 DUP3 SLOAD PUSH3 0x578 JUMP JUMPDEST SWAP1 SSTORE ADD DUP4 PUSH3 0x333 JUMP JUMPDEST PUSH3 0x339 JUMP JUMPDEST PUSH4 0x5B059991 PUSH1 0xE0 SHL DUP4 MSTORE PUSH1 0x84 DUP9 ADD SWAP2 SWAP1 SWAP2 MSTORE PUSH1 0xA4 DUP8 ADD MSTORE PUSH1 0x44 SWAP1 REVERT JUMPDEST PUSH1 0x40 MLOAD PUSH4 0x2BFA23E7 PUSH1 0xE1 SHL DUP2 MSTORE PUSH1 0x0 PUSH1 0x4 DUP3 ADD MSTORE PUSH1 0x24 SWAP1 REVERT JUMPDEST PUSH1 0x3 DUP1 SLOAD PUSH1 0x1 PUSH1 0x1 PUSH1 0xA0 SHL SUB SWAP3 DUP4 AND PUSH1 0x1 PUSH1 0x1 PUSH1 0xA0 SHL SUB NOT DUP3 AND DUP2 OR SWAP1 SWAP3 SSTORE SWAP1 SWAP2 AND PUSH32 0x8BE0079C531659141344CD1FD0A4F28419497F9722A3DAAFE3B4186F6B6457E0 PUSH1 0x0 DUP1 LOG3 JUMP JUMPDEST SWAP1 PUSH1 0x1 DUP3 DUP2 SHR SWAP3 AND DUP1 ISZERO PUSH3 0x512 JUMPI JUMPDEST PUSH1 0x20 DUP4 LT EQ PUSH3 0x4FC JUMPI JUMP JUMPDEST PUSH4 0x4E487B71 PUSH1 0xE0 SHL PUSH1 0x0 MSTORE PUSH1 0x22 PUSH1 0x4 MSTORE PUSH1 0x24 PUSH1 0x0 REVERT JUMPDEST SWAP2 PUSH1 0x7F AND SWAP2 PUSH3 0x4F0 JUMP JUMPDEST PUSH1 0x1F DUP2 GT PUSH3 0x52A JUMPI POP POP JUMP JUMPDEST PUSH1 0x0 SWAP1 PUSH1 0x2 PUSH1 0x0 MSTORE PUSH1 0x20 PUSH1 0x0 KECCAK256 SWAP1 PUSH1 0x20 PUSH1 0x1F DUP6 ADD PUSH1 0x5 SHR DUP4 ADD SWAP5 LT PUSH3 0x56D JUMPI JUMPDEST PUSH1 0x1F ADD PUSH1 0x5 SHR ADD SWAP2 JUMPDEST DUP3 DUP2 LT PUSH3 0x561 JUMPI POP POP POP JUMP JUMPDEST DUP2 DUP2 SSTORE PUSH1 0x1 ADD PUSH3 0x554 JUMP JUMPDEST SWAP1 SWAP3 POP DUP3 SWAP1 PUSH3 0x54B JUMP JUMPDEST SWAP2 SWAP1 DUP3 ADD DUP1 SWAP3 GT PUSH3 0x586 JUMPI JUMP JUMPDEST PUSH4 0x4E487B71 PUSH1 0xE0 SHL PUSH1 0x0 MSTORE PUSH1 0x11 PUSH1 0x4 MSTORE PUSH1 0x24 PUSH1 0x0 REVERT JUMPDEST SWAP1 DUP2 MLOAD DUP1 DUP3 MSTORE PUSH1 0x20 DUP1 DUP1 SWAP4 ADD SWAP4 ADD SWAP2 PUSH1 0x0 JUMPDEST DUP3 DUP2 LT PUSH3 0x5BD JUMPI POP POP POP POP SWAP1 JUMP JUMPDEST DUP4 MLOAD DUP6 MSTORE SWAP4 DUP2 ADD SWAP4 SWAP3 DUP2 ADD SWAP3 PUSH1 0x1 ADD PUSH3 0x5AE JUMP JUMPDEST SWAP1 SWAP2 PUSH3 0x5EC PUSH3 0x5FB SWAP4 PUSH1 0x40 DUP5 MSTORE PUSH1 0x40 DUP5 ADD SWAP1 PUSH3 0x59C JUMP JUMPDEST SWAP2 PUSH1 0x20 DUP2 DUP5 SUB SWAP2 ADD MSTORE PUSH3 0x59C JUMP JUMPDEST SWAP1 JUMP JUMPDEST SWAP1 DUP2 PUSH1 0x20 SWAP2 SUB SLT PUSH3 0xAB JUMPI MLOAD PUSH1 0x1 PUSH1 0x1 PUSH1 0xE0 SHL SUB NOT DUP2 AND DUP2 SUB PUSH3 0xAB JUMPI SWAP1 JUMP JUMPDEST SWAP1 PUSH1 0x20 SWAP2 PUSH3 0x63B DUP2 MLOAD DUP1 SWAP3 DUP2 DUP6 MSTORE DUP6 DUP1 DUP7 ADD SWAP2 ADD PUSH3 0x133 JUMP JUMPDEST PUSH1 0x1F ADD PUSH1 0x1F NOT AND ADD ADD SWAP1 JUMP JUMPDEST SWAP3 PUSH3 0x67A PUSH3 0x5FB SWAP6 SWAP4 PUSH3 0x689 SWAP4 PUSH1 0x1 DUP1 PUSH1 0xA0 SHL SUB AND DUP7 MSTORE PUSH1 0x0 PUSH1 0x20 DUP8 ADD MSTORE PUSH1 0xA0 PUSH1 0x40 DUP8 ADD MSTORE PUSH1 0xA0 DUP7 ADD SWAP1 PUSH3 0x59C JUMP JUMPDEST SWAP1 DUP5 DUP3 SUB PUSH1 0x60 DUP7 ADD MSTORE PUSH3 0x59C JUMP JUMPDEST SWAP2 PUSH1 0x80 DUP2 DUP5 SUB SWAP2 ADD MSTORE PUSH3 0x620 JUMP JUMPDEST RETURNDATASIZE ISZERO PUSH3 0x6C8 JUMPI RETURNDATASIZE SWAP1 PUSH3 0x6AC DUP3 PUSH3 0x117 JUMP JUMPDEST SWAP2 PUSH3 0x6BC PUSH1 0x40 MLOAD SWAP4 DUP5 PUSH3 0xF3 JUMP JUMPDEST DUP3 MSTORE RETURNDATASIZE PUSH1 0x0 PUSH1 0x20 DUP5 ADD RETURNDATACOPY JUMP JUMPDEST PUSH1 0x60 SWAP1 JUMP JUMPDEST SWAP3 SWAP4 SWAP2 SWAP1 SWAP4 DUP5 EXTCODESIZE PUSH3 0x6E1 JUMPI JUMPDEST POP POP POP POP POP JUMP JUMPDEST PUSH1 0x20 SWAP2 PUSH3 0x706 PUSH1 0x40 MLOAD SWAP5 DUP6 SWAP4 DUP5 SWAP4 PUSH4 0xBC197C81 PUSH1 0xE0 SHL SWAP9 DUP10 DUP7 MSTORE PUSH1 0x4 DUP7 ADD PUSH3 0x647 JUMP JUMPDEST SUB DUP2 PUSH1 0x0 PUSH1 0x1 PUSH1 0x1 PUSH1 0xA0 SHL SUB DUP9 AND GAS CALL PUSH1 0x0 SWAP2 DUP2 PUSH3 0x7A2 JUMPI JUMPDEST POP PUSH3 0x763 JUMPI DUP3 PUSH3 0x731 PUSH3 0x698 JUMP JUMPDEST DUP1 MLOAD SWAP2 SWAP1 DUP3 PUSH3 0x75C JUMPI PUSH1 0x40 MLOAD PUSH4 0x2BFA23E7 PUSH1 0xE1 SHL DUP2 MSTORE PUSH1 0x1 PUSH1 0x1 PUSH1 0xA0 SHL SUB DUP4 AND PUSH1 0x4 DUP3 ADD MSTORE PUSH1 0x24 SWAP1 REVERT JUMPDEST SWAP1 POP PUSH1 0x20 ADD REVERT JUMPDEST PUSH1 0x1 PUSH1 0x1 PUSH1 0xE0 SHL SUB NOT AND SUB PUSH3 0x77F JUMPI POP CODESIZE DUP1 DUP1 DUP1 DUP1 PUSH3 0x6DA JUMP JUMPDEST PUSH1 0x40 MLOAD PUSH4 0x2BFA23E7 PUSH1 0xE1 SHL DUP2 MSTORE PUSH1 0x1 PUSH1 0x1 PUSH1 0xA0 SHL SUB SWAP2 SWAP1 SWAP2 AND PUSH1 0x4 DUP3 ADD MSTORE PUSH1 0x24 SWAP1 REVERT JUMPDEST PUSH3 0x7CA SWAP2 SWAP3 POP PUSH1 0x20 RETURNDATASIZE PUSH1 0x20 GT PUSH3 0x7D2 JUMPI JUMPDEST PUSH3 0x7C1 DUP2 DUP4 PUSH3 0xF3 JUMP JUMPDEST DUP2 ADD SWAP1 PUSH3 0x5FE JUMP JUMPDEST SWAP1 CODESIZE PUSH3 0x720 JUMP JUMPDEST POP RETURNDATASIZE PUSH3 0x7B5 JUMP JUMPDEST SWAP1 SWAP3 PUSH1 0xA0 SWAP3 PUSH3 0x5FB SWAP6 SWAP5 PUSH1 0x1 DUP1 DUP7 SHL SUB AND DUP4 MSTORE PUSH1 0x0 PUSH1 0x20 DUP5 ADD MSTORE PUSH1 0x40 DUP4 ADD MSTORE PUSH1 0x60 DUP3 ADD MSTORE DUP2 PUSH1 0x80 DUP3 ADD MSTORE ADD SWAP1 PUSH3 0x620 JUMP JUMPDEST SWAP3 SWAP4 SWAP2 SWAP1 SWAP4 DUP5 EXTCODESIZE PUSH3 0x820 JUMPI POP POP POP POP POP JUMP JUMPDEST PUSH1 0x20 SWAP2 PUSH3 0x706 PUSH1 0x40 MLOAD SWAP5 DUP6 SWAP4 DUP5 SWAP4 PUSH4 0xF23A6E61 PUSH1 0xE0 SHL SWAP9 DUP10 DUP7 MSTORE PUSH1 0x4 DUP7 ADD PUSH3 0x7DA JUMP INVALID PUSH1 0x80 PUSH1 0x40 MSTORE PUSH1 0x4 CALLDATASIZE LT ISZERO PUSH2 0x12 JUMPI PUSH1 0x0 DUP1 REVERT JUMPDEST PUSH1 0x0 CALLDATALOAD PUSH1 0xE0 SHR DUP1 PUSH3 0xFDD58E EQ PUSH2 0xEC JUMPI DUP1 PUSH4 0x1FFC9A7 EQ PUSH2 0xE7 JUMPI DUP1 PUSH4 0xE89341C EQ PUSH2 0xE2 JUMPI DUP1 PUSH4 0x10CA7D1C EQ PUSH2 0xB5 JUMPI DUP1 PUSH4 0x2EB2C2D6 EQ PUSH2 0xDD JUMPI DUP1 PUSH4 0x4E1273F4 EQ PUSH2 0xD8 JUMPI DUP1 PUSH4 0x715018A6 EQ PUSH2 0xD3 JUMPI DUP1 PUSH4 0x8DA5CB5B EQ PUSH2 0xCE JUMPI DUP1 PUSH4 0xA22CB465 EQ PUSH2 0xC9 JUMPI DUP1 PUSH4 0xC8449B65 EQ PUSH2 0xB5 JUMPI DUP1 PUSH4 0xE985E9C5 EQ PUSH2 0xC4 JUMPI DUP1 PUSH4 0xF242432A EQ PUSH2 0xBF JUMPI DUP1 PUSH4 0xF2FDE38B EQ PUSH2 0xBA JUMPI PUSH4 0xFE275280 EQ PUSH2 0xB5 JUMPI PUSH1 0x0 DUP1 REVERT JUMPDEST PUSH2 0x360 JUMP JUMPDEST PUSH2 0x977 JUMP JUMPDEST PUSH2 0x861 JUMP JUMPDEST PUSH2 0x804 JUMP JUMPDEST PUSH2 0x747 JUMP JUMPDEST PUSH2 0x71E JUMP JUMPDEST PUSH2 0x6BD JUMP JUMPDEST PUSH2 0x602 JUMP JUMPDEST PUSH2 0x494 JUMP JUMPDEST PUSH2 0x257 JUMP JUMPDEST PUSH2 0x195 JUMP JUMPDEST PUSH2 0x136 JUMP JUMPDEST PUSH1 0x4 CALLDATALOAD SWAP1 PUSH1 0x1 PUSH1 0x1 PUSH1 0xA0 SHL SUB DUP3 AND DUP3 SUB PUSH2 0x107 JUMPI JUMP JUMPDEST PUSH1 0x0 DUP1 REVERT JUMPDEST PUSH1 0x24 CALLDATALOAD SWAP1 PUSH1 0x1 PUSH1 0x1 PUSH1 0xA0 SHL SUB DUP3 AND DUP3 SUB PUSH2 0x107 JUMPI JUMP JUMPDEST CALLDATALOAD SWAP1 PUSH1 0x1 PUSH1 0x1 PUSH1 0xA0 SHL SUB DUP3 AND DUP3 SUB PUSH2 0x107 JUMPI JUMP JUMPDEST CALLVALUE PUSH2 0x107 JUMPI PUSH1 0x40 CALLDATASIZE PUSH1 0x3 NOT ADD SLT PUSH2 0x107 JUMPI PUSH1 0x20 PUSH2 0x17A PUSH2 0x154 PUSH2 0xF1 JUMP JUMPDEST PUSH1 0x24 CALLDATALOAD PUSH1 0x0 MSTORE PUSH1 0x0 DUP4 MSTORE PUSH1 0x40 PUSH1 0x0 KECCAK256 SWAP1 PUSH1 0x1 DUP1 PUSH1 0xA0 SHL SUB AND PUSH1 0x0 MSTORE PUSH1 0x20 MSTORE PUSH1 0x40 PUSH1 0x0 KECCAK256 SWAP1 JUMP JUMPDEST SLOAD PUSH1 0x40 MLOAD SWAP1 DUP2 MSTORE RETURN JUMPDEST PUSH1 0x1 PUSH1 0x1 PUSH1 0xE0 SHL SUB NOT DUP2 AND SUB PUSH2 0x107 JUMPI JUMP JUMPDEST CALLVALUE PUSH2 0x107 JUMPI PUSH1 0x20 CALLDATASIZE PUSH1 0x3 NOT ADD SLT PUSH2 0x107 JUMPI PUSH1 0x20 PUSH1 0x4 CALLDATALOAD PUSH2 0x1B4 DUP2 PUSH2 0x183 JUMP JUMPDEST PUSH4 0xFFFFFFFF PUSH1 0xE0 SHL AND PUSH4 0x6CDB3D13 PUSH1 0xE1 SHL DUP2 EQ SWAP1 DUP2 ISZERO PUSH2 0x1F2 JUMPI JUMPDEST DUP2 ISZERO PUSH2 0x1E1 JUMPI JUMPDEST POP PUSH1 0x40 MLOAD SWAP1 ISZERO ISZERO DUP2 MSTORE RETURN JUMPDEST PUSH4 0x1FFC9A7 PUSH1 0xE0 SHL EQ SWAP1 POP CODESIZE PUSH2 0x1D6 JUMP JUMPDEST PUSH4 0x3A24D07 PUSH1 0xE2 SHL DUP2 EQ SWAP2 POP PUSH2 0x1CF JUMP JUMPDEST SWAP2 SWAP1 DUP3 MLOAD SWAP3 DUP4 DUP3 MSTORE PUSH1 0x0 JUMPDEST DUP5 DUP2 LT PUSH2 0x22F JUMPI POP POP DUP3 PUSH1 0x0 PUSH1 0x20 DUP1 SWAP5 SWAP6 DUP5 ADD ADD MSTORE PUSH1 0x1F DUP1 NOT SWAP2 ADD AND ADD ADD SWAP1 JUMP JUMPDEST PUSH1 0x20 DUP2 DUP4 ADD DUP2 ADD MLOAD DUP5 DUP4 ADD DUP3 ADD MSTORE ADD PUSH2 0x20E JUMP JUMPDEST SWAP1 PUSH1 0x20 PUSH2 0x254 SWAP3 DUP2 DUP2 MSTORE ADD SWAP1 PUSH2 0x203 JUMP JUMPDEST SWAP1 JUMP JUMPDEST CALLVALUE PUSH2 0x107 JUMPI PUSH1 0x20 DUP1 PUSH1 0x3 NOT CALLDATASIZE ADD SLT PUSH2 0x107 JUMPI PUSH1 0x40 MLOAD SWAP1 PUSH1 0x0 SWAP1 PUSH1 0x2 SLOAD PUSH1 0x1 SWAP2 DUP2 PUSH1 0x1 SHR SWAP3 PUSH1 0x1 DUP4 AND SWAP3 DUP4 ISZERO PUSH2 0x356 JUMPI JUMPDEST PUSH1 0x20 DUP6 LT DUP5 EQ PUSH2 0x342 JUMPI DUP5 DUP8 MSTORE PUSH1 0x20 DUP8 ADD SWAP4 SWAP1 DUP2 ISZERO PUSH2 0x323 JUMPI POP PUSH1 0x1 EQ PUSH2 0x2C9 JUMPI JUMPDEST PUSH2 0x2C5 DUP7 PUSH2 0x2B9 DUP2 DUP9 SUB DUP3 PUSH2 0x392 JUMP JUMPDEST PUSH1 0x40 MLOAD SWAP2 DUP3 SWAP2 DUP3 PUSH2 0x243 JUMP JUMPDEST SUB SWAP1 RETURN JUMPDEST PUSH1 0x2 PUSH1 0x0 SWAP1 DUP2 MSTORE SWAP5 POP SWAP2 SWAP3 SWAP2 PUSH32 0x405787FA12A823E0F2B7631CC41B3BA8828B3321CA811111FA75CD3AA3BB5ACE JUMPDEST DUP4 DUP7 LT PUSH2 0x312 JUMPI POP POP POP SWAP2 ADD SWAP1 POP PUSH2 0x2B9 DUP3 PUSH2 0x2C5 CODESIZE PUSH2 0x2A9 JUMP JUMPDEST DUP1 SLOAD DUP6 DUP8 ADD MSTORE SWAP5 DUP3 ADD SWAP5 DUP2 ADD PUSH2 0x2F7 JUMP JUMPDEST PUSH1 0xFF NOT AND DUP5 MSTORE POP POP POP SWAP1 ISZERO ISZERO PUSH1 0x5 SHL ADD SWAP1 POP PUSH2 0x2B9 DUP3 PUSH2 0x2C5 CODESIZE PUSH2 0x2A9 JUMP JUMPDEST PUSH4 0x4E487B71 PUSH1 0xE0 SHL DUP7 MSTORE PUSH1 0x22 PUSH1 0x4 MSTORE PUSH1 0x24 DUP7 REVERT JUMPDEST SWAP4 PUSH1 0x7F AND SWAP4 PUSH2 0x287 JUMP JUMPDEST CALLVALUE PUSH2 0x107 JUMPI PUSH1 0x0 CALLDATASIZE PUSH1 0x3 NOT ADD SLT PUSH2 0x107 JUMPI PUSH1 0x20 PUSH1 0x40 MLOAD PUSH1 0x0 DUP2 MSTORE RETURN JUMPDEST PUSH4 0x4E487B71 PUSH1 0xE0 SHL PUSH1 0x0 MSTORE PUSH1 0x41 PUSH1 0x4 MSTORE PUSH1 0x24 PUSH1 0x0 REVERT JUMPDEST SWAP1 PUSH1 0x1F DUP1 NOT SWAP2 ADD AND DUP2 ADD SWAP1 DUP2 LT PUSH8 0xFFFFFFFFFFFFFFFF DUP3 GT OR PUSH2 0x3B4 JUMPI PUSH1 0x40 MSTORE JUMP JUMPDEST PUSH2 0x37C JUMP JUMPDEST PUSH8 0xFFFFFFFFFFFFFFFF DUP2 GT PUSH2 0x3B4 JUMPI PUSH1 0x5 SHL PUSH1 0x20 ADD SWAP1 JUMP JUMPDEST SWAP1 DUP1 PUSH1 0x1F DUP4 ADD SLT ISZERO PUSH2 0x107 JUMPI PUSH1 0x20 SWAP1 DUP3 CALLDATALOAD PUSH2 0x3EB DUP2 PUSH2 0x3B9 JUMP JUMPDEST SWAP4 PUSH2 0x3F9 PUSH1 0x40 MLOAD SWAP6 DUP7 PUSH2 0x392 JUMP JUMPDEST DUP2 DUP6 MSTORE PUSH1 0x20 DUP1 DUP7 ADD SWAP3 PUSH1 0x5 SHL DUP3 ADD ADD SWAP3 DUP4 GT PUSH2 0x107 JUMPI PUSH1 0x20 ADD SWAP1 JUMPDEST DUP3 DUP3 LT PUSH2 0x422 JUMPI POP POP POP POP SWAP1 JUMP JUMPDEST DUP2 CALLDATALOAD DUP2 MSTORE SWAP1 DUP4 ADD SWAP1 DUP4 ADD PUSH2 0x414 JUMP JUMPDEST PUSH8 0xFFFFFFFFFFFFFFFF DUP2 GT PUSH2 0x3B4 JUMPI PUSH1 0x1F ADD PUSH1 0x1F NOT AND PUSH1 0x20 ADD SWAP1 JUMP JUMPDEST DUP2 PUSH1 0x1F DUP3 ADD SLT ISZERO PUSH2 0x107 JUMPI DUP1 CALLDATALOAD SWAP1 PUSH2 0x464 DUP3 PUSH2 0x431 JUMP JUMPDEST SWAP3 PUSH2 0x472 PUSH1 0x40 MLOAD SWAP5 DUP6 PUSH2 0x392 JUMP JUMPDEST DUP3 DUP5 MSTORE PUSH1 0x20 DUP4 DUP4 ADD ADD GT PUSH2 0x107 JUMPI DUP2 PUSH1 0x0 SWAP3 PUSH1 0x20 DUP1 SWAP4 ADD DUP4 DUP7 ADD CALLDATACOPY DUP4 ADD ADD MSTORE SWAP1 JUMP JUMPDEST CALLVALUE PUSH2 0x107 JUMPI PUSH1 0xA0 CALLDATASIZE PUSH1 0x3 NOT ADD SLT PUSH2 0x107 JUMPI PUSH2 0x4AD PUSH2 0xF1 JUMP JUMPDEST PUSH2 0x4B5 PUSH2 0x10C JUMP JUMPDEST SWAP1 PUSH1 0x44 CALLDATALOAD SWAP2 PUSH8 0xFFFFFFFFFFFFFFFF SWAP1 DUP2 DUP5 GT PUSH2 0x107 JUMPI PUSH2 0x4DA PUSH1 0x4 SWAP5 CALLDATASIZE SWAP1 DUP7 ADD PUSH2 0x3D1 JUMP JUMPDEST SWAP1 PUSH1 0x64 CALLDATALOAD DUP4 DUP2 GT PUSH2 0x107 JUMPI PUSH2 0x4F2 SWAP1 CALLDATASIZE SWAP1 DUP8 ADD PUSH2 0x3D1 JUMP JUMPDEST SWAP3 PUSH1 0x84 CALLDATALOAD SWAP1 DUP2 GT PUSH2 0x107 JUMPI PUSH2 0x50A SWAP1 CALLDATASIZE SWAP1 DUP8 ADD PUSH2 0x44D JUMP JUMPDEST SWAP4 PUSH1 0x1 PUSH1 0x1 PUSH1 0xA0 SHL SUB DUP1 DUP3 AND SWAP1 CALLER DUP3 EQ ISZERO DUP1 PUSH2 0x599 JUMPI JUMPDEST PUSH2 0x56C JUMPI DUP4 AND ISZERO PUSH2 0x554 JUMPI ISZERO PUSH2 0x53D JUMPI PUSH2 0x53B SWAP6 POP PUSH2 0xB14 JUMP JUMPDEST STOP JUMPDEST PUSH1 0x40 MLOAD PUSH3 0x6A0D45 PUSH1 0xE2 SHL DUP2 MSTORE PUSH1 0x0 DUP2 DUP9 ADD MSTORE PUSH1 0x24 SWAP1 REVERT JUMPDEST PUSH1 0x40 MLOAD PUSH4 0x2BFA23E7 PUSH1 0xE1 SHL DUP2 MSTORE PUSH1 0x0 DUP2 DUP10 ADD MSTORE PUSH1 0x24 SWAP1 REVERT JUMPDEST PUSH1 0x40 DUP1 MLOAD PUSH4 0x711BEC91 PUSH1 0xE1 SHL DUP2 MSTORE CALLER DUP2 DUP12 ADD SWAP1 DUP2 MSTORE PUSH1 0x1 PUSH1 0x1 PUSH1 0xA0 SHL SUB DUP7 AND PUSH1 0x20 DUP3 ADD MSTORE SWAP1 SWAP2 DUP3 SWAP2 ADD SUB SWAP1 REVERT JUMPDEST POP PUSH1 0x0 DUP3 DUP2 MSTORE PUSH1 0x1 PUSH1 0x20 SWAP1 DUP2 MSTORE PUSH1 0x40 DUP1 DUP4 KECCAK256 CALLER DUP5 MSTORE SWAP1 SWAP2 MSTORE SWAP1 KECCAK256 SLOAD PUSH1 0xFF AND ISZERO PUSH2 0x521 JUMP JUMPDEST SWAP1 DUP2 MLOAD DUP1 DUP3 MSTORE PUSH1 0x20 DUP1 DUP1 SWAP4 ADD SWAP4 ADD SWAP2 PUSH1 0x0 JUMPDEST DUP3 DUP2 LT PUSH2 0x5DD JUMPI POP POP POP POP SWAP1 JUMP JUMPDEST DUP4 MLOAD DUP6 MSTORE SWAP4 DUP2 ADD SWAP4 SWAP3 DUP2 ADD SWAP3 PUSH1 0x1 ADD PUSH2 0x5CF JUMP JUMPDEST SWAP1 PUSH1 0x20 PUSH2 0x254 SWAP3 DUP2 DUP2 MSTORE ADD SWAP1 PUSH2 0x5BD JUMP JUMPDEST CALLVALUE PUSH2 0x107 JUMPI PUSH1 0x40 CALLDATASIZE PUSH1 0x3 NOT ADD SLT PUSH2 0x107 JUMPI PUSH1 0x4 CALLDATALOAD PUSH8 0xFFFFFFFFFFFFFFFF DUP1 DUP3 GT PUSH2 0x107 JUMPI CALLDATASIZE PUSH1 0x23 DUP4 ADD SLT ISZERO PUSH2 0x107 JUMPI DUP2 PUSH1 0x4 ADD CALLDATALOAD PUSH2 0x63F DUP2 PUSH2 0x3B9 JUMP JUMPDEST SWAP3 PUSH2 0x64D PUSH1 0x40 MLOAD SWAP5 DUP6 PUSH2 0x392 JUMP JUMPDEST DUP2 DUP5 MSTORE PUSH1 0x20 SWAP2 PUSH1 0x24 PUSH1 0x20 DUP7 ADD SWAP2 PUSH1 0x5 SHL DUP4 ADD ADD SWAP2 CALLDATASIZE DUP4 GT PUSH2 0x107 JUMPI PUSH1 0x24 ADD SWAP1 JUMPDEST DUP3 DUP3 LT PUSH2 0x6A6 JUMPI DUP6 PUSH1 0x24 CALLDATALOAD DUP7 DUP2 GT PUSH2 0x107 JUMPI PUSH2 0x2C5 SWAP2 PUSH2 0x694 PUSH2 0x69A SWAP3 CALLDATASIZE SWAP1 PUSH1 0x4 ADD PUSH2 0x3D1 JUMP JUMPDEST SWAP1 PUSH2 0xA29 JUMP JUMPDEST PUSH1 0x40 MLOAD SWAP2 DUP3 SWAP2 DUP3 PUSH2 0x5F1 JUMP JUMPDEST DUP4 DUP1 SWAP2 PUSH2 0x6B2 DUP5 PUSH2 0x122 JUMP JUMPDEST DUP2 MSTORE ADD SWAP2 ADD SWAP1 PUSH2 0x66D JUMP JUMPDEST CALLVALUE PUSH2 0x107 JUMPI PUSH1 0x0 DUP1 PUSH1 0x3 NOT CALLDATASIZE ADD SLT PUSH2 0x71B JUMPI PUSH2 0x6D7 PUSH2 0xAE8 JUMP JUMPDEST PUSH1 0x3 DUP1 SLOAD PUSH1 0x1 PUSH1 0x1 PUSH1 0xA0 SHL SUB NOT DUP2 AND SWAP1 SWAP2 SSTORE DUP2 SWAP1 PUSH1 0x1 PUSH1 0x1 PUSH1 0xA0 SHL SUB AND PUSH32 0x8BE0079C531659141344CD1FD0A4F28419497F9722A3DAAFE3B4186F6B6457E0 DUP3 DUP1 LOG3 DUP1 RETURN JUMPDEST DUP1 REVERT JUMPDEST CALLVALUE PUSH2 0x107 JUMPI PUSH1 0x0 CALLDATASIZE PUSH1 0x3 NOT ADD SLT PUSH2 0x107 JUMPI PUSH1 0x3 SLOAD PUSH1 0x40 MLOAD PUSH1 0x1 PUSH1 0x1 PUSH1 0xA0 SHL SUB SWAP1 SWAP2 AND DUP2 MSTORE PUSH1 0x20 SWAP1 RETURN JUMPDEST CALLVALUE PUSH2 0x107 JUMPI PUSH1 0x40 CALLDATASIZE PUSH1 0x3 NOT ADD SLT PUSH2 0x107 JUMPI PUSH2 0x760 PUSH2 0xF1 JUMP JUMPDEST PUSH1 0x24 CALLDATALOAD DUP1 ISZERO ISZERO DUP1 DUP3 SUB PUSH2 0x107 JUMPI PUSH1 0x1 PUSH1 0x1 PUSH1 0xA0 SHL SUB DUP4 AND SWAP3 DUP4 ISZERO PUSH2 0x7EC JUMPI CALLER PUSH1 0x0 SWAP1 DUP2 MSTORE PUSH1 0x1 PUSH1 0x20 SWAP1 DUP2 MSTORE PUSH1 0x40 DUP1 DUP4 KECCAK256 PUSH1 0x1 PUSH1 0x1 PUSH1 0xA0 SHL SUB SWAP1 SWAP5 AND DUP4 MSTORE SWAP3 SWAP1 MSTORE KECCAK256 SWAP1 PUSH1 0xFF DUP1 NOT DUP4 SLOAD AND SWAP2 AND OR SWAP1 SSTORE PUSH32 0x17307EAB39AB6107E8899845AD3D59BD9653F200F220920489CA2B5937696C31 PUSH1 0x40 MLOAD DUP1 PUSH2 0x7E7 CALLER SWAP5 DUP3 SWAP2 SWAP1 SWAP2 PUSH1 0x20 DUP2 ADD SWAP3 ISZERO ISZERO SWAP1 MSTORE JUMP JUMPDEST SUB SWAP1 LOG3 STOP JUMPDEST PUSH1 0x40 MLOAD PUSH3 0xCED3E1 PUSH1 0xE8 SHL DUP2 MSTORE PUSH1 0x0 PUSH1 0x4 DUP3 ADD MSTORE PUSH1 0x24 SWAP1 REVERT JUMPDEST CALLVALUE PUSH2 0x107 JUMPI PUSH1 0x40 CALLDATASIZE PUSH1 0x3 NOT ADD SLT PUSH2 0x107 JUMPI PUSH1 0x20 PUSH1 0xFF PUSH2 0x855 PUSH2 0x824 PUSH2 0xF1 JUMP JUMPDEST PUSH2 0x82C PUSH2 0x10C JUMP JUMPDEST PUSH1 0x1 PUSH1 0x1 PUSH1 0xA0 SHL SUB SWAP2 DUP3 AND PUSH1 0x0 SWAP1 DUP2 MSTORE PUSH1 0x1 DUP7 MSTORE PUSH1 0x40 DUP1 DUP3 KECCAK256 SWAP3 SWAP1 SWAP4 AND DUP2 MSTORE PUSH1 0x20 SWAP2 SWAP1 SWAP2 MSTORE KECCAK256 SWAP1 JUMP JUMPDEST SLOAD AND PUSH1 0x40 MLOAD SWAP1 ISZERO ISZERO DUP2 MSTORE RETURN JUMPDEST CALLVALUE PUSH2 0x107 JUMPI PUSH1 0xA0 CALLDATASIZE PUSH1 0x3 NOT ADD SLT PUSH2 0x107 JUMPI PUSH2 0x87A PUSH2 0xF1 JUMP JUMPDEST PUSH2 0x882 PUSH2 0x10C JUMP JUMPDEST SWAP1 PUSH1 0x84 CALLDATALOAD PUSH8 0xFFFFFFFFFFFFFFFF DUP2 GT PUSH2 0x107 JUMPI PUSH2 0x8A3 SWAP1 CALLDATASIZE SWAP1 PUSH1 0x4 ADD PUSH2 0x44D JUMP JUMPDEST SWAP1 PUSH1 0x1 PUSH1 0x1 PUSH1 0xA0 SHL SUB DUP1 DUP3 AND SWAP1 CALLER DUP3 EQ ISZERO DUP1 PUSH2 0x953 JUMPI JUMPDEST PUSH2 0x92C JUMPI DUP5 AND ISZERO PUSH2 0x913 JUMPI ISZERO PUSH2 0x8FB JUMPI PUSH2 0x53B SWAP3 PUSH1 0x40 MLOAD SWAP1 PUSH1 0x1 DUP3 MSTORE PUSH1 0x44 CALLDATALOAD PUSH1 0x20 DUP4 ADD MSTORE PUSH1 0x40 DUP3 ADD SWAP3 PUSH1 0x1 DUP5 MSTORE PUSH1 0x64 CALLDATALOAD PUSH1 0x60 DUP5 ADD MSTORE PUSH1 0x80 DUP4 ADD PUSH1 0x40 MSTORE PUSH2 0xB14 JUMP JUMPDEST PUSH1 0x40 MLOAD PUSH3 0x6A0D45 PUSH1 0xE2 SHL DUP2 MSTORE PUSH1 0x0 PUSH1 0x4 DUP3 ADD MSTORE PUSH1 0x24 SWAP1 REVERT JUMPDEST PUSH1 0x40 MLOAD PUSH4 0x2BFA23E7 PUSH1 0xE1 SHL DUP2 MSTORE PUSH1 0x0 PUSH1 0x4 DUP3 ADD MSTORE PUSH1 0x24 SWAP1 REVERT JUMPDEST PUSH1 0x40 MLOAD PUSH4 0x711BEC91 PUSH1 0xE1 SHL DUP2 MSTORE CALLER PUSH1 0x4 DUP3 ADD MSTORE PUSH1 0x1 PUSH1 0x1 PUSH1 0xA0 SHL SUB DUP5 AND PUSH1 0x24 DUP3 ADD MSTORE PUSH1 0x44 SWAP1 REVERT JUMPDEST POP PUSH1 0x0 DUP3 DUP2 MSTORE PUSH1 0x1 PUSH1 0x20 SWAP1 DUP2 MSTORE PUSH1 0x40 DUP1 DUP4 KECCAK256 CALLER DUP5 MSTORE SWAP1 SWAP2 MSTORE SWAP1 KECCAK256 SLOAD PUSH1 0xFF AND ISZERO PUSH2 0x8BA JUMP JUMPDEST CALLVALUE PUSH2 0x107 JUMPI PUSH1 0x20 CALLDATASIZE PUSH1 0x3 NOT ADD SLT PUSH2 0x107 JUMPI PUSH2 0x990 PUSH2 0xF1 JUMP JUMPDEST PUSH2 0x998 PUSH2 0xAE8 JUMP JUMPDEST PUSH1 0x1 PUSH1 0x1 PUSH1 0xA0 SHL SUB SWAP1 DUP2 AND SWAP1 DUP2 ISZERO PUSH2 0x9E6 JUMPI PUSH1 0x3 DUP1 SLOAD PUSH1 0x1 PUSH1 0x1 PUSH1 0xA0 SHL SUB NOT DUP2 AND DUP5 OR SWAP1 SWAP2 SSTORE AND PUSH32 0x8BE0079C531659141344CD1FD0A4F28419497F9722A3DAAFE3B4186F6B6457E0 PUSH1 0x0 DUP1 LOG3 STOP JUMPDEST PUSH1 0x40 MLOAD PUSH4 0x1E4FBDF7 PUSH1 0xE0 SHL DUP2 MSTORE PUSH1 0x0 PUSH1 0x4 DUP3 ADD MSTORE PUSH1 0x24 SWAP1 REVERT JUMPDEST DUP1 MLOAD DUP3 LT ISZERO PUSH2 0xA13 JUMPI PUSH1 0x20 SWAP2 PUSH1 0x5 SHL ADD ADD SWAP1 JUMP JUMPDEST PUSH4 0x4E487B71 PUSH1 0xE0 SHL PUSH1 0x0 MSTORE PUSH1 0x32 PUSH1 0x4 MSTORE PUSH1 0x24 PUSH1 0x0 REVERT JUMPDEST SWAP2 SWAP1 SWAP2 DUP1 MLOAD DUP4 MLOAD DUP1 DUP3 SUB PUSH2 0xAC6 JUMPI POP POP DUP1 MLOAD SWAP1 PUSH2 0xA5E PUSH2 0xA48 DUP4 PUSH2 0x3B9 JUMP JUMPDEST SWAP3 PUSH2 0xA56 PUSH1 0x40 MLOAD SWAP5 DUP6 PUSH2 0x392 JUMP JUMPDEST DUP1 DUP5 MSTORE PUSH2 0x3B9 JUMP JUMPDEST PUSH1 0x20 SWAP2 SWAP1 PUSH1 0x1F NOT ADD CALLDATASIZE DUP5 DUP5 ADD CALLDATACOPY PUSH1 0x0 JUMPDEST DUP2 MLOAD DUP2 LT ISZERO PUSH2 0xABE JUMPI PUSH1 0x5 DUP2 SWAP1 SHL DUP3 DUP2 ADD DUP5 ADD MLOAD SWAP1 DUP8 ADD DUP5 ADD MLOAD PUSH1 0x0 SWAP1 DUP2 MSTORE PUSH1 0x20 DUP2 DUP2 MSTORE PUSH1 0x40 DUP1 DUP4 KECCAK256 PUSH1 0x1 PUSH1 0x1 PUSH1 0xA0 SHL SUB SWAP1 SWAP5 AND DUP4 MSTORE SWAP3 SWAP1 MSTORE KECCAK256 SLOAD PUSH1 0x1 SWAP2 SWAP1 PUSH2 0xAB7 DUP3 DUP8 PUSH2 0x9FF JUMP JUMPDEST MSTORE ADD PUSH2 0xA6E JUMP JUMPDEST POP SWAP2 SWAP4 POP POP POP JUMP JUMPDEST PUSH1 0x40 MLOAD PUSH4 0x5B059991 PUSH1 0xE0 SHL DUP2 MSTORE PUSH1 0x4 DUP2 ADD SWAP2 SWAP1 SWAP2 MSTORE PUSH1 0x24 DUP2 ADD SWAP2 SWAP1 SWAP2 MSTORE PUSH1 0x44 SWAP1 REVERT JUMPDEST PUSH1 0x3 SLOAD PUSH1 0x1 PUSH1 0x1 PUSH1 0xA0 SHL SUB AND CALLER SUB PUSH2 0xAFC JUMPI JUMP JUMPDEST PUSH1 0x40 MLOAD PUSH4 0x118CDAA7 PUSH1 0xE0 SHL DUP2 MSTORE CALLER PUSH1 0x4 DUP3 ADD MSTORE PUSH1 0x24 SWAP1 REVERT JUMPDEST SWAP5 SWAP2 SWAP1 SWAP2 DUP2 MLOAD DUP5 MLOAD SWAP1 DUP2 DUP2 SUB PUSH2 0xAC6 JUMPI POP POP PUSH1 0x0 JUMPDEST DUP3 MLOAD DUP2 LT ISZERO PUSH2 0xC36 JUMPI PUSH1 0x5 DUP2 SWAP1 SHL DUP4 DUP2 ADD PUSH1 0x20 SWAP1 DUP2 ADD MLOAD SWAP2 DUP8 ADD ADD MLOAD PUSH1 0x1 PUSH1 0x1 PUSH1 0xA0 SHL SUB SWAP3 SWAP2 DUP7 SWAP1 DUP11 DUP6 AND PUSH2 0xBB0 JUMPI JUMPDEST PUSH1 0x1 SWAP5 DUP3 AND PUSH2 0xB6C JUMPI JUMPDEST POP POP POP ADD PUSH2 0xB29 JUMP JUMPDEST PUSH2 0xBA6 SWAP2 PUSH2 0xB87 PUSH2 0xB9E SWAP3 PUSH1 0x0 MSTORE PUSH1 0x0 PUSH1 0x20 MSTORE PUSH1 0x40 PUSH1 0x0 KECCAK256 SWAP1 JUMP JUMPDEST SWAP1 PUSH1 0x1 DUP1 PUSH1 0xA0 SHL SUB AND PUSH1 0x0 MSTORE PUSH1 0x20 MSTORE PUSH1 0x40 PUSH1 0x0 KECCAK256 SWAP1 JUMP JUMPDEST SWAP2 DUP3 SLOAD PUSH2 0xD2C JUMP JUMPDEST SWAP1 SSTORE CODESIZE DUP6 DUP2 PUSH2 0xB63 JUMP JUMPDEST SWAP2 SWAP3 SWAP4 SWAP1 POP PUSH2 0xBCD DUP11 PUSH2 0xB87 DUP5 PUSH1 0x0 MSTORE PUSH1 0x0 PUSH1 0x20 MSTORE PUSH1 0x40 PUSH1 0x0 KECCAK256 SWAP1 JUMP JUMPDEST SLOAD DUP4 DUP2 LT PUSH2 0xBFF JUMPI SWAP2 DUP8 SWAP2 DUP5 PUSH1 0x1 SWAP7 SWAP6 SWAP5 SUB PUSH2 0xBF7 DUP14 PUSH2 0xB87 DUP6 PUSH1 0x0 MSTORE PUSH1 0x0 PUSH1 0x20 MSTORE PUSH1 0x40 PUSH1 0x0 KECCAK256 SWAP1 JUMP JUMPDEST SSTORE SWAP5 POP PUSH2 0xB59 JUMP JUMPDEST PUSH1 0x40 MLOAD PUSH4 0x3DEE4C5 PUSH1 0xE0 SHL DUP2 MSTORE PUSH1 0x1 PUSH1 0x1 PUSH1 0xA0 SHL SUB DUP13 AND PUSH1 0x4 DUP3 ADD MSTORE PUSH1 0x24 DUP2 ADD SWAP2 SWAP1 SWAP2 MSTORE PUSH1 0x44 DUP2 ADD DUP5 SWAP1 MSTORE PUSH1 0x64 DUP2 ADD DUP4 SWAP1 MSTORE PUSH1 0x84 SWAP1 REVERT JUMPDEST POP SWAP5 SWAP2 SWAP4 SWAP3 SWAP1 SWAP4 PUSH1 0x1 DUP6 MLOAD EQ PUSH1 0x0 EQ PUSH2 0xCE1 JUMPI PUSH1 0x20 DUP6 DUP2 ADD MLOAD DUP4 DUP3 ADD MLOAD PUSH1 0x40 DUP1 MLOAD SWAP3 DUP4 MSTORE SWAP3 DUP3 ADD MSTORE PUSH1 0x1 PUSH1 0x1 PUSH1 0xA0 SHL SUB DUP4 DUP2 AND SWAP3 SWAP1 DUP7 AND SWAP2 CALLER SWAP2 PUSH32 0xC3D58168C5AE7397731D063D5BBF3D657854427343F4C083240F7AACAA2D0F62 SWAP2 LOG4 JUMPDEST PUSH1 0x1 PUSH1 0x1 PUSH1 0xA0 SHL SUB DUP2 AND PUSH2 0xCAA JUMPI JUMPDEST POP POP POP POP POP JUMP JUMPDEST DUP5 MLOAD PUSH1 0x1 SUB PUSH2 0xCD0 JUMPI PUSH1 0x20 DUP1 PUSH2 0xCC6 SWAP7 ADD MLOAD SWAP3 ADD MLOAD SWAP3 CALLER PUSH2 0xF39 JUMP JUMPDEST CODESIZE DUP1 DUP1 DUP1 DUP1 PUSH2 0xCA3 JUMP JUMPDEST PUSH2 0xCDC SWAP5 SWAP2 SWAP3 CALLER PUSH2 0xE07 JUMP JUMPDEST PUSH2 0xCC6 JUMP JUMPDEST PUSH1 0x40 MLOAD PUSH1 0x1 PUSH1 0x1 PUSH1 0xA0 SHL SUB DUP3 DUP2 AND SWAP2 SWAP1 DUP6 AND SWAP1 CALLER SWAP1 PUSH32 0x4A39DC06D4C0DBC64B70AF90FD698A233A518AA5D07E595D983B8C0526C8F7FB SWAP1 DUP1 PUSH2 0xD24 DUP9 DUP13 DUP4 PUSH2 0xD4F JUMP JUMPDEST SUB SWAP1 LOG4 PUSH2 0xC94 JUMP JUMPDEST SWAP2 SWAP1 DUP3 ADD DUP1 SWAP3 GT PUSH2 0xD39 JUMPI JUMP JUMPDEST PUSH4 0x4E487B71 PUSH1 0xE0 SHL PUSH1 0x0 MSTORE PUSH1 0x11 PUSH1 0x4 MSTORE PUSH1 0x24 PUSH1 0x0 REVERT JUMPDEST SWAP1 SWAP2 PUSH2 0xD66 PUSH2 0x254 SWAP4 PUSH1 0x40 DUP5 MSTORE PUSH1 0x40 DUP5 ADD SWAP1 PUSH2 0x5BD JUMP JUMPDEST SWAP2 PUSH1 0x20 DUP2 DUP5 SUB SWAP2 ADD MSTORE PUSH2 0x5BD JUMP JUMPDEST SWAP1 DUP2 PUSH1 0x20 SWAP2 SUB SLT PUSH2 0x107 JUMPI MLOAD PUSH2 0x254 DUP2 PUSH2 0x183 JUMP JUMPDEST SWAP4 SWAP1 PUSH2 0x254 SWAP6 SWAP4 PUSH2 0xDBB SWAP2 PUSH2 0xDC9 SWAP5 PUSH1 0x1 DUP1 PUSH1 0xA0 SHL SUB DUP1 SWAP3 AND DUP9 MSTORE AND PUSH1 0x20 DUP8 ADD MSTORE PUSH1 0xA0 PUSH1 0x40 DUP8 ADD MSTORE PUSH1 0xA0 DUP7 ADD SWAP1 PUSH2 0x5BD JUMP JUMPDEST SWAP1 DUP5 DUP3 SUB PUSH1 0x60 DUP7 ADD MSTORE PUSH2 0x5BD JUMP JUMPDEST SWAP2 PUSH1 0x80 DUP2 DUP5 SUB SWAP2 ADD MSTORE PUSH2 0x203 JUMP JUMPDEST RETURNDATASIZE ISZERO PUSH2 0xE02 JUMPI RETURNDATASIZE SWAP1 PUSH2 0xDE8 DUP3 PUSH2 0x431 JUMP JUMPDEST SWAP2 PUSH2 0xDF6 PUSH1 0x40 MLOAD SWAP4 DUP5 PUSH2 0x392 JUMP JUMPDEST DUP3 MSTORE RETURNDATASIZE PUSH1 0x0 PUSH1 0x20 DUP5 ADD RETURNDATACOPY JUMP JUMPDEST PUSH1 0x60 SWAP1 JUMP JUMPDEST SWAP4 SWAP3 SWAP1 SWAP5 SWAP2 SWAP5 DUP6 EXTCODESIZE PUSH2 0xE1C JUMPI JUMPDEST POP POP POP POP POP POP JUMP JUMPDEST PUSH2 0xE3F PUSH1 0x20 SWAP4 PUSH1 0x40 MLOAD SWAP6 DUP7 SWAP5 DUP6 SWAP5 PUSH4 0xBC197C81 PUSH1 0xE0 SHL SWAP10 DUP11 DUP8 MSTORE PUSH1 0x4 DUP8 ADD PUSH2 0xD89 JUMP JUMPDEST SUB DUP2 PUSH1 0x0 PUSH1 0x1 PUSH1 0x1 PUSH1 0xA0 SHL SUB DUP9 AND GAS CALL PUSH1 0x0 SWAP2 DUP2 PUSH2 0xED5 JUMPI JUMPDEST POP PUSH2 0xE97 JUMPI DUP3 PUSH2 0xE66 PUSH2 0xDD7 JUMP JUMPDEST DUP1 MLOAD SWAP2 SWAP1 DUP3 PUSH2 0xE90 JUMPI PUSH1 0x40 MLOAD PUSH4 0x2BFA23E7 PUSH1 0xE1 SHL DUP2 MSTORE PUSH1 0x1 PUSH1 0x1 PUSH1 0xA0 SHL SUB DUP4 AND PUSH1 0x4 DUP3 ADD MSTORE PUSH1 0x24 SWAP1 REVERT JUMPDEST SWAP1 POP PUSH1 0x20 ADD REVERT JUMPDEST PUSH1 0x1 PUSH1 0x1 PUSH1 0xE0 SHL SUB NOT AND SUB PUSH2 0xEB2 JUMPI POP CODESIZE DUP1 DUP1 DUP1 DUP1 DUP1 PUSH2 0xE14 JUMP JUMPDEST PUSH1 0x40 MLOAD PUSH4 0x2BFA23E7 PUSH1 0xE1 SHL DUP2 MSTORE PUSH1 0x1 PUSH1 0x1 PUSH1 0xA0 SHL SUB SWAP2 SWAP1 SWAP2 AND PUSH1 0x4 DUP3 ADD MSTORE PUSH1 0x24 SWAP1 REVERT JUMPDEST PUSH2 0xEF8 SWAP2 SWAP3 POP PUSH1 0x20 RETURNDATASIZE PUSH1 0x20 GT PUSH2 0xEFF JUMPI JUMPDEST PUSH2 0xEF0 DUP2 DUP4 PUSH2 0x392 JUMP JUMPDEST DUP2 ADD SWAP1 PUSH2 0xD74 JUMP JUMPDEST SWAP1 CODESIZE PUSH2 0xE58 JUMP JUMPDEST POP RETURNDATASIZE PUSH2 0xEE6 JUMP JUMPDEST SWAP2 SWAP3 PUSH2 0x254 SWAP6 SWAP5 SWAP2 PUSH1 0xA0 SWAP5 PUSH1 0x1 DUP1 DUP8 SHL SUB DUP1 SWAP3 AND DUP6 MSTORE AND PUSH1 0x20 DUP5 ADD MSTORE PUSH1 0x40 DUP4 ADD MSTORE PUSH1 0x60 DUP3 ADD MSTORE DUP2 PUSH1 0x80 DUP3 ADD MSTORE ADD SWAP1 PUSH2 0x203 JUMP JUMPDEST SWAP4 SWAP3 SWAP1 SWAP5 SWAP2 SWAP5 DUP6 EXTCODESIZE PUSH2 0xF4D JUMPI POP POP POP POP POP POP JUMP JUMPDEST PUSH2 0xE3F PUSH1 0x20 SWAP4 PUSH1 0x40 MLOAD SWAP6 DUP7 SWAP5 DUP6 SWAP5 PUSH4 0xF23A6E61 PUSH1 0xE0 SHL SWAP10 DUP11 DUP8 MSTORE PUSH1 0x4 DUP8 ADD PUSH2 0xF06 JUMP INVALID LOG2 PUSH5 0x6970667358 0x22 SLT KECCAK256 ADDMOD PUSH1 0x62 TLOAD 0xAE DUP11 PUSH3 0x7247D3 PUSH18 0xF9B8BAAE7DB684CDBF1E18B218F9C79BE0A2 SWAP11 0xD4 CREATE PUSH5 0x736F6C6343 STOP ADDMOD XOR STOP CALLER "},"methodIdentifiers":{"Bronze()":"10ca7d1c","Gold()":"c8449b65","Silver()":"fe275280","balanceOf(address,uint256)":"00fdd58e","balanceOfBatch(address[],uint256[])":"4e1273f4","isApprovedForAll(address,address)":"e985e9c5","owner()":"8da5cb5b","renounceOwnership()":"715018a6","safeBatchTransferFrom(address,address,uint256[],uint256[],bytes)":"2eb2c2d6","safeTransferFrom(address,address,uint256,uint256,bytes)":"f242432a","setApprovalForAll(address,bool)":"a22cb465","supportsInterface(bytes4)":"01ffc9a7","transferOwnership(address)":"f2fde38b","uri(uint256)":"0e89341c"}}}}}